{
	"data": {
		"bytecode": {
			"linkReferences": {},
			"object": "60e06040523480156200001157600080fd5b50604051620050b2380380620050b283398181016040526101808110156200003857600080fd5b815160208301516040808501516060860151608087015160a088015160c089015160e08a01516101008b01516101208c01516101408d01516101608e0180519a519c9e9b9d999c989b979a969995989497939692959194939182019284640100000000821115620000a857600080fd5b908301906020820185811115620000be57600080fd5b8251640100000000811182820188101715620000d957600080fd5b82525081516020918201929091019080838360005b8381101562000108578181015183820152602001620000ee565b50505050905090810190601f168015620001365780820380516001836020036101000a031916815260200191505b506040525050600080546001600160a01b03191633179055508b8b8b8b8b8b89620001658787878787620002ca565b600380546001600160a01b0319166001600160a01b0384169081179091556040516000907f4966a50c93f855342ccf6c5c0d358b85b91335b2acedc7da0932f691f351711a908290a3620001b981620003bc565b620001c362000653565b620001cd62000653565b60005b601f8160ff1610156200021d576001838260ff16601f8110620001ef57fe5b61ffff909216602092909202015260018260ff8316601f81106200020f57fe5b6020020152600101620001d0565b506200022d600583601f62000672565b506200023d600982601f6200070f565b505050505060f887901b7fff000000000000000000000000000000000000000000000000000000000000001660c052505083516200028693506031925060208501915062000740565b50620002928362000435565b6200029f6000806200050d565b50505050601791820b820b604090811b60805290820b90910b901b60a05250620007d9945050505050565b6040805160a0808201835263ffffffff88811680845288821660208086018290528984168688018190528985166060808901829052958a1660809889018190526002805463ffffffff1916871763ffffffff60201b191664010000000087021763ffffffff60401b19166801000000000000000085021763ffffffff60601b19166c0100000000000000000000000084021763ffffffff60801b1916600160801b830217905589519586529285019390935283880152928201529283015291517fd0d9486a2c673e2a4b57fc82e4c8a556b3e2b82dd5db07e2c04a920ca0f469b6929181900390910190a15050505050565b6004546001600160a01b0390811690821681146200043157600480546001600160a01b0319166001600160a01b03848116918217909255604080519284168352602083019190915280517f793cb73064f3c8cde7e187ae515511e6e56d1ee89bf08b82fa60fb70f8d489129281900390910190a15b5050565b6000546001600160a01b0316331462000495576040805162461bcd60e51b815260206004820152601660248201527f4f6e6c792063616c6c61626c65206279206f776e657200000000000000000000604482015290519081900360640190fd5b6030546001600160a01b0390811690821681146200043157603080546001600160a01b0319166001600160a01b03848116918217909255604080519284168352602083019190915280517f27b89aede8b560578baaa25ee5ce3852c5eecad1e114b941bbd89e1eb4bae6349281900390910190a15050565b6000546001600160a01b031633146200056d576040805162461bcd60e51b815260206004820152601660248201527f4f6e6c792063616c6c61626c65206279206f776e657200000000000000000000604482015290519081900360640190fd5b60408051808201909152602f546001600160a01b03808216808452600160a01b90920463ffffffff1660208401528416141580620005bb57508163ffffffff16816020015163ffffffff1614155b156200064e576040805180820182526001600160a01b0385811680835263ffffffff8681166020948501819052602f80546001600160a01b031916841763ffffffff60a01b1916600160a01b8302179055865187860151875193168352948201528451919493909216927fb04e3a37abe9c0fcdfebdeae019a8e2b12ddf53f5d55ffb0caccc1bedaca1541928290030190a35b505050565b604051806103e00160405280601f906020820280368337509192915050565b600283019183908215620006fd5791602002820160005b83821115620006cb57835183826101000a81548161ffff021916908361ffff160217905550926020019260020160208160010104928301926001030262000689565b8015620006fb5782816101000a81549061ffff0219169055600201602081600101049283019260010302620006cb565b505b506200070b929150620007c2565b5090565b82601f8101928215620006fd579160200282015b82811115620006fd57825182559160200191906001019062000723565b828054600181600116156101000203166002900490600052602060002090601f016020900481019282620007785760008555620006fd565b82601f106200079357805160ff1916838001178555620006fd565b82800160010185558215620006fd5791820182811115620006fd57825182559160200191906001019062000723565b5b808211156200070b5760008155600101620007c3565b60805160401c60a05160401c60c05160f81c6148996200081960003980610cea5250806117755280612f7d525080610c655280612f5052506148996000f3fe608060405234801561001057600080fd5b50600436106102535760003560e01c806398e5b12a11610146578063c1075329116100c3578063e76d516811610087578063e76d516814610a41578063eb45716314610a49578063eb5dcd6c14610a7b578063f2fde38b14610aa9578063fbffd2c114610acf578063feaf968c14610af557610253565b8063c107532914610871578063c98075391461089d578063d09dc339146109ab578063e4902f82146109b3578063e5fe4577146109f057610253565b8063b121e1471161010a578063b121e147146107a6578063b3d526fa146107cc578063b5ab58dc146107f2578063b633620c1461080f578063bd8247061461082c57610253565b806398e5b12a1461062c578063996e8298146106505780639a6fc8f5146106585780639c849b30146106c25780639e3ceeab1461078057610253565b806370da2f67116101d457806381ff70481161019857806381ff70481461058d5780638205bf6a146105c65780638ac28d5a146105ce5780638da5cb5b146105f45780638e0566de146105fc57610253565b806370da2f67146104f957806370efdf2d146105015780637284e4161461052557806379ba50971461052d578063814118341461053557610253565b80634fb174701161021b5780634fb174701461038b57806350d25bcd146103bb57806354fd4d50146103c3578063585aa7de146103cb578063668a0f02146104f157610253565b80630eafb25b14610258578063181f5a771461029057806322adbc781461030d578063299372681461032c578063313ce5671461036d575b600080fd5b61027e6004803603602081101561026e57600080fd5b50356001600160a01b0316610afd565b60408051918252519081900360200190f35b610298610c2c565b6040805160208082528351818301528351919283929083019185019080838360005b838110156102d25781810151838201526020016102ba565b50505050905090810190601f1680156102ff5780820380516001836020036101000a031916815260200191505b509250505060405180910390f35b610315610c63565b6040805160179290920b8252519081900360200190f35b610334610c87565b6040805163ffffffff96871681529486166020860152928516848401529084166060840152909216608082015290519081900360a00190f35b610375610ce8565b6040805160ff9092168252519081900360200190f35b6103b9600480360360408110156103a157600080fd5b506001600160a01b0381358116916020013516610d0c565b005b61027e610f94565b61027e610fbd565b6103b9600480360360a08110156103e157600080fd5b810190602081018135600160201b8111156103fb57600080fd5b82018360208201111561040d57600080fd5b803590602001918460208302840111600160201b8311171561042e57600080fd5b919390929091602081019035600160201b81111561044b57600080fd5b82018360208201111561045d57600080fd5b803590602001918460208302840111600160201b8311171561047e57600080fd5b9193909260ff833516926001600160401b03602082013516929190606081019060400135600160201b8111156104b357600080fd5b8201836020820111156104c557600080fd5b803590602001918460018302840111600160201b831117156104e657600080fd5b509092509050610fc2565b61027e611760565b610315611773565b610509611797565b604080516001600160a01b039092168252519081900360200190f35b6102986117a6565b6103b961183c565b61053d6118eb565b60408051602080825283518183015283519192839290830191858101910280838360005b83811015610579578181015183820152602001610561565b505050509050019250505060405180910390f35b61059561194c565b6040805163ffffffff94851681529290931660208301526001600160801b0319168183015290519081900360600190f35b61027e61196c565b6103b9600480360360208110156105e457600080fd5b50356001600160a01b031661199e565b610509611a18565b610604611a27565b604080516001600160a01b03909316835263ffffffff90911660208301528051918290030190f35b610634611a5a565b604080516001600160501b039092168252519081900360200190f35b610509611c2d565b61067e6004803603602081101561066e57600080fd5b50356001600160501b0316611c3c565b60405180866001600160501b03168152602001858152602001848152602001838152602001826001600160501b031681526020019550505050505060405180910390f35b6103b9600480360360408110156106d857600080fd5b810190602081018135600160201b8111156106f257600080fd5b82018360208201111561070457600080fd5b803590602001918460208302840111600160201b8311171561072557600080fd5b919390929091602081019035600160201b81111561074257600080fd5b82018360208201111561075457600080fd5b803590602001918460208302840111600160201b8311171561077557600080fd5b509092509050611d60565b6103b96004803603602081101561079657600080fd5b50356001600160a01b0316611f63565b6103b9600480360360208110156107bc57600080fd5b50356001600160a01b0316612027565b6103b9600480360360208110156107e257600080fd5b50356001600160a01b0316612108565b61027e6004803603602081101561080857600080fd5b503561212a565b61027e6004803603602081101561082557600080fd5b5035612160565b6103b9600480360360a081101561084257600080fd5b5063ffffffff81358116916020810135821691604082013581169160608101358216916080909101351661219f565b6103b96004803603604081101561088757600080fd5b506001600160a01b0381351690602001356122ce565b6103b9600480360360808110156108b357600080fd5b810190602081018135600160201b8111156108cd57600080fd5b8201836020820111156108df57600080fd5b803590602001918460018302840111600160201b8311171561090057600080fd5b919390929091602081019035600160201b81111561091d57600080fd5b82018360208201111561092f57600080fd5b803590602001918460208302840111600160201b8311171561095057600080fd5b919390929091602081019035600160201b81111561096d57600080fd5b82018360208201111561097f57600080fd5b803590602001918460208302840111600160201b831117156109a057600080fd5b919350915035612591565b61027e6132df565b6109d9600480360360208110156109c957600080fd5b50356001600160a01b0316613370565b6040805161ffff9092168252519081900360200190f35b6109f861341d565b604080516001600160801b0319909616865263ffffffff909416602086015260ff9092168484015260170b60608401526001600160401b03166080830152519081900360a00190f35b6105096134cd565b6103b960048036036040811015610a5f57600080fd5b5080356001600160a01b0316906020013563ffffffff166134dc565b6103b960048036036040811015610a9157600080fd5b506001600160a01b038135811691602001351661360d565b6103b960048036036020811015610abf57600080fd5b50356001600160a01b0316613750565b6103b960048036036020811015610ae557600080fd5b50356001600160a01b03166137ee565b61067e613844565b6001600160a01b03811660009081526028602090815260408083208151808301909252805460ff808216845285948401916101009004166002811115610b3f57fe5b6002811115610b4a57fe5b9052509050600081602001516002811115610b6157fe5b1415610b71576000915050610c27565b6040805160a08101825260025463ffffffff8082168352600160201b820481166020840152600160401b8204811693830193909352600160601b8104831660608301819052600160801b90910490921660808201528251909160009160019060059060ff16601f8110610be057fe5b601091828204019190066002029054906101000a900461ffff160361ffff1602633b9aca0002905060016009846000015160ff16601f8110610c1e57fe5b01540301925050505b919050565b60408051808201909152601881527f4f6666636861696e41676772656761746f7220332e302e300000000000000000602082015290565b7f000000000000000000000000000000000000000000000000000000000000000081565b6040805160a08101825260025463ffffffff808216808452600160201b8304821660208501819052600160401b84048316958501869052600160601b8404831660608601819052600160801b90940490921660809094018490529490939290565b7f000000000000000000000000000000000000000000000000000000000000000081565b6000546001600160a01b03163314610d59576040805162461bcd60e51b81526020600482015260166024820152600080516020614844833981519152604482015290519081900360640190fd5b6003546001600160a01b03908116908316811415610d775750610f90565b604080516370a0823160e01b815230600482015290516001600160a01b038516916370a08231916024808301926020929190829003018186803b158015610dbd57600080fd5b505afa158015610dd1573d6000803e3d6000fd5b505050506040513d6020811015610de757600080fd5b50610df2905061389f565b6000816001600160a01b03166370a08231306040518263ffffffff1660e01b815260040180826001600160a01b0316815260200191505060206040518083038186803b158015610e4157600080fd5b505afa158015610e55573d6000803e3d6000fd5b505050506040513d6020811015610e6b57600080fd5b50516040805163a9059cbb60e01b81526001600160a01b0386811660048301526024820184905291519293509084169163a9059cbb916044808201926020929091908290030181600087803b158015610ec357600080fd5b505af1158015610ed7573d6000803e3d6000fd5b505050506040513d6020811015610eed57600080fd5b5051610f40576040805162461bcd60e51b815260206004820152601f60248201527f7472616e736665722072656d61696e696e672066756e6473206661696c656400604482015290519081900360640190fd5b600380546001600160a01b0319166001600160a01b0386811691821790925560405190918416907f4966a50c93f855342ccf6c5c0d358b85b91335b2acedc7da0932f691f351711a90600090a350505b5050565b602c54600160b01b900463ffffffff166000908152602d6020526040902054601790810b900b90565b600481565b868560ff8616601f831115611011576040805162461bcd60e51b815260206004820152601060248201526f746f6f206d616e79207369676e65727360801b604482015290519081900360640190fd5b60008111611066576040805162461bcd60e51b815260206004820152601a60248201527f7468726573686f6c64206d75737420626520706f736974697665000000000000604482015290519081900360640190fd5b8183146110a45760405162461bcd60e51b81526004018080602001828103825260248152602001806148206024913960400191505060405180910390fd5b8060030283116110fb576040805162461bcd60e51b815260206004820181905260248201527f6661756c74792d6f7261636c65207468726573686f6c6420746f6f2068696768604482015290519081900360640190fd5b6000546001600160a01b03163314611148576040805162461bcd60e51b81526020600482015260166024820152600080516020614844833981519152604482015290519081900360640190fd5b6029541561124557602980546000198101916000918390811061116757fe5b6000918252602082200154602a80546001600160a01b039092169350908490811061118e57fe5b6000918252602090912001546001600160a01b031690506111ae81613c28565b6001600160a01b03808316600090815260286020526040808220805461ffff19908116909155928416825290208054909116905560298054806111ed57fe5b600082815260209020810160001990810180546001600160a01b0319169055019055602a80548061121a57fe5b600082815260209020810160001990810180546001600160a01b031916905501905550611148915050565b60005b8a8110156115a1576000602860008e8e8581811061126257fe5b602090810292909201356001600160a01b031683525081019190915260400160002054610100900460ff16600281111561129857fe5b146112ea576040805162461bcd60e51b815260206004820152601760248201527f7265706561746564207369676e65722061646472657373000000000000000000604482015290519081900360640190fd5b6040805180820190915260ff8216815260016020820152602860008e8e8581811061131157fe5b602090810292909201356001600160a01b0316835250818101929092526040016000208251815460ff191660ff90911617808255918301519091829061ff00191661010083600281111561136157fe5b02179055506000915060079050818c8c8581811061137b57fe5b6001600160a01b03602091820293909301358316845283019390935260409091016000205416919091141590506113ed576040805162461bcd60e51b81526020600482015260116024820152701c185e5959481b5d5cdd081899481cd95d607a1b604482015290519081900360640190fd5b6000602860008c8c858181106113ff57fe5b602090810292909201356001600160a01b031683525081019190915260400160002054610100900460ff16600281111561143557fe5b14611487576040805162461bcd60e51b815260206004820152601c60248201527f7265706561746564207472616e736d6974746572206164647265737300000000604482015290519081900360640190fd5b6040805180820190915260ff8216815260026020820152602860008c8c858181106114ae57fe5b602090810292909201356001600160a01b0316835250818101929092526040016000208251815460ff191660ff90911617808255918301519091829061ff0019166101008360028111156114fe57fe5b021790555090505060298c8c8381811061151457fe5b835460018101855560009485526020948590200180546001600160a01b0319166001600160a01b039590920293909301359390931692909217905550602a8a8a8381811061155e57fe5b835460018181018655600095865260209586902090910180546001600160a01b0319166001600160a01b0396909302949094013594909416179091555001611248565b50602c805460ff8916600160a81b0260ff60a81b19909116179055602e80544363ffffffff908116600160201b90810267ffffffff0000000019841617808316600101831663ffffffff1990911617938490559091048116911661160d30828f8f8f8f8f8f8f8f613e10565b602c60000160006101000a8154816001600160801b03021916908360801c02179055506000602c60000160106101000a81548164ffffffffff021916908364ffffffffff1602179055507f25d719d88a4512dd76c7442b910a83360845505894eb444ef299409e180f8fb982828f8f8f8f8f8f8f8f604051808b63ffffffff1681526020018a6001600160401b0316815260200180602001806020018760ff168152602001866001600160401b031681526020018060200184810384528c8c82818152602001925060200280828437600083820152601f01601f191690910185810384528a8152602090810191508b908b0280828437600083820152601f01601f191690910185810383528681526020019050868680828437600083820152604051601f909101601f19169092018290039f50909d5050505050505050505050505050a150505050505050505050505050565b602c54600160b01b900463ffffffff1690565b7f000000000000000000000000000000000000000000000000000000000000000081565b6030546001600160a01b031690565b60318054604080516020601f60026000196101006001881615020190951694909404938401819004810282018101909252828152606093909290918301828280156118325780601f1061180757610100808354040283529160200191611832565b820191906000526020600020905b81548152906001019060200180831161181557829003601f168201915b5050505050905090565b6001546001600160a01b03163314611894576040805162461bcd60e51b815260206004820152601660248201527526bab9ba10313290383937b837b9b2b21037bbb732b960511b604482015290519081900360640190fd5b60008054336001600160a01b0319808316821784556001805490911690556040516001600160a01b0390921692909183917f8be0079c531659141344cd1fd0a4f28419497f9722a3daafe3b4186f6b6457e091a350565b6060602a80548060200260200160405190810160405280929190818152602001828054801561183257602002820191906000526020600020905b81546001600160a01b03168152600190910190602001808311611925575050505050905090565b602e54602c5463ffffffff80831692600160201b9004169060801b909192565b602c54600160b01b900463ffffffff166000908152602d6020526040902054600160c01b90046001600160401b031690565b6001600160a01b03818116600090815260076020526040902054163314611a0c576040805162461bcd60e51b815260206004820152601760248201527f4f6e6c792070617965652063616e207769746864726177000000000000000000604482015290519081900360640190fd5b611a1581613c28565b50565b6000546001600160a01b031681565b60408051808201909152602f546001600160a01b038116808352600160a01b90910463ffffffff16602090920182905291565b600080546001600160a01b0316331480611b1d575060305460408051630d629b5f60e31b815233600482018181526024830193845236604484018190526001600160a01b0390951694636b14daf894929360009391929190606401848480828437600083820152604051601f909101601f1916909201965060209550909350505081840390508186803b158015611af057600080fd5b505afa158015611b04573d6000803e3d6000fd5b505050506040513d6020811015611b1a57600080fd5b50515b611b6e576040805162461bcd60e51b815260206004820152601d60248201527f4f6e6c79206f776e6572267265717565737465722063616e2063616c6c000000604482015290519081900360640190fd5b6040805160808082018352602c549081901b6001600160801b031916808352600160801b820464ffffffffff8116602080860191909152600160a81b840460ff90811686880152600160b01b90940463ffffffff9081166060808801919091528751948552600884901c909116918401919091529216818501529251919233927f3ea16a923ff4b1df6526e854c9e3a995c43385d70e73359e10623c74f0b52037929181900390910190a2806060015160010163ffffffff1691505090565b6004546001600160a01b031690565b600080600080600063ffffffff866001600160501b031611156040518060400160405280600f81526020016e139bc819185d18481c1c995cd95b9d608a1b81525090611d065760405162461bcd60e51b81526004018080602001828103825283818151815260200191508051906020019080838360005b83811015611ccb578181015183820152602001611cb3565b50505050905090810190601f168015611cf85780820380516001836020036101000a031916815260200191505b509250505060405180910390fd5b5050505063ffffffff83166000908152602d6020908152604091829020825180840190935254601781810b810b810b808552600160c01b9092046001600160401b031693909201839052949594900b939092508291508490565b6000546001600160a01b03163314611dad576040805162461bcd60e51b81526020600482015260166024820152600080516020614844833981519152604482015290519081900360640190fd5b828114611e01576040805162461bcd60e51b815260206004820181905260248201527f7472616e736d6974746572732e73697a6520213d207061796565732e73697a65604482015290519081900360640190fd5b60005b83811015611f5c576000858583818110611e1a57fe5b905060200201356001600160a01b031690506000848484818110611e3a57fe5b6001600160a01b038581166000908152600760209081526040909120549202939093013583169350909116905080158080611e865750826001600160a01b0316826001600160a01b0316145b611ecb576040805162461bcd60e51b81526020600482015260116024820152701c185e595948185b1c9958591e481cd95d607a1b604482015290519081900360640190fd5b6001600160a01b03848116600090815260076020526040902080546001600160a01b03191685831690811790915590831614611f4c57826001600160a01b0316826001600160a01b0316856001600160a01b03167f78af32efdcad432315431e9b03d27e6cd98fb79c405fdc5af7c1714d9c0f75b360405160405180910390a45b505060019092019150611e049050565b5050505050565b6000546001600160a01b03163314611fb0576040805162461bcd60e51b81526020600482015260166024820152600080516020614844833981519152604482015290519081900360640190fd5b6030546001600160a01b039081169082168114610f9057603080546001600160a01b0319166001600160a01b03848116918217909255604080519284168352602083019190915280517f27b89aede8b560578baaa25ee5ce3852c5eecad1e114b941bbd89e1eb4bae6349281900390910190a15050565b6001600160a01b03818116600090815260086020526040902054163314612095576040805162461bcd60e51b815260206004820152601f60248201527f6f6e6c792070726f706f736564207061796565732063616e2061636365707400604482015290519081900360640190fd5b6001600160a01b0381811660008181526007602090815260408083208054336001600160a01b031980831682179093556008909452828520805490921690915590519416939092849290917f78af32efdcad432315431e9b03d27e6cd98fb79c405fdc5af7c1714d9c0f75b39190a45050565b602b80546001600160a01b0319166001600160a01b0392909216919091179055565b600063ffffffff82111561214057506000610c27565b5063ffffffff166000908152602d6020526040902054601790810b900b90565b600063ffffffff82111561217657506000610c27565b5063ffffffff166000908152602d6020526040902054600160c01b90046001600160401b031690565b6004546000546001600160a01b039182169116331480612260575060408051630d629b5f60e31b815233600482018181526024830193845236604484018190526001600160a01b03861694636b14daf8946000939190606401848480828437600083820152604051601f909101601f1916909201965060209550909350505081840390508186803b15801561223357600080fd5b505afa158015612247573d6000803e3d6000fd5b505050506040513d602081101561225d57600080fd5b50515b6122b1576040805162461bcd60e51b815260206004820181905260248201527f4f6e6c79206f776e65722662696c6c696e6741646d696e2063616e2063616c6c604482015290519081900360640190fd5b6122b961389f565b6122c68686868686613f12565b505050505050565b6000546001600160a01b031633148061238f57506004805460408051630d629b5f60e31b8152339381018481526024820192835236604483018190526001600160a01b0390941694636b14daf8949093600093919291606401848480828437600083820152604051601f909101601f1916909201965060209550909350505081840390508186803b15801561236257600080fd5b505afa158015612376573d6000803e3d6000fd5b505050506040513d602081101561238c57600080fd5b50515b6123e0576040805162461bcd60e51b815260206004820181905260248201527f4f6e6c79206f776e65722662696c6c696e6741646d696e2063616e2063616c6c604482015290519081900360640190fd5b60006123ea613ffb565b600354604080516370a0823160e01b815230600482015290519293506000926001600160a01b03909216916370a0823191602480820192602092909190829003018186803b15801561243b57600080fd5b505afa15801561244f573d6000803e3d6000fd5b505050506040513d602081101561246557600080fd5b50519050818110156124b5576040805162461bcd60e51b8152602060048201526014602482015273696e73756666696369656e742062616c616e636560601b604482015290519081900360640190fd5b6003546001600160a01b031663a9059cbb856124d3858503876141af565b6040518363ffffffff1660e01b815260040180836001600160a01b0316815260200182815260200192505050602060405180830381600087803b15801561251957600080fd5b505af115801561252d573d6000803e3d6000fd5b505050506040513d602081101561254357600080fd5b505161258b576040805162461bcd60e51b8152602060048201526012602482015271696e73756666696369656e742066756e647360701b604482015290519081900360640190fd5b50505050565b60005a90506125a48888888888886141c9565b36146125f7576040805162461bcd60e51b815260206004820152601960248201527f7472616e736d6974206d65737361676520746f6f206c6f6e6700000000000000604482015290519081900360640190fd5b6125ff6146b5565b6040805160808082018352602c549081901b6001600160801b0319168252600160801b810464ffffffffff166020830152600160a81b810460ff1692820192909252600160b01b90910463ffffffff166060808301919091529082526000908a908a9081101561266e57600080fd5b813591602081013591810190606081016040820135600160201b81111561269457600080fd5b8201836020820111156126a657600080fd5b803590602001918460208302840111600160201b831117156126c757600080fd5b91908080602002602001604051908101604052809392919081815260200183836020028082843760009201919091525050505060408801525050506080840182905283515190925060589190911b906001600160801b031980831691161461276e576040805162461bcd60e51b81526020600482015260156024820152740c6dedcccd2ce88d2cecae6e840dad2e6dac2e8c6d605b1b604482015290519081900360640190fd5b608083015183516020015164ffffffffff8083169116106127c5576040805162461bcd60e51b815260206004820152600c60248201526b1cdd185b19481c995c1bdc9d60a21b604482015290519081900360640190fd5b83516040015160ff168911612819576040805162461bcd60e51b81526020600482015260156024820152746e6f7420656e6f756768207369676e61747572657360581b604482015290519081900360640190fd5b601f891115612865576040805162461bcd60e51b8152602060048201526013602482015272746f6f206d616e79207369676e61747572657360681b604482015290519081900360640190fd5b8689146128b9576040805162461bcd60e51b815260206004820152601e60248201527f7369676e617475726573206f7574206f6620726567697374726174696f6e0000604482015290519081900360640190fd5b601f8460400151511115612914576040805162461bcd60e51b815260206004820152601e60248201527f6e756d206f62736572766174696f6e73206f7574206f6620626f756e64730000604482015290519081900360640190fd5b83600001516040015160020260ff168460400151511161297b576040805162461bcd60e51b815260206004820152601e60248201527f746f6f206665772076616c75657320746f207472757374206d656469616e0000604482015290519081900360640190fd5b886001600160401b038111801561299157600080fd5b506040519080825280601f01601f1916602001820160405280156129bc576020820181803683370190505b50606085015260005b60ff81168a1115612a1557868160ff16602081106129df57fe5b1a60f81b85606001518260ff16815181106129f657fe5b60200101906001600160f81b031916908160001a9053506001016129c5565b508360400151516001600160401b0381118015612a3157600080fd5b506040519080825280601f01601f191660200182016040528015612a5c576020820181803683370190505b506020850152612a6a6146e9565b60005b8560400151518160ff161015612b58576000858260ff1660208110612a8e57fe5b1a90508281601f8110612a9d57fe5b602002015115612af4576040805162461bcd60e51b815260206004820152601760248201527f6f6273657276657220696e646578207265706561746564000000000000000000604482015290519081900360640190fd5b6001838260ff16601f8110612b0557fe5b91151560209283029190910152869060ff8416908110612b2157fe5b1a60f81b87602001518360ff1681518110612b3857fe5b60200101906001600160f81b031916908160001a90535050600101612a6d565b503360009081526028602090815260408083208151808301909252805460ff80821684529293919291840191610100909104166002811115612b9657fe5b6002811115612ba157fe5b9052509050600281602001516002811115612bb857fe5b148015612bec5750602a816000015160ff1681548110612bd457fe5b6000918252602090912001546001600160a01b031633145b612c3d576040805162461bcd60e51b815260206004820152601860248201527f756e617574686f72697a6564207472616e736d69747465720000000000000000604482015290519081900360640190fd5b5050835164ffffffffff90911660209091015250506040516000908a908a908083838082843760405192018290039091209450612c7e93506146e992505050565b612c86614708565b60005b89811015612e7657600060018587606001518481518110612ca657fe5b60209101015160f81c601b018e8e86818110612cbe57fe5b905060200201358d8d87818110612cd157fe5b9050602002013560405160008152602001604052604051808581526020018460ff1681526020018381526020018281526020019450505050506020604051602081039080840390855afa158015612d2c573d6000803e3d6000fd5b505060408051601f198101516001600160a01b03811660009081526028602090815290849020838501909452835460ff80821685529296509294508401916101009004166002811115612d7b57fe5b6002811115612d8657fe5b9052509250600183602001516002811115612d9d57fe5b14612def576040805162461bcd60e51b815260206004820152601e60248201527f61646472657373206e6f7420617574686f72697a656420746f207369676e0000604482015290519081900360640190fd5b8251849060ff16601f8110612e0057fe5b602002015115612e4e576040805162461bcd60e51b81526020600482015260146024820152736e6f6e2d756e69717565207369676e617475726560601b604482015290519081900360640190fd5b600184846000015160ff16601f8110612e6357fe5b9115156020909202015250600101612c89565b5050505060005b600182604001515103811015612f2757600082604001518260010181518110612ea257fe5b602002602001015160170b83604001518381518110612ebd57fe5b602002602001015160170b1315905080612f1e576040805162461bcd60e51b815260206004820152601760248201527f6f62736572766174696f6e73206e6f7420736f72746564000000000000000000604482015290519081900360640190fd5b50600101612e7d565b50604081015180516000919060028104908110612f4057fe5b602002602001015190508060170b7f000000000000000000000000000000000000000000000000000000000000000060170b13158015612fa657507f000000000000000000000000000000000000000000000000000000000000000060170b8160170b13155b612ff7576040805162461bcd60e51b815260206004820152601e60248201527f6d656469616e206973206f7574206f66206d696e2d6d61782072616e67650000604482015290519081900360640190fd5b81516060908101805163ffffffff60019091018116909152604080518082018252601785810b8083526001600160401b0342811660208086019182528a5189015188166000908152602d8252878120965187549351909416600160c01b029390950b6001600160c01b039081166001600160c01b03199093169290921790911691909117909355875186015184890151848a01516080808c015188519586523386890181905291860181905260a0988601898152845199870199909952835194909916997ff6a97944f31ea060dfde0566e4167c1a1082551e64b60ecb14d599a9d023d451998c999298949793969095909492939185019260c086019289820192909102908190849084905b8381101561311b578181015183820152602001613103565b50505050905001838103825285818151815260200191508051906020019080838360005b8381101561315757818101518382015260200161313f565b50505050905090810190601f1680156131845780820380516001836020036101000a031916815260200191505b5097505050505050505060405180910390a281516060015160408051428152905160009263ffffffff16917f0109fc6f55cf40689f02fbaad7af7fe7bbac8a3d2186600afc7d3e10cac60271919081900360200190a381600001516060015163ffffffff168160170b7f0559884fd3a460db3073b7fc896cc77986f16e378210ded43186175bf646fc5f426040518082815260200191505060405180910390a36132398260000151606001518260170b6141e1565b5080518051602c8054602084015160408501516060909501516001600160801b031990921660809490941c9390931764ffffffffff60801b1916600160801b64ffffffffff909416939093029290921760ff60a81b1916600160a81b60ff909416939093029290921763ffffffff60b01b1916600160b01b63ffffffff928316021790915582106132c657fe5b6132d48282602001516142d9565b505050505050505050565b600354604080516370a0823160e01b8152306004820152905160009283926001600160a01b03909116916370a0823191602480820192602092909190829003018186803b15801561332f57600080fd5b505afa158015613343573d6000803e3d6000fd5b505050506040513d602081101561335957600080fd5b505190506000613367613ffb565b90910391505090565b6001600160a01b03811660009081526028602090815260408083208151808301909252805460ff8082168452859484019161010090041660028111156133b257fe5b60028111156133bd57fe5b90525090506000816020015160028111156133d457fe5b14156133e4576000915050610c27565b60016005826000015160ff16601f81106133fa57fe5b601091828204019190066002029054906101000a900461ffff1603915050919050565b60008080808033321461346e576040805162461bcd60e51b81526020600482015260146024820152734f6e6c792063616c6c61626c6520627920454f4160601b604482015290519081900360640190fd5b5050602c5463ffffffff600160b01b820481166000908152602d6020526040902054608083901b96600160801b909304600881901c909216955064ffffffffff9091169350601781900b9250600160c01b90046001600160401b031690565b6003546001600160a01b031690565b6000546001600160a01b03163314613529576040805162461bcd60e51b81526020600482015260166024820152600080516020614844833981519152604482015290519081900360640190fd5b60408051808201909152602f546001600160a01b03808216808452600160a01b90920463ffffffff166020840152841614158061357657508163ffffffff16816020015163ffffffff1614155b15613608576040805180820182526001600160a01b0385811680835263ffffffff8681166020948501819052602f80546001600160a01b031916841763ffffffff60a01b1916600160a01b8302179055865187860151875193168352948201528451919493909216927fb04e3a37abe9c0fcdfebdeae019a8e2b12ddf53f5d55ffb0caccc1bedaca1541928290030190a35b505050565b6001600160a01b0382811660009081526007602052604090205416331461367b576040805162461bcd60e51b815260206004820152601d60248201527f6f6e6c792063757272656e742070617965652063616e20757064617465000000604482015290519081900360640190fd5b336001600160a01b03821614156136d9576040805162461bcd60e51b815260206004820152601760248201527f63616e6e6f74207472616e7366657220746f2073656c66000000000000000000604482015290519081900360640190fd5b6001600160a01b03808316600090815260086020526040902080548383166001600160a01b031982168117909255909116908114613608576040516001600160a01b038084169133918616907f84f7c7c80bb8ed2279b4aab5f61cd05e6374073d38f46d7f32de8c30e9e3836790600090a4505050565b6000546001600160a01b0316331461379d576040805162461bcd60e51b81526020600482015260166024820152600080516020614844833981519152604482015290519081900360640190fd5b600180546001600160a01b0319166001600160a01b0383811691821790925560008054604051929316917fed8889f560326eb138920d842192f0eb3dd22b4f139c87a2c57538e05bae12789190a350565b6000546001600160a01b0316331461383b576040805162461bcd60e51b81526020600482015260166024820152600080516020614844833981519152604482015290519081900360640190fd5b611a1581614501565b602c54600160b01b900463ffffffff166000818152602d6020908152604091829020825180840190935254601781810b810b810b808552600160c01b9092046001600160401b031693909201839052929392900b9181908490565b6040805160a08101825260025463ffffffff8082168352600160201b820481166020840152600160401b8204811683850152600160601b820481166060840152600160801b90910416608082015260035482516103e081019384905291926001600160a01b0390911691600091600590601f908285855b82829054906101000a900461ffff1661ffff1681526020019060020190602082600101049283019260010382029150808411613916575050604080516103e0810191829052959650600095945060099350601f9250905082845b81548152602001906001019080831161397057505050505090506000602a8054806020026020016040519081016040528092919081815260200182805480156139e257602002820191906000526020600020905b81546001600160a01b031681526001909101906020018083116139c4575b5050505050905060005b8151811015613c0c57600060018483601f8110613a0557fe5b6020020151039050600060018684601f8110613a1d57fe5b60200201510361ffff169050600082896060015163ffffffff168302633b9aca00020190506000811115613c0157600060076000878781518110613a5d57fe5b60200260200101516001600160a01b03166001600160a01b0316815260200190815260200160002060009054906101000a90046001600160a01b03169050886001600160a01b031663a9059cbb82846040518363ffffffff1660e01b815260040180836001600160a01b0316815260200182815260200192505050602060405180830381600087803b158015613af257600080fd5b505af1158015613b06573d6000803e3d6000fd5b505050506040513d6020811015613b1c57600080fd5b5051613b64576040805162461bcd60e51b8152602060048201526012602482015271696e73756666696369656e742066756e647360701b604482015290519081900360640190fd5b60018886601f8110613b7257fe5b61ffff909216602092909202015260018786601f8110613b8e57fe5b602002018181525050886001600160a01b0316816001600160a01b0316878781518110613bb757fe5b60200260200101516001600160a01b03167fd0b1dac935d85bd54cf0a33b0d41d39f8cf53a968465fc7ea2377526b8ac712c856040518082815260200191505060405180910390a4505b5050506001016139ec565b50613c1a600584601f61471f565b506122c6600983601f6147b5565b6001600160a01b03811660009081526028602090815260408083208151808301909252805460ff80821684529293919291840191610100909104166002811115613c6e57fe5b6002811115613c7957fe5b90525090506000613c8983610afd565b90508015613608576001600160a01b03808416600090815260076020908152604080832054600354825163a9059cbb60e01b8152918616600483018190526024830188905292519295169363a9059cbb9360448084019491939192918390030190829087803b158015613cfb57600080fd5b505af1158015613d0f573d6000803e3d6000fd5b505050506040513d6020811015613d2557600080fd5b5051613d6d576040805162461bcd60e51b8152602060048201526012602482015271696e73756666696369656e742066756e647360701b604482015290519081900360640190fd5b60016005846000015160ff16601f8110613d8357fe5b601091828204019190066002026101000a81548161ffff021916908361ffff16021790555060016009846000015160ff16601f8110613dbe57fe5b01556003546040805184815290516001600160a01b039283169284811692908816917fd0b1dac935d85bd54cf0a33b0d41d39f8cf53a968465fc7ea2377526b8ac712c9181900360200190a450505050565b60008a8a8a8a8a8a8a8a8a8a604051602001808b6001600160a01b031681526020018a6001600160401b0316815260200180602001806020018760ff168152602001866001600160401b031681526020018060200184810384528c8c82818152602001925060200280828437600083820152601f01601f191690910185810384528a8152602090810191508b908b0280828437600083820152601f01601f191690910185810383528681526020019050868680828437600081840152601f19601f8201169050808301925050509d50505050505050505050505050506040516020818303038152906040528051906020012090509a9950505050505050505050565b6040805160a0808201835263ffffffff88811680845288821660208086018290528984168688018190528985166060808901829052958a1660809889018190526002805463ffffffff1916871767ffffffff000000001916600160201b8702176bffffffff00000000000000001916600160401b85021763ffffffff60601b1916600160601b84021763ffffffff60801b1916600160801b830217905589519586529285019390935283880152928201529283015291517fd0d9486a2c673e2a4b57fc82e4c8a556b3e2b82dd5db07e2c04a920ca0f469b6929181900390910190a15050505050565b604080516103e0810191829052600091829190600590601f908285855b82829054906101000a900461ffff1661ffff16815260200190600201906020826001010492830192600103820291508084116140185790505050505050905060005b601f8110156140885760018282601f811061407157fe5b60200201510361ffff16929092019160010161405a565b506040805160a08101825260025463ffffffff8082168352600160201b82048116602080850191909152600160401b8304821684860152600160601b8304821660608501819052600160801b9093049091166080840152602a805485518184028101840190965280865296909202633b9aca000295929360009390929183018282801561413e57602002820191906000526020600020905b81546001600160a01b03168152600190910190602001808311614120575b5050604080516103e0810191829052949550600094935060099250601f915082845b815481526020019060010190808311614160575050505050905060005b82518110156141a75760018282601f811061419457fe5b602002015103959095019460010161417d565b505050505090565b6000818310156141c05750816141c3565b50805b92915050565b602083810286019082020160e4019695505050505050565b60408051808201909152602f546001600160a01b038116808352600160a01b90910463ffffffff1660208301526142185750610f90565b600019830163ffffffff8181166000818152602d6020908152604080832054875188840151835163beed9b5160e01b81526004810197909752601792830b90920b602487018190528b88166044880152606487018b9052925192966001600160a01b039091169563beed9b51959290911693608480830194919391928390030190829088803b1580156142aa57600080fd5b5087f1935050505080156142d057506040513d60208110156142cb57600080fd5b505160015b6122c657611f5c565b3360009081526028602090815260408083208151808301909252805460ff8082168452929391929184019161010090910416600281111561431657fe5b600281111561432157fe5b9052506040805160a08101825260025463ffffffff8082168352600160201b820481166020840152600160401b8204811683850152600160601b820481166060840152600160801b90910416608082015281516103e0810192839052929350916143d591859190600590601f90826000855b82829054906101000a900461ffff1661ffff16815260200190600201906020826001010492830192600103820291508084116143935790505050505050614578565b6143e390600590601f61471f565b506002826020015160028111156143f657fe5b14614448576040805162461bcd60e51b815260206004820181905260248201527f73656e7420627920756e64657369676e61746564207472616e736d6974746572604482015290519081900360640190fd5b600061446f633b9aca003a04836020015163ffffffff16846000015163ffffffff166145ed565b90506010360260005a9050600061448e8863ffffffff16858585614613565b6001600160801b031690506000620f4240866040015163ffffffff168302816144b357fe5b049050856080015163ffffffff16633b9aca0002816009896000015160ff16601f81106144dc57fe5b015401016009886000015160ff16601f81106144f457fe5b0155505050505050505050565b6004546001600160a01b039081169082168114610f9057600480546001600160a01b0319166001600160a01b03848116918217909255604080519284168352602083019190915280517f793cb73064f3c8cde7e187ae515511e6e56d1ee89bf08b82fa60fb70f8d489129281900390910190a15050565b6145806146e9565b60005b83518110156145e557600084828151811061459a57fe5b016020015160f81c90506145bf8482601f81106145b357fe5b60200201516001614696565b848260ff16601f81106145ce57fe5b61ffff909216602092909202015250600101614583565b509092915050565b6000838381101561460057600285850304015b61460a81846141af565b95945050505050565b60008185101561466a576040805162461bcd60e51b815260206004820181905260248201527f6761734c6566742063616e6e6f742065786365656420696e697469616c476173604482015290519081900360640190fd5b818503830161179301633b9aca00858202026001600160801b03811061468c57fe5b9695505050505050565b60006146ae8261ffff168461ffff160161ffff6141af565b9392505050565b6040518060a001604052806146c86147e3565b81526060602082018190526040820181905280820152600060809091015290565b604051806103e00160405280601f906020820280368337509192915050565b604080518082019091526000808252602082015290565b6002830191839082156147a55791602002820160005b8382111561477557835183826101000a81548161ffff021916908361ffff1602179055509260200192600201602081600101049283019260010302614735565b80156147a35782816101000a81549061ffff0219169055600201602081600101049283019260010302614775565b505b506147b192915061480a565b5090565b82601f81019282156147a5579160200282015b828111156147a55782518255916020019190600101906147c8565b60408051608081018252600080825260208201819052918101829052606081019190915290565b5b808211156147b1576000815560010161480b56fe6f7261636c6520616464726573736573206f7574206f6620726567697374726174696f6e4f6e6c792063616c6c61626c65206279206f776e657200000000000000000000a2646970667358221220143dc0bb4d438d072c8c7830cc9b18b29538ec4f7089da57e2fc0b1e2c285d8664736f6c63430007060033",
			"opcodes": "PUSH1 0xE0 PUSH1 0x40 MSTORE CALLVALUE DUP1 ISZERO PUSH3 0x11 JUMPI PUSH1 0x0 DUP1 REVERT JUMPDEST POP PUSH1 0x40 MLOAD PUSH3 0x50B2 CODESIZE SUB DUP1 PUSH3 0x50B2 DUP4 CODECOPY DUP2 DUP2 ADD PUSH1 0x40 MSTORE PUSH2 0x180 DUP2 LT ISZERO PUSH3 0x38 JUMPI PUSH1 0x0 DUP1 REVERT JUMPDEST DUP2 MLOAD PUSH1 0x20 DUP4 ADD MLOAD PUSH1 0x40 DUP1 DUP6 ADD MLOAD PUSH1 0x60 DUP7 ADD MLOAD PUSH1 0x80 DUP8 ADD MLOAD PUSH1 0xA0 DUP9 ADD MLOAD PUSH1 0xC0 DUP10 ADD MLOAD PUSH1 0xE0 DUP11 ADD MLOAD PUSH2 0x100 DUP12 ADD MLOAD PUSH2 0x120 DUP13 ADD MLOAD PUSH2 0x140 DUP14 ADD MLOAD PUSH2 0x160 DUP15 ADD DUP1 MLOAD SWAP11 MLOAD SWAP13 SWAP15 SWAP12 SWAP14 SWAP10 SWAP13 SWAP9 SWAP12 SWAP8 SWAP11 SWAP7 SWAP10 SWAP6 SWAP9 SWAP5 SWAP8 SWAP4 SWAP7 SWAP3 SWAP6 SWAP2 SWAP5 SWAP4 SWAP2 DUP3 ADD SWAP3 DUP5 PUSH5 0x100000000 DUP3 GT ISZERO PUSH3 0xA8 JUMPI PUSH1 0x0 DUP1 REVERT JUMPDEST SWAP1 DUP4 ADD SWAP1 PUSH1 0x20 DUP3 ADD DUP6 DUP2 GT ISZERO PUSH3 0xBE JUMPI PUSH1 0x0 DUP1 REVERT JUMPDEST DUP3 MLOAD PUSH5 0x100000000 DUP2 GT DUP3 DUP3 ADD DUP9 LT OR ISZERO PUSH3 0xD9 JUMPI PUSH1 0x0 DUP1 REVERT JUMPDEST DUP3 MSTORE POP DUP2 MLOAD PUSH1 0x20 SWAP2 DUP3 ADD SWAP3 SWAP1 SWAP2 ADD SWAP1 DUP1 DUP4 DUP4 PUSH1 0x0 JUMPDEST DUP4 DUP2 LT ISZERO PUSH3 0x108 JUMPI DUP2 DUP2 ADD MLOAD DUP4 DUP3 ADD MSTORE PUSH1 0x20 ADD PUSH3 0xEE JUMP JUMPDEST POP POP POP POP SWAP1 POP SWAP1 DUP2 ADD SWAP1 PUSH1 0x1F AND DUP1 ISZERO PUSH3 0x136 JUMPI DUP1 DUP3 SUB DUP1 MLOAD PUSH1 0x1 DUP4 PUSH1 0x20 SUB PUSH2 0x100 EXP SUB NOT AND DUP2 MSTORE PUSH1 0x20 ADD SWAP2 POP JUMPDEST POP PUSH1 0x40 MSTORE POP POP PUSH1 0x0 DUP1 SLOAD PUSH1 0x1 PUSH1 0x1 PUSH1 0xA0 SHL SUB NOT AND CALLER OR SWAP1 SSTORE POP DUP12 DUP12 DUP12 DUP12 DUP12 DUP12 DUP10 PUSH3 0x165 DUP8 DUP8 DUP8 DUP8 DUP8 PUSH3 0x2CA JUMP JUMPDEST PUSH1 0x3 DUP1 SLOAD PUSH1 0x1 PUSH1 0x1 PUSH1 0xA0 SHL SUB NOT AND PUSH1 0x1 PUSH1 0x1 PUSH1 0xA0 SHL SUB DUP5 AND SWAP1 DUP2 OR SWAP1 SWAP2 SSTORE PUSH1 0x40 MLOAD PUSH1 0x0 SWAP1 PUSH32 0x4966A50C93F855342CCF6C5C0D358B85B91335B2ACEDC7DA0932F691F351711A SWAP1 DUP3 SWAP1 LOG3 PUSH3 0x1B9 DUP2 PUSH3 0x3BC JUMP JUMPDEST PUSH3 0x1C3 PUSH3 0x653 JUMP JUMPDEST PUSH3 0x1CD PUSH3 0x653 JUMP JUMPDEST PUSH1 0x0 JUMPDEST PUSH1 0x1F DUP2 PUSH1 0xFF AND LT ISZERO PUSH3 0x21D JUMPI PUSH1 0x1 DUP4 DUP3 PUSH1 0xFF AND PUSH1 0x1F DUP2 LT PUSH3 0x1EF JUMPI INVALID JUMPDEST PUSH2 0xFFFF SWAP1 SWAP3 AND PUSH1 0x20 SWAP3 SWAP1 SWAP3 MUL ADD MSTORE PUSH1 0x1 DUP3 PUSH1 0xFF DUP4 AND PUSH1 0x1F DUP2 LT PUSH3 0x20F JUMPI INVALID JUMPDEST PUSH1 0x20 MUL ADD MSTORE PUSH1 0x1 ADD PUSH3 0x1D0 JUMP JUMPDEST POP PUSH3 0x22D PUSH1 0x5 DUP4 PUSH1 0x1F PUSH3 0x672 JUMP JUMPDEST POP PUSH3 0x23D PUSH1 0x9 DUP3 PUSH1 0x1F PUSH3 0x70F JUMP JUMPDEST POP POP POP POP POP PUSH1 0xF8 DUP8 SWAP1 SHL PUSH32 0xFF00000000000000000000000000000000000000000000000000000000000000 AND PUSH1 0xC0 MSTORE POP POP DUP4 MLOAD PUSH3 0x286 SWAP4 POP PUSH1 0x31 SWAP3 POP PUSH1 0x20 DUP6 ADD SWAP2 POP PUSH3 0x740 JUMP JUMPDEST POP PUSH3 0x292 DUP4 PUSH3 0x435 JUMP JUMPDEST PUSH3 0x29F PUSH1 0x0 DUP1 PUSH3 0x50D JUMP JUMPDEST POP POP POP POP PUSH1 0x17 SWAP2 DUP3 SIGNEXTEND DUP3 SIGNEXTEND PUSH1 0x40 SWAP1 DUP2 SHL PUSH1 0x80 MSTORE SWAP1 DUP3 SIGNEXTEND SWAP1 SWAP2 SIGNEXTEND SWAP1 SHL PUSH1 0xA0 MSTORE POP PUSH3 0x7D9 SWAP5 POP POP POP POP POP JUMP JUMPDEST PUSH1 0x40 DUP1 MLOAD PUSH1 0xA0 DUP1 DUP3 ADD DUP4 MSTORE PUSH4 0xFFFFFFFF DUP9 DUP2 AND DUP1 DUP5 MSTORE DUP9 DUP3 AND PUSH1 0x20 DUP1 DUP7 ADD DUP3 SWAP1 MSTORE DUP10 DUP5 AND DUP7 DUP9 ADD DUP2 SWAP1 MSTORE DUP10 DUP6 AND PUSH1 0x60 DUP1 DUP10 ADD DUP3 SWAP1 MSTORE SWAP6 DUP11 AND PUSH1 0x80 SWAP9 DUP10 ADD DUP2 SWAP1 MSTORE PUSH1 0x2 DUP1 SLOAD PUSH4 0xFFFFFFFF NOT AND DUP8 OR PUSH4 0xFFFFFFFF PUSH1 0x20 SHL NOT AND PUSH5 0x100000000 DUP8 MUL OR PUSH4 0xFFFFFFFF PUSH1 0x40 SHL NOT AND PUSH9 0x10000000000000000 DUP6 MUL OR PUSH4 0xFFFFFFFF PUSH1 0x60 SHL NOT AND PUSH13 0x1000000000000000000000000 DUP5 MUL OR PUSH4 0xFFFFFFFF PUSH1 0x80 SHL NOT AND PUSH1 0x1 PUSH1 0x80 SHL DUP4 MUL OR SWAP1 SSTORE DUP10 MLOAD SWAP6 DUP7 MSTORE SWAP3 DUP6 ADD SWAP4 SWAP1 SWAP4 MSTORE DUP4 DUP9 ADD MSTORE SWAP3 DUP3 ADD MSTORE SWAP3 DUP4 ADD MSTORE SWAP2 MLOAD PUSH32 0xD0D9486A2C673E2A4B57FC82E4C8A556B3E2B82DD5DB07E2C04A920CA0F469B6 SWAP3 SWAP2 DUP2 SWAP1 SUB SWAP1 SWAP2 ADD SWAP1 LOG1 POP POP POP POP POP JUMP JUMPDEST PUSH1 0x4 SLOAD PUSH1 0x1 PUSH1 0x1 PUSH1 0xA0 SHL SUB SWAP1 DUP2 AND SWAP1 DUP3 AND DUP2 EQ PUSH3 0x431 JUMPI PUSH1 0x4 DUP1 SLOAD PUSH1 0x1 PUSH1 0x1 PUSH1 0xA0 SHL SUB NOT AND PUSH1 0x1 PUSH1 0x1 PUSH1 0xA0 SHL SUB DUP5 DUP2 AND SWAP2 DUP3 OR SWAP1 SWAP3 SSTORE PUSH1 0x40 DUP1 MLOAD SWAP3 DUP5 AND DUP4 MSTORE PUSH1 0x20 DUP4 ADD SWAP2 SWAP1 SWAP2 MSTORE DUP1 MLOAD PUSH32 0x793CB73064F3C8CDE7E187AE515511E6E56D1EE89BF08B82FA60FB70F8D48912 SWAP3 DUP2 SWAP1 SUB SWAP1 SWAP2 ADD SWAP1 LOG1 JUMPDEST POP POP JUMP JUMPDEST PUSH1 0x0 SLOAD PUSH1 0x1 PUSH1 0x1 PUSH1 0xA0 SHL SUB AND CALLER EQ PUSH3 0x495 JUMPI PUSH1 0x40 DUP1 MLOAD PUSH3 0x461BCD PUSH1 0xE5 SHL DUP2 MSTORE PUSH1 0x20 PUSH1 0x4 DUP3 ADD MSTORE PUSH1 0x16 PUSH1 0x24 DUP3 ADD MSTORE PUSH32 0x4F6E6C792063616C6C61626C65206279206F776E657200000000000000000000 PUSH1 0x44 DUP3 ADD MSTORE SWAP1 MLOAD SWAP1 DUP2 SWAP1 SUB PUSH1 0x64 ADD SWAP1 REVERT JUMPDEST PUSH1 0x30 SLOAD PUSH1 0x1 PUSH1 0x1 PUSH1 0xA0 SHL SUB SWAP1 DUP2 AND SWAP1 DUP3 AND DUP2 EQ PUSH3 0x431 JUMPI PUSH1 0x30 DUP1 SLOAD PUSH1 0x1 PUSH1 0x1 PUSH1 0xA0 SHL SUB NOT AND PUSH1 0x1 PUSH1 0x1 PUSH1 0xA0 SHL SUB DUP5 DUP2 AND SWAP2 DUP3 OR SWAP1 SWAP3 SSTORE PUSH1 0x40 DUP1 MLOAD SWAP3 DUP5 AND DUP4 MSTORE PUSH1 0x20 DUP4 ADD SWAP2 SWAP1 SWAP2 MSTORE DUP1 MLOAD PUSH32 0x27B89AEDE8B560578BAAA25EE5CE3852C5EECAD1E114B941BBD89E1EB4BAE634 SWAP3 DUP2 SWAP1 SUB SWAP1 SWAP2 ADD SWAP1 LOG1 POP POP JUMP JUMPDEST PUSH1 0x0 SLOAD PUSH1 0x1 PUSH1 0x1 PUSH1 0xA0 SHL SUB AND CALLER EQ PUSH3 0x56D JUMPI PUSH1 0x40 DUP1 MLOAD PUSH3 0x461BCD PUSH1 0xE5 SHL DUP2 MSTORE PUSH1 0x20 PUSH1 0x4 DUP3 ADD MSTORE PUSH1 0x16 PUSH1 0x24 DUP3 ADD MSTORE PUSH32 0x4F6E6C792063616C6C61626C65206279206F776E657200000000000000000000 PUSH1 0x44 DUP3 ADD MSTORE SWAP1 MLOAD SWAP1 DUP2 SWAP1 SUB PUSH1 0x64 ADD SWAP1 REVERT JUMPDEST PUSH1 0x40 DUP1 MLOAD DUP1 DUP3 ADD SWAP1 SWAP2 MSTORE PUSH1 0x2F SLOAD PUSH1 0x1 PUSH1 0x1 PUSH1 0xA0 SHL SUB DUP1 DUP3 AND DUP1 DUP5 MSTORE PUSH1 0x1 PUSH1 0xA0 SHL SWAP1 SWAP3 DIV PUSH4 0xFFFFFFFF AND PUSH1 0x20 DUP5 ADD MSTORE DUP5 AND EQ ISZERO DUP1 PUSH3 0x5BB JUMPI POP DUP2 PUSH4 0xFFFFFFFF AND DUP2 PUSH1 0x20 ADD MLOAD PUSH4 0xFFFFFFFF AND EQ ISZERO JUMPDEST ISZERO PUSH3 0x64E JUMPI PUSH1 0x40 DUP1 MLOAD DUP1 DUP3 ADD DUP3 MSTORE PUSH1 0x1 PUSH1 0x1 PUSH1 0xA0 SHL SUB DUP6 DUP2 AND DUP1 DUP4 MSTORE PUSH4 0xFFFFFFFF DUP7 DUP2 AND PUSH1 0x20 SWAP5 DUP6 ADD DUP2 SWAP1 MSTORE PUSH1 0x2F DUP1 SLOAD PUSH1 0x1 PUSH1 0x1 PUSH1 0xA0 SHL SUB NOT AND DUP5 OR PUSH4 0xFFFFFFFF PUSH1 0xA0 SHL NOT AND PUSH1 0x1 PUSH1 0xA0 SHL DUP4 MUL OR SWAP1 SSTORE DUP7 MLOAD DUP8 DUP7 ADD MLOAD DUP8 MLOAD SWAP4 AND DUP4 MSTORE SWAP5 DUP3 ADD MSTORE DUP5 MLOAD SWAP2 SWAP5 SWAP4 SWAP1 SWAP3 AND SWAP3 PUSH32 0xB04E3A37ABE9C0FCDFEBDEAE019A8E2B12DDF53F5D55FFB0CACCC1BEDACA1541 SWAP3 DUP3 SWAP1 SUB ADD SWAP1 LOG3 JUMPDEST POP POP POP JUMP JUMPDEST PUSH1 0x40 MLOAD DUP1 PUSH2 0x3E0 ADD PUSH1 0x40 MSTORE DUP1 PUSH1 0x1F SWAP1 PUSH1 0x20 DUP3 MUL DUP1 CALLDATASIZE DUP4 CALLDATACOPY POP SWAP2 SWAP3 SWAP2 POP POP JUMP JUMPDEST PUSH1 0x2 DUP4 ADD SWAP2 DUP4 SWAP1 DUP3 ISZERO PUSH3 0x6FD JUMPI SWAP2 PUSH1 0x20 MUL DUP3 ADD PUSH1 0x0 JUMPDEST DUP4 DUP3 GT ISZERO PUSH3 0x6CB JUMPI DUP4 MLOAD DUP4 DUP3 PUSH2 0x100 EXP DUP2 SLOAD DUP2 PUSH2 0xFFFF MUL NOT AND SWAP1 DUP4 PUSH2 0xFFFF AND MUL OR SWAP1 SSTORE POP SWAP3 PUSH1 0x20 ADD SWAP3 PUSH1 0x2 ADD PUSH1 0x20 DUP2 PUSH1 0x1 ADD DIV SWAP3 DUP4 ADD SWAP3 PUSH1 0x1 SUB MUL PUSH3 0x689 JUMP JUMPDEST DUP1 ISZERO PUSH3 0x6FB JUMPI DUP3 DUP2 PUSH2 0x100 EXP DUP2 SLOAD SWAP1 PUSH2 0xFFFF MUL NOT AND SWAP1 SSTORE PUSH1 0x2 ADD PUSH1 0x20 DUP2 PUSH1 0x1 ADD DIV SWAP3 DUP4 ADD SWAP3 PUSH1 0x1 SUB MUL PUSH3 0x6CB JUMP JUMPDEST POP JUMPDEST POP PUSH3 0x70B SWAP3 SWAP2 POP PUSH3 0x7C2 JUMP JUMPDEST POP SWAP1 JUMP JUMPDEST DUP3 PUSH1 0x1F DUP2 ADD SWAP3 DUP3 ISZERO PUSH3 0x6FD JUMPI SWAP2 PUSH1 0x20 MUL DUP3 ADD JUMPDEST DUP3 DUP2 GT ISZERO PUSH3 0x6FD JUMPI DUP3 MLOAD DUP3 SSTORE SWAP2 PUSH1 0x20 ADD SWAP2 SWAP1 PUSH1 0x1 ADD SWAP1 PUSH3 0x723 JUMP JUMPDEST DUP3 DUP1 SLOAD PUSH1 0x1 DUP2 PUSH1 0x1 AND ISZERO PUSH2 0x100 MUL SUB AND PUSH1 0x2 SWAP1 DIV SWAP1 PUSH1 0x0 MSTORE PUSH1 0x20 PUSH1 0x0 KECCAK256 SWAP1 PUSH1 0x1F ADD PUSH1 0x20 SWAP1 DIV DUP2 ADD SWAP3 DUP3 PUSH3 0x778 JUMPI PUSH1 0x0 DUP6 SSTORE PUSH3 0x6FD JUMP JUMPDEST DUP3 PUSH1 0x1F LT PUSH3 0x793 JUMPI DUP1 MLOAD PUSH1 0xFF NOT AND DUP4 DUP1 ADD OR DUP6 SSTORE PUSH3 0x6FD JUMP JUMPDEST DUP3 DUP1 ADD PUSH1 0x1 ADD DUP6 SSTORE DUP3 ISZERO PUSH3 0x6FD JUMPI SWAP2 DUP3 ADD DUP3 DUP2 GT ISZERO PUSH3 0x6FD JUMPI DUP3 MLOAD DUP3 SSTORE SWAP2 PUSH1 0x20 ADD SWAP2 SWAP1 PUSH1 0x1 ADD SWAP1 PUSH3 0x723 JUMP JUMPDEST JUMPDEST DUP1 DUP3 GT ISZERO PUSH3 0x70B JUMPI PUSH1 0x0 DUP2 SSTORE PUSH1 0x1 ADD PUSH3 0x7C3 JUMP JUMPDEST PUSH1 0x80 MLOAD PUSH1 0x40 SHR PUSH1 0xA0 MLOAD PUSH1 0x40 SHR PUSH1 0xC0 MLOAD PUSH1 0xF8 SHR PUSH2 0x4899 PUSH3 0x819 PUSH1 0x0 CODECOPY DUP1 PUSH2 0xCEA MSTORE POP DUP1 PUSH2 0x1775 MSTORE DUP1 PUSH2 0x2F7D MSTORE POP DUP1 PUSH2 0xC65 MSTORE DUP1 PUSH2 0x2F50 MSTORE POP PUSH2 0x4899 PUSH1 0x0 RETURN INVALID PUSH1 0x80 PUSH1 0x40 MSTORE CALLVALUE DUP1 ISZERO PUSH2 0x10 JUMPI PUSH1 0x0 DUP1 REVERT JUMPDEST POP PUSH1 0x4 CALLDATASIZE LT PUSH2 0x253 JUMPI PUSH1 0x0 CALLDATALOAD PUSH1 0xE0 SHR DUP1 PUSH4 0x98E5B12A GT PUSH2 0x146 JUMPI DUP1 PUSH4 0xC1075329 GT PUSH2 0xC3 JUMPI DUP1 PUSH4 0xE76D5168 GT PUSH2 0x87 JUMPI DUP1 PUSH4 0xE76D5168 EQ PUSH2 0xA41 JUMPI DUP1 PUSH4 0xEB457163 EQ PUSH2 0xA49 JUMPI DUP1 PUSH4 0xEB5DCD6C EQ PUSH2 0xA7B JUMPI DUP1 PUSH4 0xF2FDE38B EQ PUSH2 0xAA9 JUMPI DUP1 PUSH4 0xFBFFD2C1 EQ PUSH2 0xACF JUMPI DUP1 PUSH4 0xFEAF968C EQ PUSH2 0xAF5 JUMPI PUSH2 0x253 JUMP JUMPDEST DUP1 PUSH4 0xC1075329 EQ PUSH2 0x871 JUMPI DUP1 PUSH4 0xC9807539 EQ PUSH2 0x89D JUMPI DUP1 PUSH4 0xD09DC339 EQ PUSH2 0x9AB JUMPI DUP1 PUSH4 0xE4902F82 EQ PUSH2 0x9B3 JUMPI DUP1 PUSH4 0xE5FE4577 EQ PUSH2 0x9F0 JUMPI PUSH2 0x253 JUMP JUMPDEST DUP1 PUSH4 0xB121E147 GT PUSH2 0x10A JUMPI DUP1 PUSH4 0xB121E147 EQ PUSH2 0x7A6 JUMPI DUP1 PUSH4 0xB3D526FA EQ PUSH2 0x7CC JUMPI DUP1 PUSH4 0xB5AB58DC EQ PUSH2 0x7F2 JUMPI DUP1 PUSH4 0xB633620C EQ PUSH2 0x80F JUMPI DUP1 PUSH4 0xBD824706 EQ PUSH2 0x82C JUMPI PUSH2 0x253 JUMP JUMPDEST DUP1 PUSH4 0x98E5B12A EQ PUSH2 0x62C JUMPI DUP1 PUSH4 0x996E8298 EQ PUSH2 0x650 JUMPI DUP1 PUSH4 0x9A6FC8F5 EQ PUSH2 0x658 JUMPI DUP1 PUSH4 0x9C849B30 EQ PUSH2 0x6C2 JUMPI DUP1 PUSH4 0x9E3CEEAB EQ PUSH2 0x780 JUMPI PUSH2 0x253 JUMP JUMPDEST DUP1 PUSH4 0x70DA2F67 GT PUSH2 0x1D4 JUMPI DUP1 PUSH4 0x81FF7048 GT PUSH2 0x198 JUMPI DUP1 PUSH4 0x81FF7048 EQ PUSH2 0x58D JUMPI DUP1 PUSH4 0x8205BF6A EQ PUSH2 0x5C6 JUMPI DUP1 PUSH4 0x8AC28D5A EQ PUSH2 0x5CE JUMPI DUP1 PUSH4 0x8DA5CB5B EQ PUSH2 0x5F4 JUMPI DUP1 PUSH4 0x8E0566DE EQ PUSH2 0x5FC JUMPI PUSH2 0x253 JUMP JUMPDEST DUP1 PUSH4 0x70DA2F67 EQ PUSH2 0x4F9 JUMPI DUP1 PUSH4 0x70EFDF2D EQ PUSH2 0x501 JUMPI DUP1 PUSH4 0x7284E416 EQ PUSH2 0x525 JUMPI DUP1 PUSH4 0x79BA5097 EQ PUSH2 0x52D JUMPI DUP1 PUSH4 0x81411834 EQ PUSH2 0x535 JUMPI PUSH2 0x253 JUMP JUMPDEST DUP1 PUSH4 0x4FB17470 GT PUSH2 0x21B JUMPI DUP1 PUSH4 0x4FB17470 EQ PUSH2 0x38B JUMPI DUP1 PUSH4 0x50D25BCD EQ PUSH2 0x3BB JUMPI DUP1 PUSH4 0x54FD4D50 EQ PUSH2 0x3C3 JUMPI DUP1 PUSH4 0x585AA7DE EQ PUSH2 0x3CB JUMPI DUP1 PUSH4 0x668A0F02 EQ PUSH2 0x4F1 JUMPI PUSH2 0x253 JUMP JUMPDEST DUP1 PUSH4 0xEAFB25B EQ PUSH2 0x258 JUMPI DUP1 PUSH4 0x181F5A77 EQ PUSH2 0x290 JUMPI DUP1 PUSH4 0x22ADBC78 EQ PUSH2 0x30D JUMPI DUP1 PUSH4 0x29937268 EQ PUSH2 0x32C JUMPI DUP1 PUSH4 0x313CE567 EQ PUSH2 0x36D JUMPI JUMPDEST PUSH1 0x0 DUP1 REVERT JUMPDEST PUSH2 0x27E PUSH1 0x4 DUP1 CALLDATASIZE SUB PUSH1 0x20 DUP2 LT ISZERO PUSH2 0x26E JUMPI PUSH1 0x0 DUP1 REVERT JUMPDEST POP CALLDATALOAD PUSH1 0x1 PUSH1 0x1 PUSH1 0xA0 SHL SUB AND PUSH2 0xAFD JUMP JUMPDEST PUSH1 0x40 DUP1 MLOAD SWAP2 DUP3 MSTORE MLOAD SWAP1 DUP2 SWAP1 SUB PUSH1 0x20 ADD SWAP1 RETURN JUMPDEST PUSH2 0x298 PUSH2 0xC2C JUMP JUMPDEST PUSH1 0x40 DUP1 MLOAD PUSH1 0x20 DUP1 DUP3 MSTORE DUP4 MLOAD DUP2 DUP4 ADD MSTORE DUP4 MLOAD SWAP2 SWAP3 DUP4 SWAP3 SWAP1 DUP4 ADD SWAP2 DUP6 ADD SWAP1 DUP1 DUP4 DUP4 PUSH1 0x0 JUMPDEST DUP4 DUP2 LT ISZERO PUSH2 0x2D2 JUMPI DUP2 DUP2 ADD MLOAD DUP4 DUP3 ADD MSTORE PUSH1 0x20 ADD PUSH2 0x2BA JUMP JUMPDEST POP POP POP POP SWAP1 POP SWAP1 DUP2 ADD SWAP1 PUSH1 0x1F AND DUP1 ISZERO PUSH2 0x2FF JUMPI DUP1 DUP3 SUB DUP1 MLOAD PUSH1 0x1 DUP4 PUSH1 0x20 SUB PUSH2 0x100 EXP SUB NOT AND DUP2 MSTORE PUSH1 0x20 ADD SWAP2 POP JUMPDEST POP SWAP3 POP POP POP PUSH1 0x40 MLOAD DUP1 SWAP2 SUB SWAP1 RETURN JUMPDEST PUSH2 0x315 PUSH2 0xC63 JUMP JUMPDEST PUSH1 0x40 DUP1 MLOAD PUSH1 0x17 SWAP3 SWAP1 SWAP3 SIGNEXTEND DUP3 MSTORE MLOAD SWAP1 DUP2 SWAP1 SUB PUSH1 0x20 ADD SWAP1 RETURN JUMPDEST PUSH2 0x334 PUSH2 0xC87 JUMP JUMPDEST PUSH1 0x40 DUP1 MLOAD PUSH4 0xFFFFFFFF SWAP7 DUP8 AND DUP2 MSTORE SWAP5 DUP7 AND PUSH1 0x20 DUP7 ADD MSTORE SWAP3 DUP6 AND DUP5 DUP5 ADD MSTORE SWAP1 DUP5 AND PUSH1 0x60 DUP5 ADD MSTORE SWAP1 SWAP3 AND PUSH1 0x80 DUP3 ADD MSTORE SWAP1 MLOAD SWAP1 DUP2 SWAP1 SUB PUSH1 0xA0 ADD SWAP1 RETURN JUMPDEST PUSH2 0x375 PUSH2 0xCE8 JUMP JUMPDEST PUSH1 0x40 DUP1 MLOAD PUSH1 0xFF SWAP1 SWAP3 AND DUP3 MSTORE MLOAD SWAP1 DUP2 SWAP1 SUB PUSH1 0x20 ADD SWAP1 RETURN JUMPDEST PUSH2 0x3B9 PUSH1 0x4 DUP1 CALLDATASIZE SUB PUSH1 0x40 DUP2 LT ISZERO PUSH2 0x3A1 JUMPI PUSH1 0x0 DUP1 REVERT JUMPDEST POP PUSH1 0x1 PUSH1 0x1 PUSH1 0xA0 SHL SUB DUP2 CALLDATALOAD DUP2 AND SWAP2 PUSH1 0x20 ADD CALLDATALOAD AND PUSH2 0xD0C JUMP JUMPDEST STOP JUMPDEST PUSH2 0x27E PUSH2 0xF94 JUMP JUMPDEST PUSH2 0x27E PUSH2 0xFBD JUMP JUMPDEST PUSH2 0x3B9 PUSH1 0x4 DUP1 CALLDATASIZE SUB PUSH1 0xA0 DUP2 LT ISZERO PUSH2 0x3E1 JUMPI PUSH1 0x0 DUP1 REVERT JUMPDEST DUP2 ADD SWAP1 PUSH1 0x20 DUP2 ADD DUP2 CALLDATALOAD PUSH1 0x1 PUSH1 0x20 SHL DUP2 GT ISZERO PUSH2 0x3FB JUMPI PUSH1 0x0 DUP1 REVERT JUMPDEST DUP3 ADD DUP4 PUSH1 0x20 DUP3 ADD GT ISZERO PUSH2 0x40D JUMPI PUSH1 0x0 DUP1 REVERT JUMPDEST DUP1 CALLDATALOAD SWAP1 PUSH1 0x20 ADD SWAP2 DUP5 PUSH1 0x20 DUP4 MUL DUP5 ADD GT PUSH1 0x1 PUSH1 0x20 SHL DUP4 GT OR ISZERO PUSH2 0x42E JUMPI PUSH1 0x0 DUP1 REVERT JUMPDEST SWAP2 SWAP4 SWAP1 SWAP3 SWAP1 SWAP2 PUSH1 0x20 DUP2 ADD SWAP1 CALLDATALOAD PUSH1 0x1 PUSH1 0x20 SHL DUP2 GT ISZERO PUSH2 0x44B JUMPI PUSH1 0x0 DUP1 REVERT JUMPDEST DUP3 ADD DUP4 PUSH1 0x20 DUP3 ADD GT ISZERO PUSH2 0x45D JUMPI PUSH1 0x0 DUP1 REVERT JUMPDEST DUP1 CALLDATALOAD SWAP1 PUSH1 0x20 ADD SWAP2 DUP5 PUSH1 0x20 DUP4 MUL DUP5 ADD GT PUSH1 0x1 PUSH1 0x20 SHL DUP4 GT OR ISZERO PUSH2 0x47E JUMPI PUSH1 0x0 DUP1 REVERT JUMPDEST SWAP2 SWAP4 SWAP1 SWAP3 PUSH1 0xFF DUP4 CALLDATALOAD AND SWAP3 PUSH1 0x1 PUSH1 0x1 PUSH1 0x40 SHL SUB PUSH1 0x20 DUP3 ADD CALLDATALOAD AND SWAP3 SWAP2 SWAP1 PUSH1 0x60 DUP2 ADD SWAP1 PUSH1 0x40 ADD CALLDATALOAD PUSH1 0x1 PUSH1 0x20 SHL DUP2 GT ISZERO PUSH2 0x4B3 JUMPI PUSH1 0x0 DUP1 REVERT JUMPDEST DUP3 ADD DUP4 PUSH1 0x20 DUP3 ADD GT ISZERO PUSH2 0x4C5 JUMPI PUSH1 0x0 DUP1 REVERT JUMPDEST DUP1 CALLDATALOAD SWAP1 PUSH1 0x20 ADD SWAP2 DUP5 PUSH1 0x1 DUP4 MUL DUP5 ADD GT PUSH1 0x1 PUSH1 0x20 SHL DUP4 GT OR ISZERO PUSH2 0x4E6 JUMPI PUSH1 0x0 DUP1 REVERT JUMPDEST POP SWAP1 SWAP3 POP SWAP1 POP PUSH2 0xFC2 JUMP JUMPDEST PUSH2 0x27E PUSH2 0x1760 JUMP JUMPDEST PUSH2 0x315 PUSH2 0x1773 JUMP JUMPDEST PUSH2 0x509 PUSH2 0x1797 JUMP JUMPDEST PUSH1 0x40 DUP1 MLOAD PUSH1 0x1 PUSH1 0x1 PUSH1 0xA0 SHL SUB SWAP1 SWAP3 AND DUP3 MSTORE MLOAD SWAP1 DUP2 SWAP1 SUB PUSH1 0x20 ADD SWAP1 RETURN JUMPDEST PUSH2 0x298 PUSH2 0x17A6 JUMP JUMPDEST PUSH2 0x3B9 PUSH2 0x183C JUMP JUMPDEST PUSH2 0x53D PUSH2 0x18EB JUMP JUMPDEST PUSH1 0x40 DUP1 MLOAD PUSH1 0x20 DUP1 DUP3 MSTORE DUP4 MLOAD DUP2 DUP4 ADD MSTORE DUP4 MLOAD SWAP2 SWAP3 DUP4 SWAP3 SWAP1 DUP4 ADD SWAP2 DUP6 DUP2 ADD SWAP2 MUL DUP1 DUP4 DUP4 PUSH1 0x0 JUMPDEST DUP4 DUP2 LT ISZERO PUSH2 0x579 JUMPI DUP2 DUP2 ADD MLOAD DUP4 DUP3 ADD MSTORE PUSH1 0x20 ADD PUSH2 0x561 JUMP JUMPDEST POP POP POP POP SWAP1 POP ADD SWAP3 POP POP POP PUSH1 0x40 MLOAD DUP1 SWAP2 SUB SWAP1 RETURN JUMPDEST PUSH2 0x595 PUSH2 0x194C JUMP JUMPDEST PUSH1 0x40 DUP1 MLOAD PUSH4 0xFFFFFFFF SWAP5 DUP6 AND DUP2 MSTORE SWAP3 SWAP1 SWAP4 AND PUSH1 0x20 DUP4 ADD MSTORE PUSH1 0x1 PUSH1 0x1 PUSH1 0x80 SHL SUB NOT AND DUP2 DUP4 ADD MSTORE SWAP1 MLOAD SWAP1 DUP2 SWAP1 SUB PUSH1 0x60 ADD SWAP1 RETURN JUMPDEST PUSH2 0x27E PUSH2 0x196C JUMP JUMPDEST PUSH2 0x3B9 PUSH1 0x4 DUP1 CALLDATASIZE SUB PUSH1 0x20 DUP2 LT ISZERO PUSH2 0x5E4 JUMPI PUSH1 0x0 DUP1 REVERT JUMPDEST POP CALLDATALOAD PUSH1 0x1 PUSH1 0x1 PUSH1 0xA0 SHL SUB AND PUSH2 0x199E JUMP JUMPDEST PUSH2 0x509 PUSH2 0x1A18 JUMP JUMPDEST PUSH2 0x604 PUSH2 0x1A27 JUMP JUMPDEST PUSH1 0x40 DUP1 MLOAD PUSH1 0x1 PUSH1 0x1 PUSH1 0xA0 SHL SUB SWAP1 SWAP4 AND DUP4 MSTORE PUSH4 0xFFFFFFFF SWAP1 SWAP2 AND PUSH1 0x20 DUP4 ADD MSTORE DUP1 MLOAD SWAP2 DUP3 SWAP1 SUB ADD SWAP1 RETURN JUMPDEST PUSH2 0x634 PUSH2 0x1A5A JUMP JUMPDEST PUSH1 0x40 DUP1 MLOAD PUSH1 0x1 PUSH1 0x1 PUSH1 0x50 SHL SUB SWAP1 SWAP3 AND DUP3 MSTORE MLOAD SWAP1 DUP2 SWAP1 SUB PUSH1 0x20 ADD SWAP1 RETURN JUMPDEST PUSH2 0x509 PUSH2 0x1C2D JUMP JUMPDEST PUSH2 0x67E PUSH1 0x4 DUP1 CALLDATASIZE SUB PUSH1 0x20 DUP2 LT ISZERO PUSH2 0x66E JUMPI PUSH1 0x0 DUP1 REVERT JUMPDEST POP CALLDATALOAD PUSH1 0x1 PUSH1 0x1 PUSH1 0x50 SHL SUB AND PUSH2 0x1C3C JUMP JUMPDEST PUSH1 0x40 MLOAD DUP1 DUP7 PUSH1 0x1 PUSH1 0x1 PUSH1 0x50 SHL SUB AND DUP2 MSTORE PUSH1 0x20 ADD DUP6 DUP2 MSTORE PUSH1 0x20 ADD DUP5 DUP2 MSTORE PUSH1 0x20 ADD DUP4 DUP2 MSTORE PUSH1 0x20 ADD DUP3 PUSH1 0x1 PUSH1 0x1 PUSH1 0x50 SHL SUB AND DUP2 MSTORE PUSH1 0x20 ADD SWAP6 POP POP POP POP POP POP PUSH1 0x40 MLOAD DUP1 SWAP2 SUB SWAP1 RETURN JUMPDEST PUSH2 0x3B9 PUSH1 0x4 DUP1 CALLDATASIZE SUB PUSH1 0x40 DUP2 LT ISZERO PUSH2 0x6D8 JUMPI PUSH1 0x0 DUP1 REVERT JUMPDEST DUP2 ADD SWAP1 PUSH1 0x20 DUP2 ADD DUP2 CALLDATALOAD PUSH1 0x1 PUSH1 0x20 SHL DUP2 GT ISZERO PUSH2 0x6F2 JUMPI PUSH1 0x0 DUP1 REVERT JUMPDEST DUP3 ADD DUP4 PUSH1 0x20 DUP3 ADD GT ISZERO PUSH2 0x704 JUMPI PUSH1 0x0 DUP1 REVERT JUMPDEST DUP1 CALLDATALOAD SWAP1 PUSH1 0x20 ADD SWAP2 DUP5 PUSH1 0x20 DUP4 MUL DUP5 ADD GT PUSH1 0x1 PUSH1 0x20 SHL DUP4 GT OR ISZERO PUSH2 0x725 JUMPI PUSH1 0x0 DUP1 REVERT JUMPDEST SWAP2 SWAP4 SWAP1 SWAP3 SWAP1 SWAP2 PUSH1 0x20 DUP2 ADD SWAP1 CALLDATALOAD PUSH1 0x1 PUSH1 0x20 SHL DUP2 GT ISZERO PUSH2 0x742 JUMPI PUSH1 0x0 DUP1 REVERT JUMPDEST DUP3 ADD DUP4 PUSH1 0x20 DUP3 ADD GT ISZERO PUSH2 0x754 JUMPI PUSH1 0x0 DUP1 REVERT JUMPDEST DUP1 CALLDATALOAD SWAP1 PUSH1 0x20 ADD SWAP2 DUP5 PUSH1 0x20 DUP4 MUL DUP5 ADD GT PUSH1 0x1 PUSH1 0x20 SHL DUP4 GT OR ISZERO PUSH2 0x775 JUMPI PUSH1 0x0 DUP1 REVERT JUMPDEST POP SWAP1 SWAP3 POP SWAP1 POP PUSH2 0x1D60 JUMP JUMPDEST PUSH2 0x3B9 PUSH1 0x4 DUP1 CALLDATASIZE SUB PUSH1 0x20 DUP2 LT ISZERO PUSH2 0x796 JUMPI PUSH1 0x0 DUP1 REVERT JUMPDEST POP CALLDATALOAD PUSH1 0x1 PUSH1 0x1 PUSH1 0xA0 SHL SUB AND PUSH2 0x1F63 JUMP JUMPDEST PUSH2 0x3B9 PUSH1 0x4 DUP1 CALLDATASIZE SUB PUSH1 0x20 DUP2 LT ISZERO PUSH2 0x7BC JUMPI PUSH1 0x0 DUP1 REVERT JUMPDEST POP CALLDATALOAD PUSH1 0x1 PUSH1 0x1 PUSH1 0xA0 SHL SUB AND PUSH2 0x2027 JUMP JUMPDEST PUSH2 0x3B9 PUSH1 0x4 DUP1 CALLDATASIZE SUB PUSH1 0x20 DUP2 LT ISZERO PUSH2 0x7E2 JUMPI PUSH1 0x0 DUP1 REVERT JUMPDEST POP CALLDATALOAD PUSH1 0x1 PUSH1 0x1 PUSH1 0xA0 SHL SUB AND PUSH2 0x2108 JUMP JUMPDEST PUSH2 0x27E PUSH1 0x4 DUP1 CALLDATASIZE SUB PUSH1 0x20 DUP2 LT ISZERO PUSH2 0x808 JUMPI PUSH1 0x0 DUP1 REVERT JUMPDEST POP CALLDATALOAD PUSH2 0x212A JUMP JUMPDEST PUSH2 0x27E PUSH1 0x4 DUP1 CALLDATASIZE SUB PUSH1 0x20 DUP2 LT ISZERO PUSH2 0x825 JUMPI PUSH1 0x0 DUP1 REVERT JUMPDEST POP CALLDATALOAD PUSH2 0x2160 JUMP JUMPDEST PUSH2 0x3B9 PUSH1 0x4 DUP1 CALLDATASIZE SUB PUSH1 0xA0 DUP2 LT ISZERO PUSH2 0x842 JUMPI PUSH1 0x0 DUP1 REVERT JUMPDEST POP PUSH4 0xFFFFFFFF DUP2 CALLDATALOAD DUP2 AND SWAP2 PUSH1 0x20 DUP2 ADD CALLDATALOAD DUP3 AND SWAP2 PUSH1 0x40 DUP3 ADD CALLDATALOAD DUP2 AND SWAP2 PUSH1 0x60 DUP2 ADD CALLDATALOAD DUP3 AND SWAP2 PUSH1 0x80 SWAP1 SWAP2 ADD CALLDATALOAD AND PUSH2 0x219F JUMP JUMPDEST PUSH2 0x3B9 PUSH1 0x4 DUP1 CALLDATASIZE SUB PUSH1 0x40 DUP2 LT ISZERO PUSH2 0x887 JUMPI PUSH1 0x0 DUP1 REVERT JUMPDEST POP PUSH1 0x1 PUSH1 0x1 PUSH1 0xA0 SHL SUB DUP2 CALLDATALOAD AND SWAP1 PUSH1 0x20 ADD CALLDATALOAD PUSH2 0x22CE JUMP JUMPDEST PUSH2 0x3B9 PUSH1 0x4 DUP1 CALLDATASIZE SUB PUSH1 0x80 DUP2 LT ISZERO PUSH2 0x8B3 JUMPI PUSH1 0x0 DUP1 REVERT JUMPDEST DUP2 ADD SWAP1 PUSH1 0x20 DUP2 ADD DUP2 CALLDATALOAD PUSH1 0x1 PUSH1 0x20 SHL DUP2 GT ISZERO PUSH2 0x8CD JUMPI PUSH1 0x0 DUP1 REVERT JUMPDEST DUP3 ADD DUP4 PUSH1 0x20 DUP3 ADD GT ISZERO PUSH2 0x8DF JUMPI PUSH1 0x0 DUP1 REVERT JUMPDEST DUP1 CALLDATALOAD SWAP1 PUSH1 0x20 ADD SWAP2 DUP5 PUSH1 0x1 DUP4 MUL DUP5 ADD GT PUSH1 0x1 PUSH1 0x20 SHL DUP4 GT OR ISZERO PUSH2 0x900 JUMPI PUSH1 0x0 DUP1 REVERT JUMPDEST SWAP2 SWAP4 SWAP1 SWAP3 SWAP1 SWAP2 PUSH1 0x20 DUP2 ADD SWAP1 CALLDATALOAD PUSH1 0x1 PUSH1 0x20 SHL DUP2 GT ISZERO PUSH2 0x91D JUMPI PUSH1 0x0 DUP1 REVERT JUMPDEST DUP3 ADD DUP4 PUSH1 0x20 DUP3 ADD GT ISZERO PUSH2 0x92F JUMPI PUSH1 0x0 DUP1 REVERT JUMPDEST DUP1 CALLDATALOAD SWAP1 PUSH1 0x20 ADD SWAP2 DUP5 PUSH1 0x20 DUP4 MUL DUP5 ADD GT PUSH1 0x1 PUSH1 0x20 SHL DUP4 GT OR ISZERO PUSH2 0x950 JUMPI PUSH1 0x0 DUP1 REVERT JUMPDEST SWAP2 SWAP4 SWAP1 SWAP3 SWAP1 SWAP2 PUSH1 0x20 DUP2 ADD SWAP1 CALLDATALOAD PUSH1 0x1 PUSH1 0x20 SHL DUP2 GT ISZERO PUSH2 0x96D JUMPI PUSH1 0x0 DUP1 REVERT JUMPDEST DUP3 ADD DUP4 PUSH1 0x20 DUP3 ADD GT ISZERO PUSH2 0x97F JUMPI PUSH1 0x0 DUP1 REVERT JUMPDEST DUP1 CALLDATALOAD SWAP1 PUSH1 0x20 ADD SWAP2 DUP5 PUSH1 0x20 DUP4 MUL DUP5 ADD GT PUSH1 0x1 PUSH1 0x20 SHL DUP4 GT OR ISZERO PUSH2 0x9A0 JUMPI PUSH1 0x0 DUP1 REVERT JUMPDEST SWAP2 SWAP4 POP SWAP2 POP CALLDATALOAD PUSH2 0x2591 JUMP JUMPDEST PUSH2 0x27E PUSH2 0x32DF JUMP JUMPDEST PUSH2 0x9D9 PUSH1 0x4 DUP1 CALLDATASIZE SUB PUSH1 0x20 DUP2 LT ISZERO PUSH2 0x9C9 JUMPI PUSH1 0x0 DUP1 REVERT JUMPDEST POP CALLDATALOAD PUSH1 0x1 PUSH1 0x1 PUSH1 0xA0 SHL SUB AND PUSH2 0x3370 JUMP JUMPDEST PUSH1 0x40 DUP1 MLOAD PUSH2 0xFFFF SWAP1 SWAP3 AND DUP3 MSTORE MLOAD SWAP1 DUP2 SWAP1 SUB PUSH1 0x20 ADD SWAP1 RETURN JUMPDEST PUSH2 0x9F8 PUSH2 0x341D JUMP JUMPDEST PUSH1 0x40 DUP1 MLOAD PUSH1 0x1 PUSH1 0x1 PUSH1 0x80 SHL SUB NOT SWAP1 SWAP7 AND DUP7 MSTORE PUSH4 0xFFFFFFFF SWAP1 SWAP5 AND PUSH1 0x20 DUP7 ADD MSTORE PUSH1 0xFF SWAP1 SWAP3 AND DUP5 DUP5 ADD MSTORE PUSH1 0x17 SIGNEXTEND PUSH1 0x60 DUP5 ADD MSTORE PUSH1 0x1 PUSH1 0x1 PUSH1 0x40 SHL SUB AND PUSH1 0x80 DUP4 ADD MSTORE MLOAD SWAP1 DUP2 SWAP1 SUB PUSH1 0xA0 ADD SWAP1 RETURN JUMPDEST PUSH2 0x509 PUSH2 0x34CD JUMP JUMPDEST PUSH2 0x3B9 PUSH1 0x4 DUP1 CALLDATASIZE SUB PUSH1 0x40 DUP2 LT ISZERO PUSH2 0xA5F JUMPI PUSH1 0x0 DUP1 REVERT JUMPDEST POP DUP1 CALLDATALOAD PUSH1 0x1 PUSH1 0x1 PUSH1 0xA0 SHL SUB AND SWAP1 PUSH1 0x20 ADD CALLDATALOAD PUSH4 0xFFFFFFFF AND PUSH2 0x34DC JUMP JUMPDEST PUSH2 0x3B9 PUSH1 0x4 DUP1 CALLDATASIZE SUB PUSH1 0x40 DUP2 LT ISZERO PUSH2 0xA91 JUMPI PUSH1 0x0 DUP1 REVERT JUMPDEST POP PUSH1 0x1 PUSH1 0x1 PUSH1 0xA0 SHL SUB DUP2 CALLDATALOAD DUP2 AND SWAP2 PUSH1 0x20 ADD CALLDATALOAD AND PUSH2 0x360D JUMP JUMPDEST PUSH2 0x3B9 PUSH1 0x4 DUP1 CALLDATASIZE SUB PUSH1 0x20 DUP2 LT ISZERO PUSH2 0xABF JUMPI PUSH1 0x0 DUP1 REVERT JUMPDEST POP CALLDATALOAD PUSH1 0x1 PUSH1 0x1 PUSH1 0xA0 SHL SUB AND PUSH2 0x3750 JUMP JUMPDEST PUSH2 0x3B9 PUSH1 0x4 DUP1 CALLDATASIZE SUB PUSH1 0x20 DUP2 LT ISZERO PUSH2 0xAE5 JUMPI PUSH1 0x0 DUP1 REVERT JUMPDEST POP CALLDATALOAD PUSH1 0x1 PUSH1 0x1 PUSH1 0xA0 SHL SUB AND PUSH2 0x37EE JUMP JUMPDEST PUSH2 0x67E PUSH2 0x3844 JUMP JUMPDEST PUSH1 0x1 PUSH1 0x1 PUSH1 0xA0 SHL SUB DUP2 AND PUSH1 0x0 SWAP1 DUP2 MSTORE PUSH1 0x28 PUSH1 0x20 SWAP1 DUP2 MSTORE PUSH1 0x40 DUP1 DUP4 KECCAK256 DUP2 MLOAD DUP1 DUP4 ADD SWAP1 SWAP3 MSTORE DUP1 SLOAD PUSH1 0xFF DUP1 DUP3 AND DUP5 MSTORE DUP6 SWAP5 DUP5 ADD SWAP2 PUSH2 0x100 SWAP1 DIV AND PUSH1 0x2 DUP2 GT ISZERO PUSH2 0xB3F JUMPI INVALID JUMPDEST PUSH1 0x2 DUP2 GT ISZERO PUSH2 0xB4A JUMPI INVALID JUMPDEST SWAP1 MSTORE POP SWAP1 POP PUSH1 0x0 DUP2 PUSH1 0x20 ADD MLOAD PUSH1 0x2 DUP2 GT ISZERO PUSH2 0xB61 JUMPI INVALID JUMPDEST EQ ISZERO PUSH2 0xB71 JUMPI PUSH1 0x0 SWAP2 POP POP PUSH2 0xC27 JUMP JUMPDEST PUSH1 0x40 DUP1 MLOAD PUSH1 0xA0 DUP2 ADD DUP3 MSTORE PUSH1 0x2 SLOAD PUSH4 0xFFFFFFFF DUP1 DUP3 AND DUP4 MSTORE PUSH1 0x1 PUSH1 0x20 SHL DUP3 DIV DUP2 AND PUSH1 0x20 DUP5 ADD MSTORE PUSH1 0x1 PUSH1 0x40 SHL DUP3 DIV DUP2 AND SWAP4 DUP4 ADD SWAP4 SWAP1 SWAP4 MSTORE PUSH1 0x1 PUSH1 0x60 SHL DUP2 DIV DUP4 AND PUSH1 0x60 DUP4 ADD DUP2 SWAP1 MSTORE PUSH1 0x1 PUSH1 0x80 SHL SWAP1 SWAP2 DIV SWAP1 SWAP3 AND PUSH1 0x80 DUP3 ADD MSTORE DUP3 MLOAD SWAP1 SWAP2 PUSH1 0x0 SWAP2 PUSH1 0x1 SWAP1 PUSH1 0x5 SWAP1 PUSH1 0xFF AND PUSH1 0x1F DUP2 LT PUSH2 0xBE0 JUMPI INVALID JUMPDEST PUSH1 0x10 SWAP2 DUP3 DUP3 DIV ADD SWAP2 SWAP1 MOD PUSH1 0x2 MUL SWAP1 SLOAD SWAP1 PUSH2 0x100 EXP SWAP1 DIV PUSH2 0xFFFF AND SUB PUSH2 0xFFFF AND MUL PUSH4 0x3B9ACA00 MUL SWAP1 POP PUSH1 0x1 PUSH1 0x9 DUP5 PUSH1 0x0 ADD MLOAD PUSH1 0xFF AND PUSH1 0x1F DUP2 LT PUSH2 0xC1E JUMPI INVALID JUMPDEST ADD SLOAD SUB ADD SWAP3 POP POP POP JUMPDEST SWAP2 SWAP1 POP JUMP JUMPDEST PUSH1 0x40 DUP1 MLOAD DUP1 DUP3 ADD SWAP1 SWAP2 MSTORE PUSH1 0x18 DUP2 MSTORE PUSH32 0x4F6666636861696E41676772656761746F7220332E302E300000000000000000 PUSH1 0x20 DUP3 ADD MSTORE SWAP1 JUMP JUMPDEST PUSH32 0x0 DUP2 JUMP JUMPDEST PUSH1 0x40 DUP1 MLOAD PUSH1 0xA0 DUP2 ADD DUP3 MSTORE PUSH1 0x2 SLOAD PUSH4 0xFFFFFFFF DUP1 DUP3 AND DUP1 DUP5 MSTORE PUSH1 0x1 PUSH1 0x20 SHL DUP4 DIV DUP3 AND PUSH1 0x20 DUP6 ADD DUP2 SWAP1 MSTORE PUSH1 0x1 PUSH1 0x40 SHL DUP5 DIV DUP4 AND SWAP6 DUP6 ADD DUP7 SWAP1 MSTORE PUSH1 0x1 PUSH1 0x60 SHL DUP5 DIV DUP4 AND PUSH1 0x60 DUP7 ADD DUP2 SWAP1 MSTORE PUSH1 0x1 PUSH1 0x80 SHL SWAP1 SWAP5 DIV SWAP1 SWAP3 AND PUSH1 0x80 SWAP1 SWAP5 ADD DUP5 SWAP1 MSTORE SWAP5 SWAP1 SWAP4 SWAP3 SWAP1 JUMP JUMPDEST PUSH32 0x0 DUP2 JUMP JUMPDEST PUSH1 0x0 SLOAD PUSH1 0x1 PUSH1 0x1 PUSH1 0xA0 SHL SUB AND CALLER EQ PUSH2 0xD59 JUMPI PUSH1 0x40 DUP1 MLOAD PUSH3 0x461BCD PUSH1 0xE5 SHL DUP2 MSTORE PUSH1 0x20 PUSH1 0x4 DUP3 ADD MSTORE PUSH1 0x16 PUSH1 0x24 DUP3 ADD MSTORE PUSH1 0x0 DUP1 MLOAD PUSH1 0x20 PUSH2 0x4844 DUP4 CODECOPY DUP2 MLOAD SWAP2 MSTORE PUSH1 0x44 DUP3 ADD MSTORE SWAP1 MLOAD SWAP1 DUP2 SWAP1 SUB PUSH1 0x64 ADD SWAP1 REVERT JUMPDEST PUSH1 0x3 SLOAD PUSH1 0x1 PUSH1 0x1 PUSH1 0xA0 SHL SUB SWAP1 DUP2 AND SWAP1 DUP4 AND DUP2 EQ ISZERO PUSH2 0xD77 JUMPI POP PUSH2 0xF90 JUMP JUMPDEST PUSH1 0x40 DUP1 MLOAD PUSH4 0x70A08231 PUSH1 0xE0 SHL DUP2 MSTORE ADDRESS PUSH1 0x4 DUP3 ADD MSTORE SWAP1 MLOAD PUSH1 0x1 PUSH1 0x1 PUSH1 0xA0 SHL SUB DUP6 AND SWAP2 PUSH4 0x70A08231 SWAP2 PUSH1 0x24 DUP1 DUP4 ADD SWAP3 PUSH1 0x20 SWAP3 SWAP2 SWAP1 DUP3 SWAP1 SUB ADD DUP2 DUP7 DUP1 EXTCODESIZE ISZERO DUP1 ISZERO PUSH2 0xDBD JUMPI PUSH1 0x0 DUP1 REVERT JUMPDEST POP GAS STATICCALL ISZERO DUP1 ISZERO PUSH2 0xDD1 JUMPI RETURNDATASIZE PUSH1 0x0 DUP1 RETURNDATACOPY RETURNDATASIZE PUSH1 0x0 REVERT JUMPDEST POP POP POP POP PUSH1 0x40 MLOAD RETURNDATASIZE PUSH1 0x20 DUP2 LT ISZERO PUSH2 0xDE7 JUMPI PUSH1 0x0 DUP1 REVERT JUMPDEST POP PUSH2 0xDF2 SWAP1 POP PUSH2 0x389F JUMP JUMPDEST PUSH1 0x0 DUP2 PUSH1 0x1 PUSH1 0x1 PUSH1 0xA0 SHL SUB AND PUSH4 0x70A08231 ADDRESS PUSH1 0x40 MLOAD DUP3 PUSH4 0xFFFFFFFF AND PUSH1 0xE0 SHL DUP2 MSTORE PUSH1 0x4 ADD DUP1 DUP3 PUSH1 0x1 PUSH1 0x1 PUSH1 0xA0 SHL SUB AND DUP2 MSTORE PUSH1 0x20 ADD SWAP2 POP POP PUSH1 0x20 PUSH1 0x40 MLOAD DUP1 DUP4 SUB DUP2 DUP7 DUP1 EXTCODESIZE ISZERO DUP1 ISZERO PUSH2 0xE41 JUMPI PUSH1 0x0 DUP1 REVERT JUMPDEST POP GAS STATICCALL ISZERO DUP1 ISZERO PUSH2 0xE55 JUMPI RETURNDATASIZE PUSH1 0x0 DUP1 RETURNDATACOPY RETURNDATASIZE PUSH1 0x0 REVERT JUMPDEST POP POP POP POP PUSH1 0x40 MLOAD RETURNDATASIZE PUSH1 0x20 DUP2 LT ISZERO PUSH2 0xE6B JUMPI PUSH1 0x0 DUP1 REVERT JUMPDEST POP MLOAD PUSH1 0x40 DUP1 MLOAD PUSH4 0xA9059CBB PUSH1 0xE0 SHL DUP2 MSTORE PUSH1 0x1 PUSH1 0x1 PUSH1 0xA0 SHL SUB DUP7 DUP2 AND PUSH1 0x4 DUP4 ADD MSTORE PUSH1 0x24 DUP3 ADD DUP5 SWAP1 MSTORE SWAP2 MLOAD SWAP3 SWAP4 POP SWAP1 DUP5 AND SWAP2 PUSH4 0xA9059CBB SWAP2 PUSH1 0x44 DUP1 DUP3 ADD SWAP3 PUSH1 0x20 SWAP3 SWAP1 SWAP2 SWAP1 DUP3 SWAP1 SUB ADD DUP2 PUSH1 0x0 DUP8 DUP1 EXTCODESIZE ISZERO DUP1 ISZERO PUSH2 0xEC3 JUMPI PUSH1 0x0 DUP1 REVERT JUMPDEST POP GAS CALL ISZERO DUP1 ISZERO PUSH2 0xED7 JUMPI RETURNDATASIZE PUSH1 0x0 DUP1 RETURNDATACOPY RETURNDATASIZE PUSH1 0x0 REVERT JUMPDEST POP POP POP POP PUSH1 0x40 MLOAD RETURNDATASIZE PUSH1 0x20 DUP2 LT ISZERO PUSH2 0xEED JUMPI PUSH1 0x0 DUP1 REVERT JUMPDEST POP MLOAD PUSH2 0xF40 JUMPI PUSH1 0x40 DUP1 MLOAD PUSH3 0x461BCD PUSH1 0xE5 SHL DUP2 MSTORE PUSH1 0x20 PUSH1 0x4 DUP3 ADD MSTORE PUSH1 0x1F PUSH1 0x24 DUP3 ADD MSTORE PUSH32 0x7472616E736665722072656D61696E696E672066756E6473206661696C656400 PUSH1 0x44 DUP3 ADD MSTORE SWAP1 MLOAD SWAP1 DUP2 SWAP1 SUB PUSH1 0x64 ADD SWAP1 REVERT JUMPDEST PUSH1 0x3 DUP1 SLOAD PUSH1 0x1 PUSH1 0x1 PUSH1 0xA0 SHL SUB NOT AND PUSH1 0x1 PUSH1 0x1 PUSH1 0xA0 SHL SUB DUP7 DUP2 AND SWAP2 DUP3 OR SWAP1 SWAP3 SSTORE PUSH1 0x40 MLOAD SWAP1 SWAP2 DUP5 AND SWAP1 PUSH32 0x4966A50C93F855342CCF6C5C0D358B85B91335B2ACEDC7DA0932F691F351711A SWAP1 PUSH1 0x0 SWAP1 LOG3 POP POP JUMPDEST POP POP JUMP JUMPDEST PUSH1 0x2C SLOAD PUSH1 0x1 PUSH1 0xB0 SHL SWAP1 DIV PUSH4 0xFFFFFFFF AND PUSH1 0x0 SWAP1 DUP2 MSTORE PUSH1 0x2D PUSH1 0x20 MSTORE PUSH1 0x40 SWAP1 KECCAK256 SLOAD PUSH1 0x17 SWAP1 DUP2 SIGNEXTEND SWAP1 SIGNEXTEND SWAP1 JUMP JUMPDEST PUSH1 0x4 DUP2 JUMP JUMPDEST DUP7 DUP6 PUSH1 0xFF DUP7 AND PUSH1 0x1F DUP4 GT ISZERO PUSH2 0x1011 JUMPI PUSH1 0x40 DUP1 MLOAD PUSH3 0x461BCD PUSH1 0xE5 SHL DUP2 MSTORE PUSH1 0x20 PUSH1 0x4 DUP3 ADD MSTORE PUSH1 0x10 PUSH1 0x24 DUP3 ADD MSTORE PUSH16 0x746F6F206D616E79207369676E657273 PUSH1 0x80 SHL PUSH1 0x44 DUP3 ADD MSTORE SWAP1 MLOAD SWAP1 DUP2 SWAP1 SUB PUSH1 0x64 ADD SWAP1 REVERT JUMPDEST PUSH1 0x0 DUP2 GT PUSH2 0x1066 JUMPI PUSH1 0x40 DUP1 MLOAD PUSH3 0x461BCD PUSH1 0xE5 SHL DUP2 MSTORE PUSH1 0x20 PUSH1 0x4 DUP3 ADD MSTORE PUSH1 0x1A PUSH1 0x24 DUP3 ADD MSTORE PUSH32 0x7468726573686F6C64206D75737420626520706F736974697665000000000000 PUSH1 0x44 DUP3 ADD MSTORE SWAP1 MLOAD SWAP1 DUP2 SWAP1 SUB PUSH1 0x64 ADD SWAP1 REVERT JUMPDEST DUP2 DUP4 EQ PUSH2 0x10A4 JUMPI PUSH1 0x40 MLOAD PUSH3 0x461BCD PUSH1 0xE5 SHL DUP2 MSTORE PUSH1 0x4 ADD DUP1 DUP1 PUSH1 0x20 ADD DUP3 DUP2 SUB DUP3 MSTORE PUSH1 0x24 DUP2 MSTORE PUSH1 0x20 ADD DUP1 PUSH2 0x4820 PUSH1 0x24 SWAP2 CODECOPY PUSH1 0x40 ADD SWAP2 POP POP PUSH1 0x40 MLOAD DUP1 SWAP2 SUB SWAP1 REVERT JUMPDEST DUP1 PUSH1 0x3 MUL DUP4 GT PUSH2 0x10FB JUMPI PUSH1 0x40 DUP1 MLOAD PUSH3 0x461BCD PUSH1 0xE5 SHL DUP2 MSTORE PUSH1 0x20 PUSH1 0x4 DUP3 ADD DUP2 SWAP1 MSTORE PUSH1 0x24 DUP3 ADD MSTORE PUSH32 0x6661756C74792D6F7261636C65207468726573686F6C6420746F6F2068696768 PUSH1 0x44 DUP3 ADD MSTORE SWAP1 MLOAD SWAP1 DUP2 SWAP1 SUB PUSH1 0x64 ADD SWAP1 REVERT JUMPDEST PUSH1 0x0 SLOAD PUSH1 0x1 PUSH1 0x1 PUSH1 0xA0 SHL SUB AND CALLER EQ PUSH2 0x1148 JUMPI PUSH1 0x40 DUP1 MLOAD PUSH3 0x461BCD PUSH1 0xE5 SHL DUP2 MSTORE PUSH1 0x20 PUSH1 0x4 DUP3 ADD MSTORE PUSH1 0x16 PUSH1 0x24 DUP3 ADD MSTORE PUSH1 0x0 DUP1 MLOAD PUSH1 0x20 PUSH2 0x4844 DUP4 CODECOPY DUP2 MLOAD SWAP2 MSTORE PUSH1 0x44 DUP3 ADD MSTORE SWAP1 MLOAD SWAP1 DUP2 SWAP1 SUB PUSH1 0x64 ADD SWAP1 REVERT JUMPDEST PUSH1 0x29 SLOAD ISZERO PUSH2 0x1245 JUMPI PUSH1 0x29 DUP1 SLOAD PUSH1 0x0 NOT DUP2 ADD SWAP2 PUSH1 0x0 SWAP2 DUP4 SWAP1 DUP2 LT PUSH2 0x1167 JUMPI INVALID JUMPDEST PUSH1 0x0 SWAP2 DUP3 MSTORE PUSH1 0x20 DUP3 KECCAK256 ADD SLOAD PUSH1 0x2A DUP1 SLOAD PUSH1 0x1 PUSH1 0x1 PUSH1 0xA0 SHL SUB SWAP1 SWAP3 AND SWAP4 POP SWAP1 DUP5 SWAP1 DUP2 LT PUSH2 0x118E JUMPI INVALID JUMPDEST PUSH1 0x0 SWAP2 DUP3 MSTORE PUSH1 0x20 SWAP1 SWAP2 KECCAK256 ADD SLOAD PUSH1 0x1 PUSH1 0x1 PUSH1 0xA0 SHL SUB AND SWAP1 POP PUSH2 0x11AE DUP2 PUSH2 0x3C28 JUMP JUMPDEST PUSH1 0x1 PUSH1 0x1 PUSH1 0xA0 SHL SUB DUP1 DUP4 AND PUSH1 0x0 SWAP1 DUP2 MSTORE PUSH1 0x28 PUSH1 0x20 MSTORE PUSH1 0x40 DUP1 DUP3 KECCAK256 DUP1 SLOAD PUSH2 0xFFFF NOT SWAP1 DUP2 AND SWAP1 SWAP2 SSTORE SWAP3 DUP5 AND DUP3 MSTORE SWAP1 KECCAK256 DUP1 SLOAD SWAP1 SWAP2 AND SWAP1 SSTORE PUSH1 0x29 DUP1 SLOAD DUP1 PUSH2 0x11ED JUMPI INVALID JUMPDEST PUSH1 0x0 DUP3 DUP2 MSTORE PUSH1 0x20 SWAP1 KECCAK256 DUP2 ADD PUSH1 0x0 NOT SWAP1 DUP2 ADD DUP1 SLOAD PUSH1 0x1 PUSH1 0x1 PUSH1 0xA0 SHL SUB NOT AND SWAP1 SSTORE ADD SWAP1 SSTORE PUSH1 0x2A DUP1 SLOAD DUP1 PUSH2 0x121A JUMPI INVALID JUMPDEST PUSH1 0x0 DUP3 DUP2 MSTORE PUSH1 0x20 SWAP1 KECCAK256 DUP2 ADD PUSH1 0x0 NOT SWAP1 DUP2 ADD DUP1 SLOAD PUSH1 0x1 PUSH1 0x1 PUSH1 0xA0 SHL SUB NOT AND SWAP1 SSTORE ADD SWAP1 SSTORE POP PUSH2 0x1148 SWAP2 POP POP JUMP JUMPDEST PUSH1 0x0 JUMPDEST DUP11 DUP2 LT ISZERO PUSH2 0x15A1 JUMPI PUSH1 0x0 PUSH1 0x28 PUSH1 0x0 DUP15 DUP15 DUP6 DUP2 DUP2 LT PUSH2 0x1262 JUMPI INVALID JUMPDEST PUSH1 0x20 SWAP1 DUP2 MUL SWAP3 SWAP1 SWAP3 ADD CALLDATALOAD PUSH1 0x1 PUSH1 0x1 PUSH1 0xA0 SHL SUB AND DUP4 MSTORE POP DUP2 ADD SWAP2 SWAP1 SWAP2 MSTORE PUSH1 0x40 ADD PUSH1 0x0 KECCAK256 SLOAD PUSH2 0x100 SWAP1 DIV PUSH1 0xFF AND PUSH1 0x2 DUP2 GT ISZERO PUSH2 0x1298 JUMPI INVALID JUMPDEST EQ PUSH2 0x12EA JUMPI PUSH1 0x40 DUP1 MLOAD PUSH3 0x461BCD PUSH1 0xE5 SHL DUP2 MSTORE PUSH1 0x20 PUSH1 0x4 DUP3 ADD MSTORE PUSH1 0x17 PUSH1 0x24 DUP3 ADD MSTORE PUSH32 0x7265706561746564207369676E65722061646472657373000000000000000000 PUSH1 0x44 DUP3 ADD MSTORE SWAP1 MLOAD SWAP1 DUP2 SWAP1 SUB PUSH1 0x64 ADD SWAP1 REVERT JUMPDEST PUSH1 0x40 DUP1 MLOAD DUP1 DUP3 ADD SWAP1 SWAP2 MSTORE PUSH1 0xFF DUP3 AND DUP2 MSTORE PUSH1 0x1 PUSH1 0x20 DUP3 ADD MSTORE PUSH1 0x28 PUSH1 0x0 DUP15 DUP15 DUP6 DUP2 DUP2 LT PUSH2 0x1311 JUMPI INVALID JUMPDEST PUSH1 0x20 SWAP1 DUP2 MUL SWAP3 SWAP1 SWAP3 ADD CALLDATALOAD PUSH1 0x1 PUSH1 0x1 PUSH1 0xA0 SHL SUB AND DUP4 MSTORE POP DUP2 DUP2 ADD SWAP3 SWAP1 SWAP3 MSTORE PUSH1 0x40 ADD PUSH1 0x0 KECCAK256 DUP3 MLOAD DUP2 SLOAD PUSH1 0xFF NOT AND PUSH1 0xFF SWAP1 SWAP2 AND OR DUP1 DUP3 SSTORE SWAP2 DUP4 ADD MLOAD SWAP1 SWAP2 DUP3 SWAP1 PUSH2 0xFF00 NOT AND PUSH2 0x100 DUP4 PUSH1 0x2 DUP2 GT ISZERO PUSH2 0x1361 JUMPI INVALID JUMPDEST MUL OR SWAP1 SSTORE POP PUSH1 0x0 SWAP2 POP PUSH1 0x7 SWAP1 POP DUP2 DUP13 DUP13 DUP6 DUP2 DUP2 LT PUSH2 0x137B JUMPI INVALID JUMPDEST PUSH1 0x1 PUSH1 0x1 PUSH1 0xA0 SHL SUB PUSH1 0x20 SWAP2 DUP3 MUL SWAP4 SWAP1 SWAP4 ADD CALLDATALOAD DUP4 AND DUP5 MSTORE DUP4 ADD SWAP4 SWAP1 SWAP4 MSTORE PUSH1 0x40 SWAP1 SWAP2 ADD PUSH1 0x0 KECCAK256 SLOAD AND SWAP2 SWAP1 SWAP2 EQ ISZERO SWAP1 POP PUSH2 0x13ED JUMPI PUSH1 0x40 DUP1 MLOAD PUSH3 0x461BCD PUSH1 0xE5 SHL DUP2 MSTORE PUSH1 0x20 PUSH1 0x4 DUP3 ADD MSTORE PUSH1 0x11 PUSH1 0x24 DUP3 ADD MSTORE PUSH17 0x1C185E5959481B5D5CDD081899481CD95D PUSH1 0x7A SHL PUSH1 0x44 DUP3 ADD MSTORE SWAP1 MLOAD SWAP1 DUP2 SWAP1 SUB PUSH1 0x64 ADD SWAP1 REVERT JUMPDEST PUSH1 0x0 PUSH1 0x28 PUSH1 0x0 DUP13 DUP13 DUP6 DUP2 DUP2 LT PUSH2 0x13FF JUMPI INVALID JUMPDEST PUSH1 0x20 SWAP1 DUP2 MUL SWAP3 SWAP1 SWAP3 ADD CALLDATALOAD PUSH1 0x1 PUSH1 0x1 PUSH1 0xA0 SHL SUB AND DUP4 MSTORE POP DUP2 ADD SWAP2 SWAP1 SWAP2 MSTORE PUSH1 0x40 ADD PUSH1 0x0 KECCAK256 SLOAD PUSH2 0x100 SWAP1 DIV PUSH1 0xFF AND PUSH1 0x2 DUP2 GT ISZERO PUSH2 0x1435 JUMPI INVALID JUMPDEST EQ PUSH2 0x1487 JUMPI PUSH1 0x40 DUP1 MLOAD PUSH3 0x461BCD PUSH1 0xE5 SHL DUP2 MSTORE PUSH1 0x20 PUSH1 0x4 DUP3 ADD MSTORE PUSH1 0x1C PUSH1 0x24 DUP3 ADD MSTORE PUSH32 0x7265706561746564207472616E736D6974746572206164647265737300000000 PUSH1 0x44 DUP3 ADD MSTORE SWAP1 MLOAD SWAP1 DUP2 SWAP1 SUB PUSH1 0x64 ADD SWAP1 REVERT JUMPDEST PUSH1 0x40 DUP1 MLOAD DUP1 DUP3 ADD SWAP1 SWAP2 MSTORE PUSH1 0xFF DUP3 AND DUP2 MSTORE PUSH1 0x2 PUSH1 0x20 DUP3 ADD MSTORE PUSH1 0x28 PUSH1 0x0 DUP13 DUP13 DUP6 DUP2 DUP2 LT PUSH2 0x14AE JUMPI INVALID JUMPDEST PUSH1 0x20 SWAP1 DUP2 MUL SWAP3 SWAP1 SWAP3 ADD CALLDATALOAD PUSH1 0x1 PUSH1 0x1 PUSH1 0xA0 SHL SUB AND DUP4 MSTORE POP DUP2 DUP2 ADD SWAP3 SWAP1 SWAP3 MSTORE PUSH1 0x40 ADD PUSH1 0x0 KECCAK256 DUP3 MLOAD DUP2 SLOAD PUSH1 0xFF NOT AND PUSH1 0xFF SWAP1 SWAP2 AND OR DUP1 DUP3 SSTORE SWAP2 DUP4 ADD MLOAD SWAP1 SWAP2 DUP3 SWAP1 PUSH2 0xFF00 NOT AND PUSH2 0x100 DUP4 PUSH1 0x2 DUP2 GT ISZERO PUSH2 0x14FE JUMPI INVALID JUMPDEST MUL OR SWAP1 SSTORE POP SWAP1 POP POP PUSH1 0x29 DUP13 DUP13 DUP4 DUP2 DUP2 LT PUSH2 0x1514 JUMPI INVALID JUMPDEST DUP4 SLOAD PUSH1 0x1 DUP2 ADD DUP6 SSTORE PUSH1 0x0 SWAP5 DUP6 MSTORE PUSH1 0x20 SWAP5 DUP6 SWAP1 KECCAK256 ADD DUP1 SLOAD PUSH1 0x1 PUSH1 0x1 PUSH1 0xA0 SHL SUB NOT AND PUSH1 0x1 PUSH1 0x1 PUSH1 0xA0 SHL SUB SWAP6 SWAP1 SWAP3 MUL SWAP4 SWAP1 SWAP4 ADD CALLDATALOAD SWAP4 SWAP1 SWAP4 AND SWAP3 SWAP1 SWAP3 OR SWAP1 SSTORE POP PUSH1 0x2A DUP11 DUP11 DUP4 DUP2 DUP2 LT PUSH2 0x155E JUMPI INVALID JUMPDEST DUP4 SLOAD PUSH1 0x1 DUP2 DUP2 ADD DUP7 SSTORE PUSH1 0x0 SWAP6 DUP7 MSTORE PUSH1 0x20 SWAP6 DUP7 SWAP1 KECCAK256 SWAP1 SWAP2 ADD DUP1 SLOAD PUSH1 0x1 PUSH1 0x1 PUSH1 0xA0 SHL SUB NOT AND PUSH1 0x1 PUSH1 0x1 PUSH1 0xA0 SHL SUB SWAP7 SWAP1 SWAP4 MUL SWAP5 SWAP1 SWAP5 ADD CALLDATALOAD SWAP5 SWAP1 SWAP5 AND OR SWAP1 SWAP2 SSTORE POP ADD PUSH2 0x1248 JUMP JUMPDEST POP PUSH1 0x2C DUP1 SLOAD PUSH1 0xFF DUP10 AND PUSH1 0x1 PUSH1 0xA8 SHL MUL PUSH1 0xFF PUSH1 0xA8 SHL NOT SWAP1 SWAP2 AND OR SWAP1 SSTORE PUSH1 0x2E DUP1 SLOAD NUMBER PUSH4 0xFFFFFFFF SWAP1 DUP2 AND PUSH1 0x1 PUSH1 0x20 SHL SWAP1 DUP2 MUL PUSH8 0xFFFFFFFF00000000 NOT DUP5 AND OR DUP1 DUP4 AND PUSH1 0x1 ADD DUP4 AND PUSH4 0xFFFFFFFF NOT SWAP1 SWAP2 AND OR SWAP4 DUP5 SWAP1 SSTORE SWAP1 SWAP2 DIV DUP2 AND SWAP2 AND PUSH2 0x160D ADDRESS DUP3 DUP16 DUP16 DUP16 DUP16 DUP16 DUP16 DUP16 DUP16 PUSH2 0x3E10 JUMP JUMPDEST PUSH1 0x2C PUSH1 0x0 ADD PUSH1 0x0 PUSH2 0x100 EXP DUP2 SLOAD DUP2 PUSH1 0x1 PUSH1 0x1 PUSH1 0x80 SHL SUB MUL NOT AND SWAP1 DUP4 PUSH1 0x80 SHR MUL OR SWAP1 SSTORE POP PUSH1 0x0 PUSH1 0x2C PUSH1 0x0 ADD PUSH1 0x10 PUSH2 0x100 EXP DUP2 SLOAD DUP2 PUSH5 0xFFFFFFFFFF MUL NOT AND SWAP1 DUP4 PUSH5 0xFFFFFFFFFF AND MUL OR SWAP1 SSTORE POP PUSH32 0x25D719D88A4512DD76C7442B910A83360845505894EB444EF299409E180F8FB9 DUP3 DUP3 DUP16 DUP16 DUP16 DUP16 DUP16 DUP16 DUP16 DUP16 PUSH1 0x40 MLOAD DUP1 DUP12 PUSH4 0xFFFFFFFF AND DUP2 MSTORE PUSH1 0x20 ADD DUP11 PUSH1 0x1 PUSH1 0x1 PUSH1 0x40 SHL SUB AND DUP2 MSTORE PUSH1 0x20 ADD DUP1 PUSH1 0x20 ADD DUP1 PUSH1 0x20 ADD DUP8 PUSH1 0xFF AND DUP2 MSTORE PUSH1 0x20 ADD DUP7 PUSH1 0x1 PUSH1 0x1 PUSH1 0x40 SHL SUB AND DUP2 MSTORE PUSH1 0x20 ADD DUP1 PUSH1 0x20 ADD DUP5 DUP2 SUB DUP5 MSTORE DUP13 DUP13 DUP3 DUP2 DUP2 MSTORE PUSH1 0x20 ADD SWAP3 POP PUSH1 0x20 MUL DUP1 DUP3 DUP5 CALLDATACOPY PUSH1 0x0 DUP4 DUP3 ADD MSTORE PUSH1 0x1F ADD PUSH1 0x1F NOT AND SWAP1 SWAP2 ADD DUP6 DUP2 SUB DUP5 MSTORE DUP11 DUP2 MSTORE PUSH1 0x20 SWAP1 DUP2 ADD SWAP2 POP DUP12 SWAP1 DUP12 MUL DUP1 DUP3 DUP5 CALLDATACOPY PUSH1 0x0 DUP4 DUP3 ADD MSTORE PUSH1 0x1F ADD PUSH1 0x1F NOT AND SWAP1 SWAP2 ADD DUP6 DUP2 SUB DUP4 MSTORE DUP7 DUP2 MSTORE PUSH1 0x20 ADD SWAP1 POP DUP7 DUP7 DUP1 DUP3 DUP5 CALLDATACOPY PUSH1 0x0 DUP4 DUP3 ADD MSTORE PUSH1 0x40 MLOAD PUSH1 0x1F SWAP1 SWAP2 ADD PUSH1 0x1F NOT AND SWAP1 SWAP3 ADD DUP3 SWAP1 SUB SWAP16 POP SWAP1 SWAP14 POP POP POP POP POP POP POP POP POP POP POP POP POP POP LOG1 POP POP POP POP POP POP POP POP POP POP POP POP POP JUMP JUMPDEST PUSH1 0x2C SLOAD PUSH1 0x1 PUSH1 0xB0 SHL SWAP1 DIV PUSH4 0xFFFFFFFF AND SWAP1 JUMP JUMPDEST PUSH32 0x0 DUP2 JUMP JUMPDEST PUSH1 0x30 SLOAD PUSH1 0x1 PUSH1 0x1 PUSH1 0xA0 SHL SUB AND SWAP1 JUMP JUMPDEST PUSH1 0x31 DUP1 SLOAD PUSH1 0x40 DUP1 MLOAD PUSH1 0x20 PUSH1 0x1F PUSH1 0x2 PUSH1 0x0 NOT PUSH2 0x100 PUSH1 0x1 DUP9 AND ISZERO MUL ADD SWAP1 SWAP6 AND SWAP5 SWAP1 SWAP5 DIV SWAP4 DUP5 ADD DUP2 SWAP1 DIV DUP2 MUL DUP3 ADD DUP2 ADD SWAP1 SWAP3 MSTORE DUP3 DUP2 MSTORE PUSH1 0x60 SWAP4 SWAP1 SWAP3 SWAP1 SWAP2 DUP4 ADD DUP3 DUP3 DUP1 ISZERO PUSH2 0x1832 JUMPI DUP1 PUSH1 0x1F LT PUSH2 0x1807 JUMPI PUSH2 0x100 DUP1 DUP4 SLOAD DIV MUL DUP4 MSTORE SWAP2 PUSH1 0x20 ADD SWAP2 PUSH2 0x1832 JUMP JUMPDEST DUP3 ADD SWAP2 SWAP1 PUSH1 0x0 MSTORE PUSH1 0x20 PUSH1 0x0 KECCAK256 SWAP1 JUMPDEST DUP2 SLOAD DUP2 MSTORE SWAP1 PUSH1 0x1 ADD SWAP1 PUSH1 0x20 ADD DUP1 DUP4 GT PUSH2 0x1815 JUMPI DUP3 SWAP1 SUB PUSH1 0x1F AND DUP3 ADD SWAP2 JUMPDEST POP POP POP POP POP SWAP1 POP SWAP1 JUMP JUMPDEST PUSH1 0x1 SLOAD PUSH1 0x1 PUSH1 0x1 PUSH1 0xA0 SHL SUB AND CALLER EQ PUSH2 0x1894 JUMPI PUSH1 0x40 DUP1 MLOAD PUSH3 0x461BCD PUSH1 0xE5 SHL DUP2 MSTORE PUSH1 0x20 PUSH1 0x4 DUP3 ADD MSTORE PUSH1 0x16 PUSH1 0x24 DUP3 ADD MSTORE PUSH22 0x26BAB9BA10313290383937B837B9B2B21037BBB732B9 PUSH1 0x51 SHL PUSH1 0x44 DUP3 ADD MSTORE SWAP1 MLOAD SWAP1 DUP2 SWAP1 SUB PUSH1 0x64 ADD SWAP1 REVERT JUMPDEST PUSH1 0x0 DUP1 SLOAD CALLER PUSH1 0x1 PUSH1 0x1 PUSH1 0xA0 SHL SUB NOT DUP1 DUP4 AND DUP3 OR DUP5 SSTORE PUSH1 0x1 DUP1 SLOAD SWAP1 SWAP2 AND SWAP1 SSTORE PUSH1 0x40 MLOAD PUSH1 0x1 PUSH1 0x1 PUSH1 0xA0 SHL SUB SWAP1 SWAP3 AND SWAP3 SWAP1 SWAP2 DUP4 SWAP2 PUSH32 0x8BE0079C531659141344CD1FD0A4F28419497F9722A3DAAFE3B4186F6B6457E0 SWAP2 LOG3 POP JUMP JUMPDEST PUSH1 0x60 PUSH1 0x2A DUP1 SLOAD DUP1 PUSH1 0x20 MUL PUSH1 0x20 ADD PUSH1 0x40 MLOAD SWAP1 DUP2 ADD PUSH1 0x40 MSTORE DUP1 SWAP3 SWAP2 SWAP1 DUP2 DUP2 MSTORE PUSH1 0x20 ADD DUP3 DUP1 SLOAD DUP1 ISZERO PUSH2 0x1832 JUMPI PUSH1 0x20 MUL DUP3 ADD SWAP2 SWAP1 PUSH1 0x0 MSTORE PUSH1 0x20 PUSH1 0x0 KECCAK256 SWAP1 JUMPDEST DUP2 SLOAD PUSH1 0x1 PUSH1 0x1 PUSH1 0xA0 SHL SUB AND DUP2 MSTORE PUSH1 0x1 SWAP1 SWAP2 ADD SWAP1 PUSH1 0x20 ADD DUP1 DUP4 GT PUSH2 0x1925 JUMPI POP POP POP POP POP SWAP1 POP SWAP1 JUMP JUMPDEST PUSH1 0x2E SLOAD PUSH1 0x2C SLOAD PUSH4 0xFFFFFFFF DUP1 DUP4 AND SWAP3 PUSH1 0x1 PUSH1 0x20 SHL SWAP1 DIV AND SWAP1 PUSH1 0x80 SHL SWAP1 SWAP2 SWAP3 JUMP JUMPDEST PUSH1 0x2C SLOAD PUSH1 0x1 PUSH1 0xB0 SHL SWAP1 DIV PUSH4 0xFFFFFFFF AND PUSH1 0x0 SWAP1 DUP2 MSTORE PUSH1 0x2D PUSH1 0x20 MSTORE PUSH1 0x40 SWAP1 KECCAK256 SLOAD PUSH1 0x1 PUSH1 0xC0 SHL SWAP1 DIV PUSH1 0x1 PUSH1 0x1 PUSH1 0x40 SHL SUB AND SWAP1 JUMP JUMPDEST PUSH1 0x1 PUSH1 0x1 PUSH1 0xA0 SHL SUB DUP2 DUP2 AND PUSH1 0x0 SWAP1 DUP2 MSTORE PUSH1 0x7 PUSH1 0x20 MSTORE PUSH1 0x40 SWAP1 KECCAK256 SLOAD AND CALLER EQ PUSH2 0x1A0C JUMPI PUSH1 0x40 DUP1 MLOAD PUSH3 0x461BCD PUSH1 0xE5 SHL DUP2 MSTORE PUSH1 0x20 PUSH1 0x4 DUP3 ADD MSTORE PUSH1 0x17 PUSH1 0x24 DUP3 ADD MSTORE PUSH32 0x4F6E6C792070617965652063616E207769746864726177000000000000000000 PUSH1 0x44 DUP3 ADD MSTORE SWAP1 MLOAD SWAP1 DUP2 SWAP1 SUB PUSH1 0x64 ADD SWAP1 REVERT JUMPDEST PUSH2 0x1A15 DUP2 PUSH2 0x3C28 JUMP JUMPDEST POP JUMP JUMPDEST PUSH1 0x0 SLOAD PUSH1 0x1 PUSH1 0x1 PUSH1 0xA0 SHL SUB AND DUP2 JUMP JUMPDEST PUSH1 0x40 DUP1 MLOAD DUP1 DUP3 ADD SWAP1 SWAP2 MSTORE PUSH1 0x2F SLOAD PUSH1 0x1 PUSH1 0x1 PUSH1 0xA0 SHL SUB DUP2 AND DUP1 DUP4 MSTORE PUSH1 0x1 PUSH1 0xA0 SHL SWAP1 SWAP2 DIV PUSH4 0xFFFFFFFF AND PUSH1 0x20 SWAP1 SWAP3 ADD DUP3 SWAP1 MSTORE SWAP2 JUMP JUMPDEST PUSH1 0x0 DUP1 SLOAD PUSH1 0x1 PUSH1 0x1 PUSH1 0xA0 SHL SUB AND CALLER EQ DUP1 PUSH2 0x1B1D JUMPI POP PUSH1 0x30 SLOAD PUSH1 0x40 DUP1 MLOAD PUSH4 0xD629B5F PUSH1 0xE3 SHL DUP2 MSTORE CALLER PUSH1 0x4 DUP3 ADD DUP2 DUP2 MSTORE PUSH1 0x24 DUP4 ADD SWAP4 DUP5 MSTORE CALLDATASIZE PUSH1 0x44 DUP5 ADD DUP2 SWAP1 MSTORE PUSH1 0x1 PUSH1 0x1 PUSH1 0xA0 SHL SUB SWAP1 SWAP6 AND SWAP5 PUSH4 0x6B14DAF8 SWAP5 SWAP3 SWAP4 PUSH1 0x0 SWAP4 SWAP2 SWAP3 SWAP2 SWAP1 PUSH1 0x64 ADD DUP5 DUP5 DUP1 DUP3 DUP5 CALLDATACOPY PUSH1 0x0 DUP4 DUP3 ADD MSTORE PUSH1 0x40 MLOAD PUSH1 0x1F SWAP1 SWAP2 ADD PUSH1 0x1F NOT AND SWAP1 SWAP3 ADD SWAP7 POP PUSH1 0x20 SWAP6 POP SWAP1 SWAP4 POP POP POP DUP2 DUP5 SUB SWAP1 POP DUP2 DUP7 DUP1 EXTCODESIZE ISZERO DUP1 ISZERO PUSH2 0x1AF0 JUMPI PUSH1 0x0 DUP1 REVERT JUMPDEST POP GAS STATICCALL ISZERO DUP1 ISZERO PUSH2 0x1B04 JUMPI RETURNDATASIZE PUSH1 0x0 DUP1 RETURNDATACOPY RETURNDATASIZE PUSH1 0x0 REVERT JUMPDEST POP POP POP POP PUSH1 0x40 MLOAD RETURNDATASIZE PUSH1 0x20 DUP2 LT ISZERO PUSH2 0x1B1A JUMPI PUSH1 0x0 DUP1 REVERT JUMPDEST POP MLOAD JUMPDEST PUSH2 0x1B6E JUMPI PUSH1 0x40 DUP1 MLOAD PUSH3 0x461BCD PUSH1 0xE5 SHL DUP2 MSTORE PUSH1 0x20 PUSH1 0x4 DUP3 ADD MSTORE PUSH1 0x1D PUSH1 0x24 DUP3 ADD MSTORE PUSH32 0x4F6E6C79206F776E6572267265717565737465722063616E2063616C6C000000 PUSH1 0x44 DUP3 ADD MSTORE SWAP1 MLOAD SWAP1 DUP2 SWAP1 SUB PUSH1 0x64 ADD SWAP1 REVERT JUMPDEST PUSH1 0x40 DUP1 MLOAD PUSH1 0x80 DUP1 DUP3 ADD DUP4 MSTORE PUSH1 0x2C SLOAD SWAP1 DUP2 SWAP1 SHL PUSH1 0x1 PUSH1 0x1 PUSH1 0x80 SHL SUB NOT AND DUP1 DUP4 MSTORE PUSH1 0x1 PUSH1 0x80 SHL DUP3 DIV PUSH5 0xFFFFFFFFFF DUP2 AND PUSH1 0x20 DUP1 DUP7 ADD SWAP2 SWAP1 SWAP2 MSTORE PUSH1 0x1 PUSH1 0xA8 SHL DUP5 DIV PUSH1 0xFF SWAP1 DUP2 AND DUP7 DUP9 ADD MSTORE PUSH1 0x1 PUSH1 0xB0 SHL SWAP1 SWAP5 DIV PUSH4 0xFFFFFFFF SWAP1 DUP2 AND PUSH1 0x60 DUP1 DUP9 ADD SWAP2 SWAP1 SWAP2 MSTORE DUP8 MLOAD SWAP5 DUP6 MSTORE PUSH1 0x8 DUP5 SWAP1 SHR SWAP1 SWAP2 AND SWAP2 DUP5 ADD SWAP2 SWAP1 SWAP2 MSTORE SWAP3 AND DUP2 DUP6 ADD MSTORE SWAP3 MLOAD SWAP2 SWAP3 CALLER SWAP3 PUSH32 0x3EA16A923FF4B1DF6526E854C9E3A995C43385D70E73359E10623C74F0B52037 SWAP3 SWAP2 DUP2 SWAP1 SUB SWAP1 SWAP2 ADD SWAP1 LOG2 DUP1 PUSH1 0x60 ADD MLOAD PUSH1 0x1 ADD PUSH4 0xFFFFFFFF AND SWAP2 POP POP SWAP1 JUMP JUMPDEST PUSH1 0x4 SLOAD PUSH1 0x1 PUSH1 0x1 PUSH1 0xA0 SHL SUB AND SWAP1 JUMP JUMPDEST PUSH1 0x0 DUP1 PUSH1 0x0 DUP1 PUSH1 0x0 PUSH4 0xFFFFFFFF DUP7 PUSH1 0x1 PUSH1 0x1 PUSH1 0x50 SHL SUB AND GT ISZERO PUSH1 0x40 MLOAD DUP1 PUSH1 0x40 ADD PUSH1 0x40 MSTORE DUP1 PUSH1 0xF DUP2 MSTORE PUSH1 0x20 ADD PUSH15 0x139BC819185D18481C1C995CD95B9D PUSH1 0x8A SHL DUP2 MSTORE POP SWAP1 PUSH2 0x1D06 JUMPI PUSH1 0x40 MLOAD PUSH3 0x461BCD PUSH1 0xE5 SHL DUP2 MSTORE PUSH1 0x4 ADD DUP1 DUP1 PUSH1 0x20 ADD DUP3 DUP2 SUB DUP3 MSTORE DUP4 DUP2 DUP2 MLOAD DUP2 MSTORE PUSH1 0x20 ADD SWAP2 POP DUP1 MLOAD SWAP1 PUSH1 0x20 ADD SWAP1 DUP1 DUP4 DUP4 PUSH1 0x0 JUMPDEST DUP4 DUP2 LT ISZERO PUSH2 0x1CCB JUMPI DUP2 DUP2 ADD MLOAD DUP4 DUP3 ADD MSTORE PUSH1 0x20 ADD PUSH2 0x1CB3 JUMP JUMPDEST POP POP POP POP SWAP1 POP SWAP1 DUP2 ADD SWAP1 PUSH1 0x1F AND DUP1 ISZERO PUSH2 0x1CF8 JUMPI DUP1 DUP3 SUB DUP1 MLOAD PUSH1 0x1 DUP4 PUSH1 0x20 SUB PUSH2 0x100 EXP SUB NOT AND DUP2 MSTORE PUSH1 0x20 ADD SWAP2 POP JUMPDEST POP SWAP3 POP POP POP PUSH1 0x40 MLOAD DUP1 SWAP2 SUB SWAP1 REVERT JUMPDEST POP POP POP POP PUSH4 0xFFFFFFFF DUP4 AND PUSH1 0x0 SWAP1 DUP2 MSTORE PUSH1 0x2D PUSH1 0x20 SWAP1 DUP2 MSTORE PUSH1 0x40 SWAP2 DUP3 SWAP1 KECCAK256 DUP3 MLOAD DUP1 DUP5 ADD SWAP1 SWAP4 MSTORE SLOAD PUSH1 0x17 DUP2 DUP2 SIGNEXTEND DUP2 SIGNEXTEND DUP2 SIGNEXTEND DUP1 DUP6 MSTORE PUSH1 0x1 PUSH1 0xC0 SHL SWAP1 SWAP3 DIV PUSH1 0x1 PUSH1 0x1 PUSH1 0x40 SHL SUB AND SWAP4 SWAP1 SWAP3 ADD DUP4 SWAP1 MSTORE SWAP5 SWAP6 SWAP5 SWAP1 SIGNEXTEND SWAP4 SWAP1 SWAP3 POP DUP3 SWAP2 POP DUP5 SWAP1 JUMP JUMPDEST PUSH1 0x0 SLOAD PUSH1 0x1 PUSH1 0x1 PUSH1 0xA0 SHL SUB AND CALLER EQ PUSH2 0x1DAD JUMPI PUSH1 0x40 DUP1 MLOAD PUSH3 0x461BCD PUSH1 0xE5 SHL DUP2 MSTORE PUSH1 0x20 PUSH1 0x4 DUP3 ADD MSTORE PUSH1 0x16 PUSH1 0x24 DUP3 ADD MSTORE PUSH1 0x0 DUP1 MLOAD PUSH1 0x20 PUSH2 0x4844 DUP4 CODECOPY DUP2 MLOAD SWAP2 MSTORE PUSH1 0x44 DUP3 ADD MSTORE SWAP1 MLOAD SWAP1 DUP2 SWAP1 SUB PUSH1 0x64 ADD SWAP1 REVERT JUMPDEST DUP3 DUP2 EQ PUSH2 0x1E01 JUMPI PUSH1 0x40 DUP1 MLOAD PUSH3 0x461BCD PUSH1 0xE5 SHL DUP2 MSTORE PUSH1 0x20 PUSH1 0x4 DUP3 ADD DUP2 SWAP1 MSTORE PUSH1 0x24 DUP3 ADD MSTORE PUSH32 0x7472616E736D6974746572732E73697A6520213D207061796565732E73697A65 PUSH1 0x44 DUP3 ADD MSTORE SWAP1 MLOAD SWAP1 DUP2 SWAP1 SUB PUSH1 0x64 ADD SWAP1 REVERT JUMPDEST PUSH1 0x0 JUMPDEST DUP4 DUP2 LT ISZERO PUSH2 0x1F5C JUMPI PUSH1 0x0 DUP6 DUP6 DUP4 DUP2 DUP2 LT PUSH2 0x1E1A JUMPI INVALID JUMPDEST SWAP1 POP PUSH1 0x20 MUL ADD CALLDATALOAD PUSH1 0x1 PUSH1 0x1 PUSH1 0xA0 SHL SUB AND SWAP1 POP PUSH1 0x0 DUP5 DUP5 DUP5 DUP2 DUP2 LT PUSH2 0x1E3A JUMPI INVALID JUMPDEST PUSH1 0x1 PUSH1 0x1 PUSH1 0xA0 SHL SUB DUP6 DUP2 AND PUSH1 0x0 SWAP1 DUP2 MSTORE PUSH1 0x7 PUSH1 0x20 SWAP1 DUP2 MSTORE PUSH1 0x40 SWAP1 SWAP2 KECCAK256 SLOAD SWAP3 MUL SWAP4 SWAP1 SWAP4 ADD CALLDATALOAD DUP4 AND SWAP4 POP SWAP1 SWAP2 AND SWAP1 POP DUP1 ISZERO DUP1 DUP1 PUSH2 0x1E86 JUMPI POP DUP3 PUSH1 0x1 PUSH1 0x1 PUSH1 0xA0 SHL SUB AND DUP3 PUSH1 0x1 PUSH1 0x1 PUSH1 0xA0 SHL SUB AND EQ JUMPDEST PUSH2 0x1ECB JUMPI PUSH1 0x40 DUP1 MLOAD PUSH3 0x461BCD PUSH1 0xE5 SHL DUP2 MSTORE PUSH1 0x20 PUSH1 0x4 DUP3 ADD MSTORE PUSH1 0x11 PUSH1 0x24 DUP3 ADD MSTORE PUSH17 0x1C185E595948185B1C9958591E481CD95D PUSH1 0x7A SHL PUSH1 0x44 DUP3 ADD MSTORE SWAP1 MLOAD SWAP1 DUP2 SWAP1 SUB PUSH1 0x64 ADD SWAP1 REVERT JUMPDEST PUSH1 0x1 PUSH1 0x1 PUSH1 0xA0 SHL SUB DUP5 DUP2 AND PUSH1 0x0 SWAP1 DUP2 MSTORE PUSH1 0x7 PUSH1 0x20 MSTORE PUSH1 0x40 SWAP1 KECCAK256 DUP1 SLOAD PUSH1 0x1 PUSH1 0x1 PUSH1 0xA0 SHL SUB NOT AND DUP6 DUP4 AND SWAP1 DUP2 OR SWAP1 SWAP2 SSTORE SWAP1 DUP4 AND EQ PUSH2 0x1F4C JUMPI DUP3 PUSH1 0x1 PUSH1 0x1 PUSH1 0xA0 SHL SUB AND DUP3 PUSH1 0x1 PUSH1 0x1 PUSH1 0xA0 SHL SUB AND DUP6 PUSH1 0x1 PUSH1 0x1 PUSH1 0xA0 SHL SUB AND PUSH32 0x78AF32EFDCAD432315431E9B03D27E6CD98FB79C405FDC5AF7C1714D9C0F75B3 PUSH1 0x40 MLOAD PUSH1 0x40 MLOAD DUP1 SWAP2 SUB SWAP1 LOG4 JUMPDEST POP POP PUSH1 0x1 SWAP1 SWAP3 ADD SWAP2 POP PUSH2 0x1E04 SWAP1 POP JUMP JUMPDEST POP POP POP POP POP JUMP JUMPDEST PUSH1 0x0 SLOAD PUSH1 0x1 PUSH1 0x1 PUSH1 0xA0 SHL SUB AND CALLER EQ PUSH2 0x1FB0 JUMPI PUSH1 0x40 DUP1 MLOAD PUSH3 0x461BCD PUSH1 0xE5 SHL DUP2 MSTORE PUSH1 0x20 PUSH1 0x4 DUP3 ADD MSTORE PUSH1 0x16 PUSH1 0x24 DUP3 ADD MSTORE PUSH1 0x0 DUP1 MLOAD PUSH1 0x20 PUSH2 0x4844 DUP4 CODECOPY DUP2 MLOAD SWAP2 MSTORE PUSH1 0x44 DUP3 ADD MSTORE SWAP1 MLOAD SWAP1 DUP2 SWAP1 SUB PUSH1 0x64 ADD SWAP1 REVERT JUMPDEST PUSH1 0x30 SLOAD PUSH1 0x1 PUSH1 0x1 PUSH1 0xA0 SHL SUB SWAP1 DUP2 AND SWAP1 DUP3 AND DUP2 EQ PUSH2 0xF90 JUMPI PUSH1 0x30 DUP1 SLOAD PUSH1 0x1 PUSH1 0x1 PUSH1 0xA0 SHL SUB NOT AND PUSH1 0x1 PUSH1 0x1 PUSH1 0xA0 SHL SUB DUP5 DUP2 AND SWAP2 DUP3 OR SWAP1 SWAP3 SSTORE PUSH1 0x40 DUP1 MLOAD SWAP3 DUP5 AND DUP4 MSTORE PUSH1 0x20 DUP4 ADD SWAP2 SWAP1 SWAP2 MSTORE DUP1 MLOAD PUSH32 0x27B89AEDE8B560578BAAA25EE5CE3852C5EECAD1E114B941BBD89E1EB4BAE634 SWAP3 DUP2 SWAP1 SUB SWAP1 SWAP2 ADD SWAP1 LOG1 POP POP JUMP JUMPDEST PUSH1 0x1 PUSH1 0x1 PUSH1 0xA0 SHL SUB DUP2 DUP2 AND PUSH1 0x0 SWAP1 DUP2 MSTORE PUSH1 0x8 PUSH1 0x20 MSTORE PUSH1 0x40 SWAP1 KECCAK256 SLOAD AND CALLER EQ PUSH2 0x2095 JUMPI PUSH1 0x40 DUP1 MLOAD PUSH3 0x461BCD PUSH1 0xE5 SHL DUP2 MSTORE PUSH1 0x20 PUSH1 0x4 DUP3 ADD MSTORE PUSH1 0x1F PUSH1 0x24 DUP3 ADD MSTORE PUSH32 0x6F6E6C792070726F706F736564207061796565732063616E2061636365707400 PUSH1 0x44 DUP3 ADD MSTORE SWAP1 MLOAD SWAP1 DUP2 SWAP1 SUB PUSH1 0x64 ADD SWAP1 REVERT JUMPDEST PUSH1 0x1 PUSH1 0x1 PUSH1 0xA0 SHL SUB DUP2 DUP2 AND PUSH1 0x0 DUP2 DUP2 MSTORE PUSH1 0x7 PUSH1 0x20 SWAP1 DUP2 MSTORE PUSH1 0x40 DUP1 DUP4 KECCAK256 DUP1 SLOAD CALLER PUSH1 0x1 PUSH1 0x1 PUSH1 0xA0 SHL SUB NOT DUP1 DUP4 AND DUP3 OR SWAP1 SWAP4 SSTORE PUSH1 0x8 SWAP1 SWAP5 MSTORE DUP3 DUP6 KECCAK256 DUP1 SLOAD SWAP1 SWAP3 AND SWAP1 SWAP2 SSTORE SWAP1 MLOAD SWAP5 AND SWAP4 SWAP1 SWAP3 DUP5 SWAP3 SWAP1 SWAP2 PUSH32 0x78AF32EFDCAD432315431E9B03D27E6CD98FB79C405FDC5AF7C1714D9C0F75B3 SWAP2 SWAP1 LOG4 POP POP JUMP JUMPDEST PUSH1 0x2B DUP1 SLOAD PUSH1 0x1 PUSH1 0x1 PUSH1 0xA0 SHL SUB NOT AND PUSH1 0x1 PUSH1 0x1 PUSH1 0xA0 SHL SUB SWAP3 SWAP1 SWAP3 AND SWAP2 SWAP1 SWAP2 OR SWAP1 SSTORE JUMP JUMPDEST PUSH1 0x0 PUSH4 0xFFFFFFFF DUP3 GT ISZERO PUSH2 0x2140 JUMPI POP PUSH1 0x0 PUSH2 0xC27 JUMP JUMPDEST POP PUSH4 0xFFFFFFFF AND PUSH1 0x0 SWAP1 DUP2 MSTORE PUSH1 0x2D PUSH1 0x20 MSTORE PUSH1 0x40 SWAP1 KECCAK256 SLOAD PUSH1 0x17 SWAP1 DUP2 SIGNEXTEND SWAP1 SIGNEXTEND SWAP1 JUMP JUMPDEST PUSH1 0x0 PUSH4 0xFFFFFFFF DUP3 GT ISZERO PUSH2 0x2176 JUMPI POP PUSH1 0x0 PUSH2 0xC27 JUMP JUMPDEST POP PUSH4 0xFFFFFFFF AND PUSH1 0x0 SWAP1 DUP2 MSTORE PUSH1 0x2D PUSH1 0x20 MSTORE PUSH1 0x40 SWAP1 KECCAK256 SLOAD PUSH1 0x1 PUSH1 0xC0 SHL SWAP1 DIV PUSH1 0x1 PUSH1 0x1 PUSH1 0x40 SHL SUB AND SWAP1 JUMP JUMPDEST PUSH1 0x4 SLOAD PUSH1 0x0 SLOAD PUSH1 0x1 PUSH1 0x1 PUSH1 0xA0 SHL SUB SWAP2 DUP3 AND SWAP2 AND CALLER EQ DUP1 PUSH2 0x2260 JUMPI POP PUSH1 0x40 DUP1 MLOAD PUSH4 0xD629B5F PUSH1 0xE3 SHL DUP2 MSTORE CALLER PUSH1 0x4 DUP3 ADD DUP2 DUP2 MSTORE PUSH1 0x24 DUP4 ADD SWAP4 DUP5 MSTORE CALLDATASIZE PUSH1 0x44 DUP5 ADD DUP2 SWAP1 MSTORE PUSH1 0x1 PUSH1 0x1 PUSH1 0xA0 SHL SUB DUP7 AND SWAP5 PUSH4 0x6B14DAF8 SWAP5 PUSH1 0x0 SWAP4 SWAP2 SWAP1 PUSH1 0x64 ADD DUP5 DUP5 DUP1 DUP3 DUP5 CALLDATACOPY PUSH1 0x0 DUP4 DUP3 ADD MSTORE PUSH1 0x40 MLOAD PUSH1 0x1F SWAP1 SWAP2 ADD PUSH1 0x1F NOT AND SWAP1 SWAP3 ADD SWAP7 POP PUSH1 0x20 SWAP6 POP SWAP1 SWAP4 POP POP POP DUP2 DUP5 SUB SWAP1 POP DUP2 DUP7 DUP1 EXTCODESIZE ISZERO DUP1 ISZERO PUSH2 0x2233 JUMPI PUSH1 0x0 DUP1 REVERT JUMPDEST POP GAS STATICCALL ISZERO DUP1 ISZERO PUSH2 0x2247 JUMPI RETURNDATASIZE PUSH1 0x0 DUP1 RETURNDATACOPY RETURNDATASIZE PUSH1 0x0 REVERT JUMPDEST POP POP POP POP PUSH1 0x40 MLOAD RETURNDATASIZE PUSH1 0x20 DUP2 LT ISZERO PUSH2 0x225D JUMPI PUSH1 0x0 DUP1 REVERT JUMPDEST POP MLOAD JUMPDEST PUSH2 0x22B1 JUMPI PUSH1 0x40 DUP1 MLOAD PUSH3 0x461BCD PUSH1 0xE5 SHL DUP2 MSTORE PUSH1 0x20 PUSH1 0x4 DUP3 ADD DUP2 SWAP1 MSTORE PUSH1 0x24 DUP3 ADD MSTORE PUSH32 0x4F6E6C79206F776E65722662696C6C696E6741646D696E2063616E2063616C6C PUSH1 0x44 DUP3 ADD MSTORE SWAP1 MLOAD SWAP1 DUP2 SWAP1 SUB PUSH1 0x64 ADD SWAP1 REVERT JUMPDEST PUSH2 0x22B9 PUSH2 0x389F JUMP JUMPDEST PUSH2 0x22C6 DUP7 DUP7 DUP7 DUP7 DUP7 PUSH2 0x3F12 JUMP JUMPDEST POP POP POP POP POP POP JUMP JUMPDEST PUSH1 0x0 SLOAD PUSH1 0x1 PUSH1 0x1 PUSH1 0xA0 SHL SUB AND CALLER EQ DUP1 PUSH2 0x238F JUMPI POP PUSH1 0x4 DUP1 SLOAD PUSH1 0x40 DUP1 MLOAD PUSH4 0xD629B5F PUSH1 0xE3 SHL DUP2 MSTORE CALLER SWAP4 DUP2 ADD DUP5 DUP2 MSTORE PUSH1 0x24 DUP3 ADD SWAP3 DUP4 MSTORE CALLDATASIZE PUSH1 0x44 DUP4 ADD DUP2 SWAP1 MSTORE PUSH1 0x1 PUSH1 0x1 PUSH1 0xA0 SHL SUB SWAP1 SWAP5 AND SWAP5 PUSH4 0x6B14DAF8 SWAP5 SWAP1 SWAP4 PUSH1 0x0 SWAP4 SWAP2 SWAP3 SWAP2 PUSH1 0x64 ADD DUP5 DUP5 DUP1 DUP3 DUP5 CALLDATACOPY PUSH1 0x0 DUP4 DUP3 ADD MSTORE PUSH1 0x40 MLOAD PUSH1 0x1F SWAP1 SWAP2 ADD PUSH1 0x1F NOT AND SWAP1 SWAP3 ADD SWAP7 POP PUSH1 0x20 SWAP6 POP SWAP1 SWAP4 POP POP POP DUP2 DUP5 SUB SWAP1 POP DUP2 DUP7 DUP1 EXTCODESIZE ISZERO DUP1 ISZERO PUSH2 0x2362 JUMPI PUSH1 0x0 DUP1 REVERT JUMPDEST POP GAS STATICCALL ISZERO DUP1 ISZERO PUSH2 0x2376 JUMPI RETURNDATASIZE PUSH1 0x0 DUP1 RETURNDATACOPY RETURNDATASIZE PUSH1 0x0 REVERT JUMPDEST POP POP POP POP PUSH1 0x40 MLOAD RETURNDATASIZE PUSH1 0x20 DUP2 LT ISZERO PUSH2 0x238C JUMPI PUSH1 0x0 DUP1 REVERT JUMPDEST POP MLOAD JUMPDEST PUSH2 0x23E0 JUMPI PUSH1 0x40 DUP1 MLOAD PUSH3 0x461BCD PUSH1 0xE5 SHL DUP2 MSTORE PUSH1 0x20 PUSH1 0x4 DUP3 ADD DUP2 SWAP1 MSTORE PUSH1 0x24 DUP3 ADD MSTORE PUSH32 0x4F6E6C79206F776E65722662696C6C696E6741646D696E2063616E2063616C6C PUSH1 0x44 DUP3 ADD MSTORE SWAP1 MLOAD SWAP1 DUP2 SWAP1 SUB PUSH1 0x64 ADD SWAP1 REVERT JUMPDEST PUSH1 0x0 PUSH2 0x23EA PUSH2 0x3FFB JUMP JUMPDEST PUSH1 0x3 SLOAD PUSH1 0x40 DUP1 MLOAD PUSH4 0x70A08231 PUSH1 0xE0 SHL DUP2 MSTORE ADDRESS PUSH1 0x4 DUP3 ADD MSTORE SWAP1 MLOAD SWAP3 SWAP4 POP PUSH1 0x0 SWAP3 PUSH1 0x1 PUSH1 0x1 PUSH1 0xA0 SHL SUB SWAP1 SWAP3 AND SWAP2 PUSH4 0x70A08231 SWAP2 PUSH1 0x24 DUP1 DUP3 ADD SWAP3 PUSH1 0x20 SWAP3 SWAP1 SWAP2 SWAP1 DUP3 SWAP1 SUB ADD DUP2 DUP7 DUP1 EXTCODESIZE ISZERO DUP1 ISZERO PUSH2 0x243B JUMPI PUSH1 0x0 DUP1 REVERT JUMPDEST POP GAS STATICCALL ISZERO DUP1 ISZERO PUSH2 0x244F JUMPI RETURNDATASIZE PUSH1 0x0 DUP1 RETURNDATACOPY RETURNDATASIZE PUSH1 0x0 REVERT JUMPDEST POP POP POP POP PUSH1 0x40 MLOAD RETURNDATASIZE PUSH1 0x20 DUP2 LT ISZERO PUSH2 0x2465 JUMPI PUSH1 0x0 DUP1 REVERT JUMPDEST POP MLOAD SWAP1 POP DUP2 DUP2 LT ISZERO PUSH2 0x24B5 JUMPI PUSH1 0x40 DUP1 MLOAD PUSH3 0x461BCD PUSH1 0xE5 SHL DUP2 MSTORE PUSH1 0x20 PUSH1 0x4 DUP3 ADD MSTORE PUSH1 0x14 PUSH1 0x24 DUP3 ADD MSTORE PUSH20 0x696E73756666696369656E742062616C616E6365 PUSH1 0x60 SHL PUSH1 0x44 DUP3 ADD MSTORE SWAP1 MLOAD SWAP1 DUP2 SWAP1 SUB PUSH1 0x64 ADD SWAP1 REVERT JUMPDEST PUSH1 0x3 SLOAD PUSH1 0x1 PUSH1 0x1 PUSH1 0xA0 SHL SUB AND PUSH4 0xA9059CBB DUP6 PUSH2 0x24D3 DUP6 DUP6 SUB DUP8 PUSH2 0x41AF JUMP JUMPDEST PUSH1 0x40 MLOAD DUP4 PUSH4 0xFFFFFFFF AND PUSH1 0xE0 SHL DUP2 MSTORE PUSH1 0x4 ADD DUP1 DUP4 PUSH1 0x1 PUSH1 0x1 PUSH1 0xA0 SHL SUB AND DUP2 MSTORE PUSH1 0x20 ADD DUP3 DUP2 MSTORE PUSH1 0x20 ADD SWAP3 POP POP POP PUSH1 0x20 PUSH1 0x40 MLOAD DUP1 DUP4 SUB DUP2 PUSH1 0x0 DUP8 DUP1 EXTCODESIZE ISZERO DUP1 ISZERO PUSH2 0x2519 JUMPI PUSH1 0x0 DUP1 REVERT JUMPDEST POP GAS CALL ISZERO DUP1 ISZERO PUSH2 0x252D JUMPI RETURNDATASIZE PUSH1 0x0 DUP1 RETURNDATACOPY RETURNDATASIZE PUSH1 0x0 REVERT JUMPDEST POP POP POP POP PUSH1 0x40 MLOAD RETURNDATASIZE PUSH1 0x20 DUP2 LT ISZERO PUSH2 0x2543 JUMPI PUSH1 0x0 DUP1 REVERT JUMPDEST POP MLOAD PUSH2 0x258B JUMPI PUSH1 0x40 DUP1 MLOAD PUSH3 0x461BCD PUSH1 0xE5 SHL DUP2 MSTORE PUSH1 0x20 PUSH1 0x4 DUP3 ADD MSTORE PUSH1 0x12 PUSH1 0x24 DUP3 ADD MSTORE PUSH18 0x696E73756666696369656E742066756E6473 PUSH1 0x70 SHL PUSH1 0x44 DUP3 ADD MSTORE SWAP1 MLOAD SWAP1 DUP2 SWAP1 SUB PUSH1 0x64 ADD SWAP1 REVERT JUMPDEST POP POP POP POP JUMP JUMPDEST PUSH1 0x0 GAS SWAP1 POP PUSH2 0x25A4 DUP9 DUP9 DUP9 DUP9 DUP9 DUP9 PUSH2 0x41C9 JUMP JUMPDEST CALLDATASIZE EQ PUSH2 0x25F7 JUMPI PUSH1 0x40 DUP1 MLOAD PUSH3 0x461BCD PUSH1 0xE5 SHL DUP2 MSTORE PUSH1 0x20 PUSH1 0x4 DUP3 ADD MSTORE PUSH1 0x19 PUSH1 0x24 DUP3 ADD MSTORE PUSH32 0x7472616E736D6974206D65737361676520746F6F206C6F6E6700000000000000 PUSH1 0x44 DUP3 ADD MSTORE SWAP1 MLOAD SWAP1 DUP2 SWAP1 SUB PUSH1 0x64 ADD SWAP1 REVERT JUMPDEST PUSH2 0x25FF PUSH2 0x46B5 JUMP JUMPDEST PUSH1 0x40 DUP1 MLOAD PUSH1 0x80 DUP1 DUP3 ADD DUP4 MSTORE PUSH1 0x2C SLOAD SWAP1 DUP2 SWAP1 SHL PUSH1 0x1 PUSH1 0x1 PUSH1 0x80 SHL SUB NOT AND DUP3 MSTORE PUSH1 0x1 PUSH1 0x80 SHL DUP2 DIV PUSH5 0xFFFFFFFFFF AND PUSH1 0x20 DUP4 ADD MSTORE PUSH1 0x1 PUSH1 0xA8 SHL DUP2 DIV PUSH1 0xFF AND SWAP3 DUP3 ADD SWAP3 SWAP1 SWAP3 MSTORE PUSH1 0x1 PUSH1 0xB0 SHL SWAP1 SWAP2 DIV PUSH4 0xFFFFFFFF AND PUSH1 0x60 DUP1 DUP4 ADD SWAP2 SWAP1 SWAP2 MSTORE SWAP1 DUP3 MSTORE PUSH1 0x0 SWAP1 DUP11 SWAP1 DUP11 SWAP1 DUP2 LT ISZERO PUSH2 0x266E JUMPI PUSH1 0x0 DUP1 REVERT JUMPDEST DUP2 CALLDATALOAD SWAP2 PUSH1 0x20 DUP2 ADD CALLDATALOAD SWAP2 DUP2 ADD SWAP1 PUSH1 0x60 DUP2 ADD PUSH1 0x40 DUP3 ADD CALLDATALOAD PUSH1 0x1 PUSH1 0x20 SHL DUP2 GT ISZERO PUSH2 0x2694 JUMPI PUSH1 0x0 DUP1 REVERT JUMPDEST DUP3 ADD DUP4 PUSH1 0x20 DUP3 ADD GT ISZERO PUSH2 0x26A6 JUMPI PUSH1 0x0 DUP1 REVERT JUMPDEST DUP1 CALLDATALOAD SWAP1 PUSH1 0x20 ADD SWAP2 DUP5 PUSH1 0x20 DUP4 MUL DUP5 ADD GT PUSH1 0x1 PUSH1 0x20 SHL DUP4 GT OR ISZERO PUSH2 0x26C7 JUMPI PUSH1 0x0 DUP1 REVERT JUMPDEST SWAP2 SWAP1 DUP1 DUP1 PUSH1 0x20 MUL PUSH1 0x20 ADD PUSH1 0x40 MLOAD SWAP1 DUP2 ADD PUSH1 0x40 MSTORE DUP1 SWAP4 SWAP3 SWAP2 SWAP1 DUP2 DUP2 MSTORE PUSH1 0x20 ADD DUP4 DUP4 PUSH1 0x20 MUL DUP1 DUP3 DUP5 CALLDATACOPY PUSH1 0x0 SWAP3 ADD SWAP2 SWAP1 SWAP2 MSTORE POP POP POP POP PUSH1 0x40 DUP9 ADD MSTORE POP POP POP PUSH1 0x80 DUP5 ADD DUP3 SWAP1 MSTORE DUP4 MLOAD MLOAD SWAP1 SWAP3 POP PUSH1 0x58 SWAP2 SWAP1 SWAP2 SHL SWAP1 PUSH1 0x1 PUSH1 0x1 PUSH1 0x80 SHL SUB NOT DUP1 DUP4 AND SWAP2 AND EQ PUSH2 0x276E JUMPI PUSH1 0x40 DUP1 MLOAD PUSH3 0x461BCD PUSH1 0xE5 SHL DUP2 MSTORE PUSH1 0x20 PUSH1 0x4 DUP3 ADD MSTORE PUSH1 0x15 PUSH1 0x24 DUP3 ADD MSTORE PUSH21 0xC6DEDCCCD2CE88D2CECAE6E840DAD2E6DAC2E8C6D PUSH1 0x5B SHL PUSH1 0x44 DUP3 ADD MSTORE SWAP1 MLOAD SWAP1 DUP2 SWAP1 SUB PUSH1 0x64 ADD SWAP1 REVERT JUMPDEST PUSH1 0x80 DUP4 ADD MLOAD DUP4 MLOAD PUSH1 0x20 ADD MLOAD PUSH5 0xFFFFFFFFFF DUP1 DUP4 AND SWAP2 AND LT PUSH2 0x27C5 JUMPI PUSH1 0x40 DUP1 MLOAD PUSH3 0x461BCD PUSH1 0xE5 SHL DUP2 MSTORE PUSH1 0x20 PUSH1 0x4 DUP3 ADD MSTORE PUSH1 0xC PUSH1 0x24 DUP3 ADD MSTORE PUSH12 0x1CDD185B19481C995C1BDC9D PUSH1 0xA2 SHL PUSH1 0x44 DUP3 ADD MSTORE SWAP1 MLOAD SWAP1 DUP2 SWAP1 SUB PUSH1 0x64 ADD SWAP1 REVERT JUMPDEST DUP4 MLOAD PUSH1 0x40 ADD MLOAD PUSH1 0xFF AND DUP10 GT PUSH2 0x2819 JUMPI PUSH1 0x40 DUP1 MLOAD PUSH3 0x461BCD PUSH1 0xE5 SHL DUP2 MSTORE PUSH1 0x20 PUSH1 0x4 DUP3 ADD MSTORE PUSH1 0x15 PUSH1 0x24 DUP3 ADD MSTORE PUSH21 0x6E6F7420656E6F756768207369676E617475726573 PUSH1 0x58 SHL PUSH1 0x44 DUP3 ADD MSTORE SWAP1 MLOAD SWAP1 DUP2 SWAP1 SUB PUSH1 0x64 ADD SWAP1 REVERT JUMPDEST PUSH1 0x1F DUP10 GT ISZERO PUSH2 0x2865 JUMPI PUSH1 0x40 DUP1 MLOAD PUSH3 0x461BCD PUSH1 0xE5 SHL DUP2 MSTORE PUSH1 0x20 PUSH1 0x4 DUP3 ADD MSTORE PUSH1 0x13 PUSH1 0x24 DUP3 ADD MSTORE PUSH19 0x746F6F206D616E79207369676E617475726573 PUSH1 0x68 SHL PUSH1 0x44 DUP3 ADD MSTORE SWAP1 MLOAD SWAP1 DUP2 SWAP1 SUB PUSH1 0x64 ADD SWAP1 REVERT JUMPDEST DUP7 DUP10 EQ PUSH2 0x28B9 JUMPI PUSH1 0x40 DUP1 MLOAD PUSH3 0x461BCD PUSH1 0xE5 SHL DUP2 MSTORE PUSH1 0x20 PUSH1 0x4 DUP3 ADD MSTORE PUSH1 0x1E PUSH1 0x24 DUP3 ADD MSTORE PUSH32 0x7369676E617475726573206F7574206F6620726567697374726174696F6E0000 PUSH1 0x44 DUP3 ADD MSTORE SWAP1 MLOAD SWAP1 DUP2 SWAP1 SUB PUSH1 0x64 ADD SWAP1 REVERT JUMPDEST PUSH1 0x1F DUP5 PUSH1 0x40 ADD MLOAD MLOAD GT ISZERO PUSH2 0x2914 JUMPI PUSH1 0x40 DUP1 MLOAD PUSH3 0x461BCD PUSH1 0xE5 SHL DUP2 MSTORE PUSH1 0x20 PUSH1 0x4 DUP3 ADD MSTORE PUSH1 0x1E PUSH1 0x24 DUP3 ADD MSTORE PUSH32 0x6E756D206F62736572766174696F6E73206F7574206F6620626F756E64730000 PUSH1 0x44 DUP3 ADD MSTORE SWAP1 MLOAD SWAP1 DUP2 SWAP1 SUB PUSH1 0x64 ADD SWAP1 REVERT JUMPDEST DUP4 PUSH1 0x0 ADD MLOAD PUSH1 0x40 ADD MLOAD PUSH1 0x2 MUL PUSH1 0xFF AND DUP5 PUSH1 0x40 ADD MLOAD MLOAD GT PUSH2 0x297B JUMPI PUSH1 0x40 DUP1 MLOAD PUSH3 0x461BCD PUSH1 0xE5 SHL DUP2 MSTORE PUSH1 0x20 PUSH1 0x4 DUP3 ADD MSTORE PUSH1 0x1E PUSH1 0x24 DUP3 ADD MSTORE PUSH32 0x746F6F206665772076616C75657320746F207472757374206D656469616E0000 PUSH1 0x44 DUP3 ADD MSTORE SWAP1 MLOAD SWAP1 DUP2 SWAP1 SUB PUSH1 0x64 ADD SWAP1 REVERT JUMPDEST DUP9 PUSH1 0x1 PUSH1 0x1 PUSH1 0x40 SHL SUB DUP2 GT DUP1 ISZERO PUSH2 0x2991 JUMPI PUSH1 0x0 DUP1 REVERT JUMPDEST POP PUSH1 0x40 MLOAD SWAP1 DUP1 DUP3 MSTORE DUP1 PUSH1 0x1F ADD PUSH1 0x1F NOT AND PUSH1 0x20 ADD DUP3 ADD PUSH1 0x40 MSTORE DUP1 ISZERO PUSH2 0x29BC JUMPI PUSH1 0x20 DUP3 ADD DUP2 DUP1 CALLDATASIZE DUP4 CALLDATACOPY ADD SWAP1 POP JUMPDEST POP PUSH1 0x60 DUP6 ADD MSTORE PUSH1 0x0 JUMPDEST PUSH1 0xFF DUP2 AND DUP11 GT ISZERO PUSH2 0x2A15 JUMPI DUP7 DUP2 PUSH1 0xFF AND PUSH1 0x20 DUP2 LT PUSH2 0x29DF JUMPI INVALID JUMPDEST BYTE PUSH1 0xF8 SHL DUP6 PUSH1 0x60 ADD MLOAD DUP3 PUSH1 0xFF AND DUP2 MLOAD DUP2 LT PUSH2 0x29F6 JUMPI INVALID JUMPDEST PUSH1 0x20 ADD ADD SWAP1 PUSH1 0x1 PUSH1 0x1 PUSH1 0xF8 SHL SUB NOT AND SWAP1 DUP2 PUSH1 0x0 BYTE SWAP1 MSTORE8 POP PUSH1 0x1 ADD PUSH2 0x29C5 JUMP JUMPDEST POP DUP4 PUSH1 0x40 ADD MLOAD MLOAD PUSH1 0x1 PUSH1 0x1 PUSH1 0x40 SHL SUB DUP2 GT DUP1 ISZERO PUSH2 0x2A31 JUMPI PUSH1 0x0 DUP1 REVERT JUMPDEST POP PUSH1 0x40 MLOAD SWAP1 DUP1 DUP3 MSTORE DUP1 PUSH1 0x1F ADD PUSH1 0x1F NOT AND PUSH1 0x20 ADD DUP3 ADD PUSH1 0x40 MSTORE DUP1 ISZERO PUSH2 0x2A5C JUMPI PUSH1 0x20 DUP3 ADD DUP2 DUP1 CALLDATASIZE DUP4 CALLDATACOPY ADD SWAP1 POP JUMPDEST POP PUSH1 0x20 DUP6 ADD MSTORE PUSH2 0x2A6A PUSH2 0x46E9 JUMP JUMPDEST PUSH1 0x0 JUMPDEST DUP6 PUSH1 0x40 ADD MLOAD MLOAD DUP2 PUSH1 0xFF AND LT ISZERO PUSH2 0x2B58 JUMPI PUSH1 0x0 DUP6 DUP3 PUSH1 0xFF AND PUSH1 0x20 DUP2 LT PUSH2 0x2A8E JUMPI INVALID JUMPDEST BYTE SWAP1 POP DUP3 DUP2 PUSH1 0x1F DUP2 LT PUSH2 0x2A9D JUMPI INVALID JUMPDEST PUSH1 0x20 MUL ADD MLOAD ISZERO PUSH2 0x2AF4 JUMPI PUSH1 0x40 DUP1 MLOAD PUSH3 0x461BCD PUSH1 0xE5 SHL DUP2 MSTORE PUSH1 0x20 PUSH1 0x4 DUP3 ADD MSTORE PUSH1 0x17 PUSH1 0x24 DUP3 ADD MSTORE PUSH32 0x6F6273657276657220696E646578207265706561746564000000000000000000 PUSH1 0x44 DUP3 ADD MSTORE SWAP1 MLOAD SWAP1 DUP2 SWAP1 SUB PUSH1 0x64 ADD SWAP1 REVERT JUMPDEST PUSH1 0x1 DUP4 DUP3 PUSH1 0xFF AND PUSH1 0x1F DUP2 LT PUSH2 0x2B05 JUMPI INVALID JUMPDEST SWAP2 ISZERO ISZERO PUSH1 0x20 SWAP3 DUP4 MUL SWAP2 SWAP1 SWAP2 ADD MSTORE DUP7 SWAP1 PUSH1 0xFF DUP5 AND SWAP1 DUP2 LT PUSH2 0x2B21 JUMPI INVALID JUMPDEST BYTE PUSH1 0xF8 SHL DUP8 PUSH1 0x20 ADD MLOAD DUP4 PUSH1 0xFF AND DUP2 MLOAD DUP2 LT PUSH2 0x2B38 JUMPI INVALID JUMPDEST PUSH1 0x20 ADD ADD SWAP1 PUSH1 0x1 PUSH1 0x1 PUSH1 0xF8 SHL SUB NOT AND SWAP1 DUP2 PUSH1 0x0 BYTE SWAP1 MSTORE8 POP POP PUSH1 0x1 ADD PUSH2 0x2A6D JUMP JUMPDEST POP CALLER PUSH1 0x0 SWAP1 DUP2 MSTORE PUSH1 0x28 PUSH1 0x20 SWAP1 DUP2 MSTORE PUSH1 0x40 DUP1 DUP4 KECCAK256 DUP2 MLOAD DUP1 DUP4 ADD SWAP1 SWAP3 MSTORE DUP1 SLOAD PUSH1 0xFF DUP1 DUP3 AND DUP5 MSTORE SWAP3 SWAP4 SWAP2 SWAP3 SWAP2 DUP5 ADD SWAP2 PUSH2 0x100 SWAP1 SWAP2 DIV AND PUSH1 0x2 DUP2 GT ISZERO PUSH2 0x2B96 JUMPI INVALID JUMPDEST PUSH1 0x2 DUP2 GT ISZERO PUSH2 0x2BA1 JUMPI INVALID JUMPDEST SWAP1 MSTORE POP SWAP1 POP PUSH1 0x2 DUP2 PUSH1 0x20 ADD MLOAD PUSH1 0x2 DUP2 GT ISZERO PUSH2 0x2BB8 JUMPI INVALID JUMPDEST EQ DUP1 ISZERO PUSH2 0x2BEC JUMPI POP PUSH1 0x2A DUP2 PUSH1 0x0 ADD MLOAD PUSH1 0xFF AND DUP2 SLOAD DUP2 LT PUSH2 0x2BD4 JUMPI INVALID JUMPDEST PUSH1 0x0 SWAP2 DUP3 MSTORE PUSH1 0x20 SWAP1 SWAP2 KECCAK256 ADD SLOAD PUSH1 0x1 PUSH1 0x1 PUSH1 0xA0 SHL SUB AND CALLER EQ JUMPDEST PUSH2 0x2C3D JUMPI PUSH1 0x40 DUP1 MLOAD PUSH3 0x461BCD PUSH1 0xE5 SHL DUP2 MSTORE PUSH1 0x20 PUSH1 0x4 DUP3 ADD MSTORE PUSH1 0x18 PUSH1 0x24 DUP3 ADD MSTORE PUSH32 0x756E617574686F72697A6564207472616E736D69747465720000000000000000 PUSH1 0x44 DUP3 ADD MSTORE SWAP1 MLOAD SWAP1 DUP2 SWAP1 SUB PUSH1 0x64 ADD SWAP1 REVERT JUMPDEST POP POP DUP4 MLOAD PUSH5 0xFFFFFFFFFF SWAP1 SWAP2 AND PUSH1 0x20 SWAP1 SWAP2 ADD MSTORE POP POP PUSH1 0x40 MLOAD PUSH1 0x0 SWAP1 DUP11 SWAP1 DUP11 SWAP1 DUP1 DUP4 DUP4 DUP1 DUP3 DUP5 CALLDATACOPY PUSH1 0x40 MLOAD SWAP3 ADD DUP3 SWAP1 SUB SWAP1 SWAP2 KECCAK256 SWAP5 POP PUSH2 0x2C7E SWAP4 POP PUSH2 0x46E9 SWAP3 POP POP POP JUMP JUMPDEST PUSH2 0x2C86 PUSH2 0x4708 JUMP JUMPDEST PUSH1 0x0 JUMPDEST DUP10 DUP2 LT ISZERO PUSH2 0x2E76 JUMPI PUSH1 0x0 PUSH1 0x1 DUP6 DUP8 PUSH1 0x60 ADD MLOAD DUP5 DUP2 MLOAD DUP2 LT PUSH2 0x2CA6 JUMPI INVALID JUMPDEST PUSH1 0x20 SWAP2 ADD ADD MLOAD PUSH1 0xF8 SHR PUSH1 0x1B ADD DUP15 DUP15 DUP7 DUP2 DUP2 LT PUSH2 0x2CBE JUMPI INVALID JUMPDEST SWAP1 POP PUSH1 0x20 MUL ADD CALLDATALOAD DUP14 DUP14 DUP8 DUP2 DUP2 LT PUSH2 0x2CD1 JUMPI INVALID JUMPDEST SWAP1 POP PUSH1 0x20 MUL ADD CALLDATALOAD PUSH1 0x40 MLOAD PUSH1 0x0 DUP2 MSTORE PUSH1 0x20 ADD PUSH1 0x40 MSTORE PUSH1 0x40 MLOAD DUP1 DUP6 DUP2 MSTORE PUSH1 0x20 ADD DUP5 PUSH1 0xFF AND DUP2 MSTORE PUSH1 0x20 ADD DUP4 DUP2 MSTORE PUSH1 0x20 ADD DUP3 DUP2 MSTORE PUSH1 0x20 ADD SWAP5 POP POP POP POP POP PUSH1 0x20 PUSH1 0x40 MLOAD PUSH1 0x20 DUP2 SUB SWAP1 DUP1 DUP5 SUB SWAP1 DUP6 GAS STATICCALL ISZERO DUP1 ISZERO PUSH2 0x2D2C JUMPI RETURNDATASIZE PUSH1 0x0 DUP1 RETURNDATACOPY RETURNDATASIZE PUSH1 0x0 REVERT JUMPDEST POP POP PUSH1 0x40 DUP1 MLOAD PUSH1 0x1F NOT DUP2 ADD MLOAD PUSH1 0x1 PUSH1 0x1 PUSH1 0xA0 SHL SUB DUP2 AND PUSH1 0x0 SWAP1 DUP2 MSTORE PUSH1 0x28 PUSH1 0x20 SWAP1 DUP2 MSTORE SWAP1 DUP5 SWAP1 KECCAK256 DUP4 DUP6 ADD SWAP1 SWAP5 MSTORE DUP4 SLOAD PUSH1 0xFF DUP1 DUP3 AND DUP6 MSTORE SWAP3 SWAP7 POP SWAP3 SWAP5 POP DUP5 ADD SWAP2 PUSH2 0x100 SWAP1 DIV AND PUSH1 0x2 DUP2 GT ISZERO PUSH2 0x2D7B JUMPI INVALID JUMPDEST PUSH1 0x2 DUP2 GT ISZERO PUSH2 0x2D86 JUMPI INVALID JUMPDEST SWAP1 MSTORE POP SWAP3 POP PUSH1 0x1 DUP4 PUSH1 0x20 ADD MLOAD PUSH1 0x2 DUP2 GT ISZERO PUSH2 0x2D9D JUMPI INVALID JUMPDEST EQ PUSH2 0x2DEF JUMPI PUSH1 0x40 DUP1 MLOAD PUSH3 0x461BCD PUSH1 0xE5 SHL DUP2 MSTORE PUSH1 0x20 PUSH1 0x4 DUP3 ADD MSTORE PUSH1 0x1E PUSH1 0x24 DUP3 ADD MSTORE PUSH32 0x61646472657373206E6F7420617574686F72697A656420746F207369676E0000 PUSH1 0x44 DUP3 ADD MSTORE SWAP1 MLOAD SWAP1 DUP2 SWAP1 SUB PUSH1 0x64 ADD SWAP1 REVERT JUMPDEST DUP3 MLOAD DUP5 SWAP1 PUSH1 0xFF AND PUSH1 0x1F DUP2 LT PUSH2 0x2E00 JUMPI INVALID JUMPDEST PUSH1 0x20 MUL ADD MLOAD ISZERO PUSH2 0x2E4E JUMPI PUSH1 0x40 DUP1 MLOAD PUSH3 0x461BCD PUSH1 0xE5 SHL DUP2 MSTORE PUSH1 0x20 PUSH1 0x4 DUP3 ADD MSTORE PUSH1 0x14 PUSH1 0x24 DUP3 ADD MSTORE PUSH20 0x6E6F6E2D756E69717565207369676E6174757265 PUSH1 0x60 SHL PUSH1 0x44 DUP3 ADD MSTORE SWAP1 MLOAD SWAP1 DUP2 SWAP1 SUB PUSH1 0x64 ADD SWAP1 REVERT JUMPDEST PUSH1 0x1 DUP5 DUP5 PUSH1 0x0 ADD MLOAD PUSH1 0xFF AND PUSH1 0x1F DUP2 LT PUSH2 0x2E63 JUMPI INVALID JUMPDEST SWAP2 ISZERO ISZERO PUSH1 0x20 SWAP1 SWAP3 MUL ADD MSTORE POP PUSH1 0x1 ADD PUSH2 0x2C89 JUMP JUMPDEST POP POP POP POP PUSH1 0x0 JUMPDEST PUSH1 0x1 DUP3 PUSH1 0x40 ADD MLOAD MLOAD SUB DUP2 LT ISZERO PUSH2 0x2F27 JUMPI PUSH1 0x0 DUP3 PUSH1 0x40 ADD MLOAD DUP3 PUSH1 0x1 ADD DUP2 MLOAD DUP2 LT PUSH2 0x2EA2 JUMPI INVALID JUMPDEST PUSH1 0x20 MUL PUSH1 0x20 ADD ADD MLOAD PUSH1 0x17 SIGNEXTEND DUP4 PUSH1 0x40 ADD MLOAD DUP4 DUP2 MLOAD DUP2 LT PUSH2 0x2EBD JUMPI INVALID JUMPDEST PUSH1 0x20 MUL PUSH1 0x20 ADD ADD MLOAD PUSH1 0x17 SIGNEXTEND SGT ISZERO SWAP1 POP DUP1 PUSH2 0x2F1E JUMPI PUSH1 0x40 DUP1 MLOAD PUSH3 0x461BCD PUSH1 0xE5 SHL DUP2 MSTORE PUSH1 0x20 PUSH1 0x4 DUP3 ADD MSTORE PUSH1 0x17 PUSH1 0x24 DUP3 ADD MSTORE PUSH32 0x6F62736572766174696F6E73206E6F7420736F72746564000000000000000000 PUSH1 0x44 DUP3 ADD MSTORE SWAP1 MLOAD SWAP1 DUP2 SWAP1 SUB PUSH1 0x64 ADD SWAP1 REVERT JUMPDEST POP PUSH1 0x1 ADD PUSH2 0x2E7D JUMP JUMPDEST POP PUSH1 0x40 DUP2 ADD MLOAD DUP1 MLOAD PUSH1 0x0 SWAP2 SWAP1 PUSH1 0x2 DUP2 DIV SWAP1 DUP2 LT PUSH2 0x2F40 JUMPI INVALID JUMPDEST PUSH1 0x20 MUL PUSH1 0x20 ADD ADD MLOAD SWAP1 POP DUP1 PUSH1 0x17 SIGNEXTEND PUSH32 0x0 PUSH1 0x17 SIGNEXTEND SGT ISZERO DUP1 ISZERO PUSH2 0x2FA6 JUMPI POP PUSH32 0x0 PUSH1 0x17 SIGNEXTEND DUP2 PUSH1 0x17 SIGNEXTEND SGT ISZERO JUMPDEST PUSH2 0x2FF7 JUMPI PUSH1 0x40 DUP1 MLOAD PUSH3 0x461BCD PUSH1 0xE5 SHL DUP2 MSTORE PUSH1 0x20 PUSH1 0x4 DUP3 ADD MSTORE PUSH1 0x1E PUSH1 0x24 DUP3 ADD MSTORE PUSH32 0x6D656469616E206973206F7574206F66206D696E2D6D61782072616E67650000 PUSH1 0x44 DUP3 ADD MSTORE SWAP1 MLOAD SWAP1 DUP2 SWAP1 SUB PUSH1 0x64 ADD SWAP1 REVERT JUMPDEST DUP2 MLOAD PUSH1 0x60 SWAP1 DUP2 ADD DUP1 MLOAD PUSH4 0xFFFFFFFF PUSH1 0x1 SWAP1 SWAP2 ADD DUP2 AND SWAP1 SWAP2 MSTORE PUSH1 0x40 DUP1 MLOAD DUP1 DUP3 ADD DUP3 MSTORE PUSH1 0x17 DUP6 DUP2 SIGNEXTEND DUP1 DUP4 MSTORE PUSH1 0x1 PUSH1 0x1 PUSH1 0x40 SHL SUB TIMESTAMP DUP2 AND PUSH1 0x20 DUP1 DUP7 ADD SWAP2 DUP3 MSTORE DUP11 MLOAD DUP10 ADD MLOAD DUP9 AND PUSH1 0x0 SWAP1 DUP2 MSTORE PUSH1 0x2D DUP3 MSTORE DUP8 DUP2 KECCAK256 SWAP7 MLOAD DUP8 SLOAD SWAP4 MLOAD SWAP1 SWAP5 AND PUSH1 0x1 PUSH1 0xC0 SHL MUL SWAP4 SWAP1 SWAP6 SIGNEXTEND PUSH1 0x1 PUSH1 0x1 PUSH1 0xC0 SHL SUB SWAP1 DUP2 AND PUSH1 0x1 PUSH1 0x1 PUSH1 0xC0 SHL SUB NOT SWAP1 SWAP4 AND SWAP3 SWAP1 SWAP3 OR SWAP1 SWAP2 AND SWAP2 SWAP1 SWAP2 OR SWAP1 SWAP4 SSTORE DUP8 MLOAD DUP7 ADD MLOAD DUP5 DUP10 ADD MLOAD DUP5 DUP11 ADD MLOAD PUSH1 0x80 DUP1 DUP13 ADD MLOAD DUP9 MLOAD SWAP6 DUP7 MSTORE CALLER DUP7 DUP10 ADD DUP2 SWAP1 MSTORE SWAP2 DUP7 ADD DUP2 SWAP1 MSTORE PUSH1 0xA0 SWAP9 DUP7 ADD DUP10 DUP2 MSTORE DUP5 MLOAD SWAP10 DUP8 ADD SWAP10 SWAP1 SWAP10 MSTORE DUP4 MLOAD SWAP5 SWAP1 SWAP10 AND SWAP10 PUSH32 0xF6A97944F31EA060DFDE0566E4167C1A1082551E64B60ECB14D599A9D023D451 SWAP10 DUP13 SWAP10 SWAP3 SWAP9 SWAP5 SWAP8 SWAP4 SWAP7 SWAP1 SWAP6 SWAP1 SWAP5 SWAP3 SWAP4 SWAP2 DUP6 ADD SWAP3 PUSH1 0xC0 DUP7 ADD SWAP3 DUP10 DUP3 ADD SWAP3 SWAP1 SWAP2 MUL SWAP1 DUP2 SWAP1 DUP5 SWAP1 DUP5 SWAP1 JUMPDEST DUP4 DUP2 LT ISZERO PUSH2 0x311B JUMPI DUP2 DUP2 ADD MLOAD DUP4 DUP3 ADD MSTORE PUSH1 0x20 ADD PUSH2 0x3103 JUMP JUMPDEST POP POP POP POP SWAP1 POP ADD DUP4 DUP2 SUB DUP3 MSTORE DUP6 DUP2 DUP2 MLOAD DUP2 MSTORE PUSH1 0x20 ADD SWAP2 POP DUP1 MLOAD SWAP1 PUSH1 0x20 ADD SWAP1 DUP1 DUP4 DUP4 PUSH1 0x0 JUMPDEST DUP4 DUP2 LT ISZERO PUSH2 0x3157 JUMPI DUP2 DUP2 ADD MLOAD DUP4 DUP3 ADD MSTORE PUSH1 0x20 ADD PUSH2 0x313F JUMP JUMPDEST POP POP POP POP SWAP1 POP SWAP1 DUP2 ADD SWAP1 PUSH1 0x1F AND DUP1 ISZERO PUSH2 0x3184 JUMPI DUP1 DUP3 SUB DUP1 MLOAD PUSH1 0x1 DUP4 PUSH1 0x20 SUB PUSH2 0x100 EXP SUB NOT AND DUP2 MSTORE PUSH1 0x20 ADD SWAP2 POP JUMPDEST POP SWAP8 POP POP POP POP POP POP POP POP PUSH1 0x40 MLOAD DUP1 SWAP2 SUB SWAP1 LOG2 DUP2 MLOAD PUSH1 0x60 ADD MLOAD PUSH1 0x40 DUP1 MLOAD TIMESTAMP DUP2 MSTORE SWAP1 MLOAD PUSH1 0x0 SWAP3 PUSH4 0xFFFFFFFF AND SWAP2 PUSH32 0x109FC6F55CF40689F02FBAAD7AF7FE7BBAC8A3D2186600AFC7D3E10CAC60271 SWAP2 SWAP1 DUP2 SWAP1 SUB PUSH1 0x20 ADD SWAP1 LOG3 DUP2 PUSH1 0x0 ADD MLOAD PUSH1 0x60 ADD MLOAD PUSH4 0xFFFFFFFF AND DUP2 PUSH1 0x17 SIGNEXTEND PUSH32 0x559884FD3A460DB3073B7FC896CC77986F16E378210DED43186175BF646FC5F TIMESTAMP PUSH1 0x40 MLOAD DUP1 DUP3 DUP2 MSTORE PUSH1 0x20 ADD SWAP2 POP POP PUSH1 0x40 MLOAD DUP1 SWAP2 SUB SWAP1 LOG3 PUSH2 0x3239 DUP3 PUSH1 0x0 ADD MLOAD PUSH1 0x60 ADD MLOAD DUP3 PUSH1 0x17 SIGNEXTEND PUSH2 0x41E1 JUMP JUMPDEST POP DUP1 MLOAD DUP1 MLOAD PUSH1 0x2C DUP1 SLOAD PUSH1 0x20 DUP5 ADD MLOAD PUSH1 0x40 DUP6 ADD MLOAD PUSH1 0x60 SWAP1 SWAP6 ADD MLOAD PUSH1 0x1 PUSH1 0x1 PUSH1 0x80 SHL SUB NOT SWAP1 SWAP3 AND PUSH1 0x80 SWAP5 SWAP1 SWAP5 SHR SWAP4 SWAP1 SWAP4 OR PUSH5 0xFFFFFFFFFF PUSH1 0x80 SHL NOT AND PUSH1 0x1 PUSH1 0x80 SHL PUSH5 0xFFFFFFFFFF SWAP1 SWAP5 AND SWAP4 SWAP1 SWAP4 MUL SWAP3 SWAP1 SWAP3 OR PUSH1 0xFF PUSH1 0xA8 SHL NOT AND PUSH1 0x1 PUSH1 0xA8 SHL PUSH1 0xFF SWAP1 SWAP5 AND SWAP4 SWAP1 SWAP4 MUL SWAP3 SWAP1 SWAP3 OR PUSH4 0xFFFFFFFF PUSH1 0xB0 SHL NOT AND PUSH1 0x1 PUSH1 0xB0 SHL PUSH4 0xFFFFFFFF SWAP3 DUP4 AND MUL OR SWAP1 SWAP2 SSTORE DUP3 LT PUSH2 0x32C6 JUMPI INVALID JUMPDEST PUSH2 0x32D4 DUP3 DUP3 PUSH1 0x20 ADD MLOAD PUSH2 0x42D9 JUMP JUMPDEST POP POP POP POP POP POP POP POP POP JUMP JUMPDEST PUSH1 0x3 SLOAD PUSH1 0x40 DUP1 MLOAD PUSH4 0x70A08231 PUSH1 0xE0 SHL DUP2 MSTORE ADDRESS PUSH1 0x4 DUP3 ADD MSTORE SWAP1 MLOAD PUSH1 0x0 SWAP3 DUP4 SWAP3 PUSH1 0x1 PUSH1 0x1 PUSH1 0xA0 SHL SUB SWAP1 SWAP2 AND SWAP2 PUSH4 0x70A08231 SWAP2 PUSH1 0x24 DUP1 DUP3 ADD SWAP3 PUSH1 0x20 SWAP3 SWAP1 SWAP2 SWAP1 DUP3 SWAP1 SUB ADD DUP2 DUP7 DUP1 EXTCODESIZE ISZERO DUP1 ISZERO PUSH2 0x332F JUMPI PUSH1 0x0 DUP1 REVERT JUMPDEST POP GAS STATICCALL ISZERO DUP1 ISZERO PUSH2 0x3343 JUMPI RETURNDATASIZE PUSH1 0x0 DUP1 RETURNDATACOPY RETURNDATASIZE PUSH1 0x0 REVERT JUMPDEST POP POP POP POP PUSH1 0x40 MLOAD RETURNDATASIZE PUSH1 0x20 DUP2 LT ISZERO PUSH2 0x3359 JUMPI PUSH1 0x0 DUP1 REVERT JUMPDEST POP MLOAD SWAP1 POP PUSH1 0x0 PUSH2 0x3367 PUSH2 0x3FFB JUMP JUMPDEST SWAP1 SWAP2 SUB SWAP2 POP POP SWAP1 JUMP JUMPDEST PUSH1 0x1 PUSH1 0x1 PUSH1 0xA0 SHL SUB DUP2 AND PUSH1 0x0 SWAP1 DUP2 MSTORE PUSH1 0x28 PUSH1 0x20 SWAP1 DUP2 MSTORE PUSH1 0x40 DUP1 DUP4 KECCAK256 DUP2 MLOAD DUP1 DUP4 ADD SWAP1 SWAP3 MSTORE DUP1 SLOAD PUSH1 0xFF DUP1 DUP3 AND DUP5 MSTORE DUP6 SWAP5 DUP5 ADD SWAP2 PUSH2 0x100 SWAP1 DIV AND PUSH1 0x2 DUP2 GT ISZERO PUSH2 0x33B2 JUMPI INVALID JUMPDEST PUSH1 0x2 DUP2 GT ISZERO PUSH2 0x33BD JUMPI INVALID JUMPDEST SWAP1 MSTORE POP SWAP1 POP PUSH1 0x0 DUP2 PUSH1 0x20 ADD MLOAD PUSH1 0x2 DUP2 GT ISZERO PUSH2 0x33D4 JUMPI INVALID JUMPDEST EQ ISZERO PUSH2 0x33E4 JUMPI PUSH1 0x0 SWAP2 POP POP PUSH2 0xC27 JUMP JUMPDEST PUSH1 0x1 PUSH1 0x5 DUP3 PUSH1 0x0 ADD MLOAD PUSH1 0xFF AND PUSH1 0x1F DUP2 LT PUSH2 0x33FA JUMPI INVALID JUMPDEST PUSH1 0x10 SWAP2 DUP3 DUP3 DIV ADD SWAP2 SWAP1 MOD PUSH1 0x2 MUL SWAP1 SLOAD SWAP1 PUSH2 0x100 EXP SWAP1 DIV PUSH2 0xFFFF AND SUB SWAP2 POP POP SWAP2 SWAP1 POP JUMP JUMPDEST PUSH1 0x0 DUP1 DUP1 DUP1 DUP1 CALLER ORIGIN EQ PUSH2 0x346E JUMPI PUSH1 0x40 DUP1 MLOAD PUSH3 0x461BCD PUSH1 0xE5 SHL DUP2 MSTORE PUSH1 0x20 PUSH1 0x4 DUP3 ADD MSTORE PUSH1 0x14 PUSH1 0x24 DUP3 ADD MSTORE PUSH20 0x4F6E6C792063616C6C61626C6520627920454F41 PUSH1 0x60 SHL PUSH1 0x44 DUP3 ADD MSTORE SWAP1 MLOAD SWAP1 DUP2 SWAP1 SUB PUSH1 0x64 ADD SWAP1 REVERT JUMPDEST POP POP PUSH1 0x2C SLOAD PUSH4 0xFFFFFFFF PUSH1 0x1 PUSH1 0xB0 SHL DUP3 DIV DUP2 AND PUSH1 0x0 SWAP1 DUP2 MSTORE PUSH1 0x2D PUSH1 0x20 MSTORE PUSH1 0x40 SWAP1 KECCAK256 SLOAD PUSH1 0x80 DUP4 SWAP1 SHL SWAP7 PUSH1 0x1 PUSH1 0x80 SHL SWAP1 SWAP4 DIV PUSH1 0x8 DUP2 SWAP1 SHR SWAP1 SWAP3 AND SWAP6 POP PUSH5 0xFFFFFFFFFF SWAP1 SWAP2 AND SWAP4 POP PUSH1 0x17 DUP2 SWAP1 SIGNEXTEND SWAP3 POP PUSH1 0x1 PUSH1 0xC0 SHL SWAP1 DIV PUSH1 0x1 PUSH1 0x1 PUSH1 0x40 SHL SUB AND SWAP1 JUMP JUMPDEST PUSH1 0x3 SLOAD PUSH1 0x1 PUSH1 0x1 PUSH1 0xA0 SHL SUB AND SWAP1 JUMP JUMPDEST PUSH1 0x0 SLOAD PUSH1 0x1 PUSH1 0x1 PUSH1 0xA0 SHL SUB AND CALLER EQ PUSH2 0x3529 JUMPI PUSH1 0x40 DUP1 MLOAD PUSH3 0x461BCD PUSH1 0xE5 SHL DUP2 MSTORE PUSH1 0x20 PUSH1 0x4 DUP3 ADD MSTORE PUSH1 0x16 PUSH1 0x24 DUP3 ADD MSTORE PUSH1 0x0 DUP1 MLOAD PUSH1 0x20 PUSH2 0x4844 DUP4 CODECOPY DUP2 MLOAD SWAP2 MSTORE PUSH1 0x44 DUP3 ADD MSTORE SWAP1 MLOAD SWAP1 DUP2 SWAP1 SUB PUSH1 0x64 ADD SWAP1 REVERT JUMPDEST PUSH1 0x40 DUP1 MLOAD DUP1 DUP3 ADD SWAP1 SWAP2 MSTORE PUSH1 0x2F SLOAD PUSH1 0x1 PUSH1 0x1 PUSH1 0xA0 SHL SUB DUP1 DUP3 AND DUP1 DUP5 MSTORE PUSH1 0x1 PUSH1 0xA0 SHL SWAP1 SWAP3 DIV PUSH4 0xFFFFFFFF AND PUSH1 0x20 DUP5 ADD MSTORE DUP5 AND EQ ISZERO DUP1 PUSH2 0x3576 JUMPI POP DUP2 PUSH4 0xFFFFFFFF AND DUP2 PUSH1 0x20 ADD MLOAD PUSH4 0xFFFFFFFF AND EQ ISZERO JUMPDEST ISZERO PUSH2 0x3608 JUMPI PUSH1 0x40 DUP1 MLOAD DUP1 DUP3 ADD DUP3 MSTORE PUSH1 0x1 PUSH1 0x1 PUSH1 0xA0 SHL SUB DUP6 DUP2 AND DUP1 DUP4 MSTORE PUSH4 0xFFFFFFFF DUP7 DUP2 AND PUSH1 0x20 SWAP5 DUP6 ADD DUP2 SWAP1 MSTORE PUSH1 0x2F DUP1 SLOAD PUSH1 0x1 PUSH1 0x1 PUSH1 0xA0 SHL SUB NOT AND DUP5 OR PUSH4 0xFFFFFFFF PUSH1 0xA0 SHL NOT AND PUSH1 0x1 PUSH1 0xA0 SHL DUP4 MUL OR SWAP1 SSTORE DUP7 MLOAD DUP8 DUP7 ADD MLOAD DUP8 MLOAD SWAP4 AND DUP4 MSTORE SWAP5 DUP3 ADD MSTORE DUP5 MLOAD SWAP2 SWAP5 SWAP4 SWAP1 SWAP3 AND SWAP3 PUSH32 0xB04E3A37ABE9C0FCDFEBDEAE019A8E2B12DDF53F5D55FFB0CACCC1BEDACA1541 SWAP3 DUP3 SWAP1 SUB ADD SWAP1 LOG3 JUMPDEST POP POP POP JUMP JUMPDEST PUSH1 0x1 PUSH1 0x1 PUSH1 0xA0 SHL SUB DUP3 DUP2 AND PUSH1 0x0 SWAP1 DUP2 MSTORE PUSH1 0x7 PUSH1 0x20 MSTORE PUSH1 0x40 SWAP1 KECCAK256 SLOAD AND CALLER EQ PUSH2 0x367B JUMPI PUSH1 0x40 DUP1 MLOAD PUSH3 0x461BCD PUSH1 0xE5 SHL DUP2 MSTORE PUSH1 0x20 PUSH1 0x4 DUP3 ADD MSTORE PUSH1 0x1D PUSH1 0x24 DUP3 ADD MSTORE PUSH32 0x6F6E6C792063757272656E742070617965652063616E20757064617465000000 PUSH1 0x44 DUP3 ADD MSTORE SWAP1 MLOAD SWAP1 DUP2 SWAP1 SUB PUSH1 0x64 ADD SWAP1 REVERT JUMPDEST CALLER PUSH1 0x1 PUSH1 0x1 PUSH1 0xA0 SHL SUB DUP3 AND EQ ISZERO PUSH2 0x36D9 JUMPI PUSH1 0x40 DUP1 MLOAD PUSH3 0x461BCD PUSH1 0xE5 SHL DUP2 MSTORE PUSH1 0x20 PUSH1 0x4 DUP3 ADD MSTORE PUSH1 0x17 PUSH1 0x24 DUP3 ADD MSTORE PUSH32 0x63616E6E6F74207472616E7366657220746F2073656C66000000000000000000 PUSH1 0x44 DUP3 ADD MSTORE SWAP1 MLOAD SWAP1 DUP2 SWAP1 SUB PUSH1 0x64 ADD SWAP1 REVERT JUMPDEST PUSH1 0x1 PUSH1 0x1 PUSH1 0xA0 SHL SUB DUP1 DUP4 AND PUSH1 0x0 SWAP1 DUP2 MSTORE PUSH1 0x8 PUSH1 0x20 MSTORE PUSH1 0x40 SWAP1 KECCAK256 DUP1 SLOAD DUP4 DUP4 AND PUSH1 0x1 PUSH1 0x1 PUSH1 0xA0 SHL SUB NOT DUP3 AND DUP2 OR SWAP1 SWAP3 SSTORE SWAP1 SWAP2 AND SWAP1 DUP2 EQ PUSH2 0x3608 JUMPI PUSH1 0x40 MLOAD PUSH1 0x1 PUSH1 0x1 PUSH1 0xA0 SHL SUB DUP1 DUP5 AND SWAP2 CALLER SWAP2 DUP7 AND SWAP1 PUSH32 0x84F7C7C80BB8ED2279B4AAB5F61CD05E6374073D38F46D7F32DE8C30E9E38367 SWAP1 PUSH1 0x0 SWAP1 LOG4 POP POP POP JUMP JUMPDEST PUSH1 0x0 SLOAD PUSH1 0x1 PUSH1 0x1 PUSH1 0xA0 SHL SUB AND CALLER EQ PUSH2 0x379D JUMPI PUSH1 0x40 DUP1 MLOAD PUSH3 0x461BCD PUSH1 0xE5 SHL DUP2 MSTORE PUSH1 0x20 PUSH1 0x4 DUP3 ADD MSTORE PUSH1 0x16 PUSH1 0x24 DUP3 ADD MSTORE PUSH1 0x0 DUP1 MLOAD PUSH1 0x20 PUSH2 0x4844 DUP4 CODECOPY DUP2 MLOAD SWAP2 MSTORE PUSH1 0x44 DUP3 ADD MSTORE SWAP1 MLOAD SWAP1 DUP2 SWAP1 SUB PUSH1 0x64 ADD SWAP1 REVERT JUMPDEST PUSH1 0x1 DUP1 SLOAD PUSH1 0x1 PUSH1 0x1 PUSH1 0xA0 SHL SUB NOT AND PUSH1 0x1 PUSH1 0x1 PUSH1 0xA0 SHL SUB DUP4 DUP2 AND SWAP2 DUP3 OR SWAP1 SWAP3 SSTORE PUSH1 0x0 DUP1 SLOAD PUSH1 0x40 MLOAD SWAP3 SWAP4 AND SWAP2 PUSH32 0xED8889F560326EB138920D842192F0EB3DD22B4F139C87A2C57538E05BAE1278 SWAP2 SWAP1 LOG3 POP JUMP JUMPDEST PUSH1 0x0 SLOAD PUSH1 0x1 PUSH1 0x1 PUSH1 0xA0 SHL SUB AND CALLER EQ PUSH2 0x383B JUMPI PUSH1 0x40 DUP1 MLOAD PUSH3 0x461BCD PUSH1 0xE5 SHL DUP2 MSTORE PUSH1 0x20 PUSH1 0x4 DUP3 ADD MSTORE PUSH1 0x16 PUSH1 0x24 DUP3 ADD MSTORE PUSH1 0x0 DUP1 MLOAD PUSH1 0x20 PUSH2 0x4844 DUP4 CODECOPY DUP2 MLOAD SWAP2 MSTORE PUSH1 0x44 DUP3 ADD MSTORE SWAP1 MLOAD SWAP1 DUP2 SWAP1 SUB PUSH1 0x64 ADD SWAP1 REVERT JUMPDEST PUSH2 0x1A15 DUP2 PUSH2 0x4501 JUMP JUMPDEST PUSH1 0x2C SLOAD PUSH1 0x1 PUSH1 0xB0 SHL SWAP1 DIV PUSH4 0xFFFFFFFF AND PUSH1 0x0 DUP2 DUP2 MSTORE PUSH1 0x2D PUSH1 0x20 SWAP1 DUP2 MSTORE PUSH1 0x40 SWAP2 DUP3 SWAP1 KECCAK256 DUP3 MLOAD DUP1 DUP5 ADD SWAP1 SWAP4 MSTORE SLOAD PUSH1 0x17 DUP2 DUP2 SIGNEXTEND DUP2 SIGNEXTEND DUP2 SIGNEXTEND DUP1 DUP6 MSTORE PUSH1 0x1 PUSH1 0xC0 SHL SWAP1 SWAP3 DIV PUSH1 0x1 PUSH1 0x1 PUSH1 0x40 SHL SUB AND SWAP4 SWAP1 SWAP3 ADD DUP4 SWAP1 MSTORE SWAP3 SWAP4 SWAP3 SWAP1 SIGNEXTEND SWAP2 DUP2 SWAP1 DUP5 SWAP1 JUMP JUMPDEST PUSH1 0x40 DUP1 MLOAD PUSH1 0xA0 DUP2 ADD DUP3 MSTORE PUSH1 0x2 SLOAD PUSH4 0xFFFFFFFF DUP1 DUP3 AND DUP4 MSTORE PUSH1 0x1 PUSH1 0x20 SHL DUP3 DIV DUP2 AND PUSH1 0x20 DUP5 ADD MSTORE PUSH1 0x1 PUSH1 0x40 SHL DUP3 DIV DUP2 AND DUP4 DUP6 ADD MSTORE PUSH1 0x1 PUSH1 0x60 SHL DUP3 DIV DUP2 AND PUSH1 0x60 DUP5 ADD MSTORE PUSH1 0x1 PUSH1 0x80 SHL SWAP1 SWAP2 DIV AND PUSH1 0x80 DUP3 ADD MSTORE PUSH1 0x3 SLOAD DUP3 MLOAD PUSH2 0x3E0 DUP2 ADD SWAP4 DUP5 SWAP1 MSTORE SWAP2 SWAP3 PUSH1 0x1 PUSH1 0x1 PUSH1 0xA0 SHL SUB SWAP1 SWAP2 AND SWAP2 PUSH1 0x0 SWAP2 PUSH1 0x5 SWAP1 PUSH1 0x1F SWAP1 DUP3 DUP6 DUP6 JUMPDEST DUP3 DUP3 SWAP1 SLOAD SWAP1 PUSH2 0x100 EXP SWAP1 DIV PUSH2 0xFFFF AND PUSH2 0xFFFF AND DUP2 MSTORE PUSH1 0x20 ADD SWAP1 PUSH1 0x2 ADD SWAP1 PUSH1 0x20 DUP3 PUSH1 0x1 ADD DIV SWAP3 DUP4 ADD SWAP3 PUSH1 0x1 SUB DUP3 MUL SWAP2 POP DUP1 DUP5 GT PUSH2 0x3916 JUMPI POP POP PUSH1 0x40 DUP1 MLOAD PUSH2 0x3E0 DUP2 ADD SWAP2 DUP3 SWAP1 MSTORE SWAP6 SWAP7 POP PUSH1 0x0 SWAP6 SWAP5 POP PUSH1 0x9 SWAP4 POP PUSH1 0x1F SWAP3 POP SWAP1 POP DUP3 DUP5 JUMPDEST DUP2 SLOAD DUP2 MSTORE PUSH1 0x20 ADD SWAP1 PUSH1 0x1 ADD SWAP1 DUP1 DUP4 GT PUSH2 0x3970 JUMPI POP POP POP POP POP SWAP1 POP PUSH1 0x0 PUSH1 0x2A DUP1 SLOAD DUP1 PUSH1 0x20 MUL PUSH1 0x20 ADD PUSH1 0x40 MLOAD SWAP1 DUP2 ADD PUSH1 0x40 MSTORE DUP1 SWAP3 SWAP2 SWAP1 DUP2 DUP2 MSTORE PUSH1 0x20 ADD DUP3 DUP1 SLOAD DUP1 ISZERO PUSH2 0x39E2 JUMPI PUSH1 0x20 MUL DUP3 ADD SWAP2 SWAP1 PUSH1 0x0 MSTORE PUSH1 0x20 PUSH1 0x0 KECCAK256 SWAP1 JUMPDEST DUP2 SLOAD PUSH1 0x1 PUSH1 0x1 PUSH1 0xA0 SHL SUB AND DUP2 MSTORE PUSH1 0x1 SWAP1 SWAP2 ADD SWAP1 PUSH1 0x20 ADD DUP1 DUP4 GT PUSH2 0x39C4 JUMPI JUMPDEST POP POP POP POP POP SWAP1 POP PUSH1 0x0 JUMPDEST DUP2 MLOAD DUP2 LT ISZERO PUSH2 0x3C0C JUMPI PUSH1 0x0 PUSH1 0x1 DUP5 DUP4 PUSH1 0x1F DUP2 LT PUSH2 0x3A05 JUMPI INVALID JUMPDEST PUSH1 0x20 MUL ADD MLOAD SUB SWAP1 POP PUSH1 0x0 PUSH1 0x1 DUP7 DUP5 PUSH1 0x1F DUP2 LT PUSH2 0x3A1D JUMPI INVALID JUMPDEST PUSH1 0x20 MUL ADD MLOAD SUB PUSH2 0xFFFF AND SWAP1 POP PUSH1 0x0 DUP3 DUP10 PUSH1 0x60 ADD MLOAD PUSH4 0xFFFFFFFF AND DUP4 MUL PUSH4 0x3B9ACA00 MUL ADD SWAP1 POP PUSH1 0x0 DUP2 GT ISZERO PUSH2 0x3C01 JUMPI PUSH1 0x0 PUSH1 0x7 PUSH1 0x0 DUP8 DUP8 DUP2 MLOAD DUP2 LT PUSH2 0x3A5D JUMPI INVALID JUMPDEST PUSH1 0x20 MUL PUSH1 0x20 ADD ADD MLOAD PUSH1 0x1 PUSH1 0x1 PUSH1 0xA0 SHL SUB AND PUSH1 0x1 PUSH1 0x1 PUSH1 0xA0 SHL SUB AND DUP2 MSTORE PUSH1 0x20 ADD SWAP1 DUP2 MSTORE PUSH1 0x20 ADD PUSH1 0x0 KECCAK256 PUSH1 0x0 SWAP1 SLOAD SWAP1 PUSH2 0x100 EXP SWAP1 DIV PUSH1 0x1 PUSH1 0x1 PUSH1 0xA0 SHL SUB AND SWAP1 POP DUP9 PUSH1 0x1 PUSH1 0x1 PUSH1 0xA0 SHL SUB AND PUSH4 0xA9059CBB DUP3 DUP5 PUSH1 0x40 MLOAD DUP4 PUSH4 0xFFFFFFFF AND PUSH1 0xE0 SHL DUP2 MSTORE PUSH1 0x4 ADD DUP1 DUP4 PUSH1 0x1 PUSH1 0x1 PUSH1 0xA0 SHL SUB AND DUP2 MSTORE PUSH1 0x20 ADD DUP3 DUP2 MSTORE PUSH1 0x20 ADD SWAP3 POP POP POP PUSH1 0x20 PUSH1 0x40 MLOAD DUP1 DUP4 SUB DUP2 PUSH1 0x0 DUP8 DUP1 EXTCODESIZE ISZERO DUP1 ISZERO PUSH2 0x3AF2 JUMPI PUSH1 0x0 DUP1 REVERT JUMPDEST POP GAS CALL ISZERO DUP1 ISZERO PUSH2 0x3B06 JUMPI RETURNDATASIZE PUSH1 0x0 DUP1 RETURNDATACOPY RETURNDATASIZE PUSH1 0x0 REVERT JUMPDEST POP POP POP POP PUSH1 0x40 MLOAD RETURNDATASIZE PUSH1 0x20 DUP2 LT ISZERO PUSH2 0x3B1C JUMPI PUSH1 0x0 DUP1 REVERT JUMPDEST POP MLOAD PUSH2 0x3B64 JUMPI PUSH1 0x40 DUP1 MLOAD PUSH3 0x461BCD PUSH1 0xE5 SHL DUP2 MSTORE PUSH1 0x20 PUSH1 0x4 DUP3 ADD MSTORE PUSH1 0x12 PUSH1 0x24 DUP3 ADD MSTORE PUSH18 0x696E73756666696369656E742066756E6473 PUSH1 0x70 SHL PUSH1 0x44 DUP3 ADD MSTORE SWAP1 MLOAD SWAP1 DUP2 SWAP1 SUB PUSH1 0x64 ADD SWAP1 REVERT JUMPDEST PUSH1 0x1 DUP9 DUP7 PUSH1 0x1F DUP2 LT PUSH2 0x3B72 JUMPI INVALID JUMPDEST PUSH2 0xFFFF SWAP1 SWAP3 AND PUSH1 0x20 SWAP3 SWAP1 SWAP3 MUL ADD MSTORE PUSH1 0x1 DUP8 DUP7 PUSH1 0x1F DUP2 LT PUSH2 0x3B8E JUMPI INVALID JUMPDEST PUSH1 0x20 MUL ADD DUP2 DUP2 MSTORE POP POP DUP9 PUSH1 0x1 PUSH1 0x1 PUSH1 0xA0 SHL SUB AND DUP2 PUSH1 0x1 PUSH1 0x1 PUSH1 0xA0 SHL SUB AND DUP8 DUP8 DUP2 MLOAD DUP2 LT PUSH2 0x3BB7 JUMPI INVALID JUMPDEST PUSH1 0x20 MUL PUSH1 0x20 ADD ADD MLOAD PUSH1 0x1 PUSH1 0x1 PUSH1 0xA0 SHL SUB AND PUSH32 0xD0B1DAC935D85BD54CF0A33B0D41D39F8CF53A968465FC7EA2377526B8AC712C DUP6 PUSH1 0x40 MLOAD DUP1 DUP3 DUP2 MSTORE PUSH1 0x20 ADD SWAP2 POP POP PUSH1 0x40 MLOAD DUP1 SWAP2 SUB SWAP1 LOG4 POP JUMPDEST POP POP POP PUSH1 0x1 ADD PUSH2 0x39EC JUMP JUMPDEST POP PUSH2 0x3C1A PUSH1 0x5 DUP5 PUSH1 0x1F PUSH2 0x471F JUMP JUMPDEST POP PUSH2 0x22C6 PUSH1 0x9 DUP4 PUSH1 0x1F PUSH2 0x47B5 JUMP JUMPDEST PUSH1 0x1 PUSH1 0x1 PUSH1 0xA0 SHL SUB DUP2 AND PUSH1 0x0 SWAP1 DUP2 MSTORE PUSH1 0x28 PUSH1 0x20 SWAP1 DUP2 MSTORE PUSH1 0x40 DUP1 DUP4 KECCAK256 DUP2 MLOAD DUP1 DUP4 ADD SWAP1 SWAP3 MSTORE DUP1 SLOAD PUSH1 0xFF DUP1 DUP3 AND DUP5 MSTORE SWAP3 SWAP4 SWAP2 SWAP3 SWAP2 DUP5 ADD SWAP2 PUSH2 0x100 SWAP1 SWAP2 DIV AND PUSH1 0x2 DUP2 GT ISZERO PUSH2 0x3C6E JUMPI INVALID JUMPDEST PUSH1 0x2 DUP2 GT ISZERO PUSH2 0x3C79 JUMPI INVALID JUMPDEST SWAP1 MSTORE POP SWAP1 POP PUSH1 0x0 PUSH2 0x3C89 DUP4 PUSH2 0xAFD JUMP JUMPDEST SWAP1 POP DUP1 ISZERO PUSH2 0x3608 JUMPI PUSH1 0x1 PUSH1 0x1 PUSH1 0xA0 SHL SUB DUP1 DUP5 AND PUSH1 0x0 SWAP1 DUP2 MSTORE PUSH1 0x7 PUSH1 0x20 SWAP1 DUP2 MSTORE PUSH1 0x40 DUP1 DUP4 KECCAK256 SLOAD PUSH1 0x3 SLOAD DUP3 MLOAD PUSH4 0xA9059CBB PUSH1 0xE0 SHL DUP2 MSTORE SWAP2 DUP7 AND PUSH1 0x4 DUP4 ADD DUP2 SWAP1 MSTORE PUSH1 0x24 DUP4 ADD DUP9 SWAP1 MSTORE SWAP3 MLOAD SWAP3 SWAP6 AND SWAP4 PUSH4 0xA9059CBB SWAP4 PUSH1 0x44 DUP1 DUP5 ADD SWAP5 SWAP2 SWAP4 SWAP2 SWAP3 SWAP2 DUP4 SWAP1 SUB ADD SWAP1 DUP3 SWAP1 DUP8 DUP1 EXTCODESIZE ISZERO DUP1 ISZERO PUSH2 0x3CFB JUMPI PUSH1 0x0 DUP1 REVERT JUMPDEST POP GAS CALL ISZERO DUP1 ISZERO PUSH2 0x3D0F JUMPI RETURNDATASIZE PUSH1 0x0 DUP1 RETURNDATACOPY RETURNDATASIZE PUSH1 0x0 REVERT JUMPDEST POP POP POP POP PUSH1 0x40 MLOAD RETURNDATASIZE PUSH1 0x20 DUP2 LT ISZERO PUSH2 0x3D25 JUMPI PUSH1 0x0 DUP1 REVERT JUMPDEST POP MLOAD PUSH2 0x3D6D JUMPI PUSH1 0x40 DUP1 MLOAD PUSH3 0x461BCD PUSH1 0xE5 SHL DUP2 MSTORE PUSH1 0x20 PUSH1 0x4 DUP3 ADD MSTORE PUSH1 0x12 PUSH1 0x24 DUP3 ADD MSTORE PUSH18 0x696E73756666696369656E742066756E6473 PUSH1 0x70 SHL PUSH1 0x44 DUP3 ADD MSTORE SWAP1 MLOAD SWAP1 DUP2 SWAP1 SUB PUSH1 0x64 ADD SWAP1 REVERT JUMPDEST PUSH1 0x1 PUSH1 0x5 DUP5 PUSH1 0x0 ADD MLOAD PUSH1 0xFF AND PUSH1 0x1F DUP2 LT PUSH2 0x3D83 JUMPI INVALID JUMPDEST PUSH1 0x10 SWAP2 DUP3 DUP3 DIV ADD SWAP2 SWAP1 MOD PUSH1 0x2 MUL PUSH2 0x100 EXP DUP2 SLOAD DUP2 PUSH2 0xFFFF MUL NOT AND SWAP1 DUP4 PUSH2 0xFFFF AND MUL OR SWAP1 SSTORE POP PUSH1 0x1 PUSH1 0x9 DUP5 PUSH1 0x0 ADD MLOAD PUSH1 0xFF AND PUSH1 0x1F DUP2 LT PUSH2 0x3DBE JUMPI INVALID JUMPDEST ADD SSTORE PUSH1 0x3 SLOAD PUSH1 0x40 DUP1 MLOAD DUP5 DUP2 MSTORE SWAP1 MLOAD PUSH1 0x1 PUSH1 0x1 PUSH1 0xA0 SHL SUB SWAP3 DUP4 AND SWAP3 DUP5 DUP2 AND SWAP3 SWAP1 DUP9 AND SWAP2 PUSH32 0xD0B1DAC935D85BD54CF0A33B0D41D39F8CF53A968465FC7EA2377526B8AC712C SWAP2 DUP2 SWAP1 SUB PUSH1 0x20 ADD SWAP1 LOG4 POP POP POP POP JUMP JUMPDEST PUSH1 0x0 DUP11 DUP11 DUP11 DUP11 DUP11 DUP11 DUP11 DUP11 DUP11 DUP11 PUSH1 0x40 MLOAD PUSH1 0x20 ADD DUP1 DUP12 PUSH1 0x1 PUSH1 0x1 PUSH1 0xA0 SHL SUB AND DUP2 MSTORE PUSH1 0x20 ADD DUP11 PUSH1 0x1 PUSH1 0x1 PUSH1 0x40 SHL SUB AND DUP2 MSTORE PUSH1 0x20 ADD DUP1 PUSH1 0x20 ADD DUP1 PUSH1 0x20 ADD DUP8 PUSH1 0xFF AND DUP2 MSTORE PUSH1 0x20 ADD DUP7 PUSH1 0x1 PUSH1 0x1 PUSH1 0x40 SHL SUB AND DUP2 MSTORE PUSH1 0x20 ADD DUP1 PUSH1 0x20 ADD DUP5 DUP2 SUB DUP5 MSTORE DUP13 DUP13 DUP3 DUP2 DUP2 MSTORE PUSH1 0x20 ADD SWAP3 POP PUSH1 0x20 MUL DUP1 DUP3 DUP5 CALLDATACOPY PUSH1 0x0 DUP4 DUP3 ADD MSTORE PUSH1 0x1F ADD PUSH1 0x1F NOT AND SWAP1 SWAP2 ADD DUP6 DUP2 SUB DUP5 MSTORE DUP11 DUP2 MSTORE PUSH1 0x20 SWAP1 DUP2 ADD SWAP2 POP DUP12 SWAP1 DUP12 MUL DUP1 DUP3 DUP5 CALLDATACOPY PUSH1 0x0 DUP4 DUP3 ADD MSTORE PUSH1 0x1F ADD PUSH1 0x1F NOT AND SWAP1 SWAP2 ADD DUP6 DUP2 SUB DUP4 MSTORE DUP7 DUP2 MSTORE PUSH1 0x20 ADD SWAP1 POP DUP7 DUP7 DUP1 DUP3 DUP5 CALLDATACOPY PUSH1 0x0 DUP2 DUP5 ADD MSTORE PUSH1 0x1F NOT PUSH1 0x1F DUP3 ADD AND SWAP1 POP DUP1 DUP4 ADD SWAP3 POP POP POP SWAP14 POP POP POP POP POP POP POP POP POP POP POP POP POP POP PUSH1 0x40 MLOAD PUSH1 0x20 DUP2 DUP4 SUB SUB DUP2 MSTORE SWAP1 PUSH1 0x40 MSTORE DUP1 MLOAD SWAP1 PUSH1 0x20 ADD KECCAK256 SWAP1 POP SWAP11 SWAP10 POP POP POP POP POP POP POP POP POP POP JUMP JUMPDEST PUSH1 0x40 DUP1 MLOAD PUSH1 0xA0 DUP1 DUP3 ADD DUP4 MSTORE PUSH4 0xFFFFFFFF DUP9 DUP2 AND DUP1 DUP5 MSTORE DUP9 DUP3 AND PUSH1 0x20 DUP1 DUP7 ADD DUP3 SWAP1 MSTORE DUP10 DUP5 AND DUP7 DUP9 ADD DUP2 SWAP1 MSTORE DUP10 DUP6 AND PUSH1 0x60 DUP1 DUP10 ADD DUP3 SWAP1 MSTORE SWAP6 DUP11 AND PUSH1 0x80 SWAP9 DUP10 ADD DUP2 SWAP1 MSTORE PUSH1 0x2 DUP1 SLOAD PUSH4 0xFFFFFFFF NOT AND DUP8 OR PUSH8 0xFFFFFFFF00000000 NOT AND PUSH1 0x1 PUSH1 0x20 SHL DUP8 MUL OR PUSH12 0xFFFFFFFF0000000000000000 NOT AND PUSH1 0x1 PUSH1 0x40 SHL DUP6 MUL OR PUSH4 0xFFFFFFFF PUSH1 0x60 SHL NOT AND PUSH1 0x1 PUSH1 0x60 SHL DUP5 MUL OR PUSH4 0xFFFFFFFF PUSH1 0x80 SHL NOT AND PUSH1 0x1 PUSH1 0x80 SHL DUP4 MUL OR SWAP1 SSTORE DUP10 MLOAD SWAP6 DUP7 MSTORE SWAP3 DUP6 ADD SWAP4 SWAP1 SWAP4 MSTORE DUP4 DUP9 ADD MSTORE SWAP3 DUP3 ADD MSTORE SWAP3 DUP4 ADD MSTORE SWAP2 MLOAD PUSH32 0xD0D9486A2C673E2A4B57FC82E4C8A556B3E2B82DD5DB07E2C04A920CA0F469B6 SWAP3 SWAP2 DUP2 SWAP1 SUB SWAP1 SWAP2 ADD SWAP1 LOG1 POP POP POP POP POP JUMP JUMPDEST PUSH1 0x40 DUP1 MLOAD PUSH2 0x3E0 DUP2 ADD SWAP2 DUP3 SWAP1 MSTORE PUSH1 0x0 SWAP2 DUP3 SWAP2 SWAP1 PUSH1 0x5 SWAP1 PUSH1 0x1F SWAP1 DUP3 DUP6 DUP6 JUMPDEST DUP3 DUP3 SWAP1 SLOAD SWAP1 PUSH2 0x100 EXP SWAP1 DIV PUSH2 0xFFFF AND PUSH2 0xFFFF AND DUP2 MSTORE PUSH1 0x20 ADD SWAP1 PUSH1 0x2 ADD SWAP1 PUSH1 0x20 DUP3 PUSH1 0x1 ADD DIV SWAP3 DUP4 ADD SWAP3 PUSH1 0x1 SUB DUP3 MUL SWAP2 POP DUP1 DUP5 GT PUSH2 0x4018 JUMPI SWAP1 POP POP POP POP POP POP SWAP1 POP PUSH1 0x0 JUMPDEST PUSH1 0x1F DUP2 LT ISZERO PUSH2 0x4088 JUMPI PUSH1 0x1 DUP3 DUP3 PUSH1 0x1F DUP2 LT PUSH2 0x4071 JUMPI INVALID JUMPDEST PUSH1 0x20 MUL ADD MLOAD SUB PUSH2 0xFFFF AND SWAP3 SWAP1 SWAP3 ADD SWAP2 PUSH1 0x1 ADD PUSH2 0x405A JUMP JUMPDEST POP PUSH1 0x40 DUP1 MLOAD PUSH1 0xA0 DUP2 ADD DUP3 MSTORE PUSH1 0x2 SLOAD PUSH4 0xFFFFFFFF DUP1 DUP3 AND DUP4 MSTORE PUSH1 0x1 PUSH1 0x20 SHL DUP3 DIV DUP2 AND PUSH1 0x20 DUP1 DUP6 ADD SWAP2 SWAP1 SWAP2 MSTORE PUSH1 0x1 PUSH1 0x40 SHL DUP4 DIV DUP3 AND DUP5 DUP7 ADD MSTORE PUSH1 0x1 PUSH1 0x60 SHL DUP4 DIV DUP3 AND PUSH1 0x60 DUP6 ADD DUP2 SWAP1 MSTORE PUSH1 0x1 PUSH1 0x80 SHL SWAP1 SWAP4 DIV SWAP1 SWAP2 AND PUSH1 0x80 DUP5 ADD MSTORE PUSH1 0x2A DUP1 SLOAD DUP6 MLOAD DUP2 DUP5 MUL DUP2 ADD DUP5 ADD SWAP1 SWAP7 MSTORE DUP1 DUP7 MSTORE SWAP7 SWAP1 SWAP3 MUL PUSH4 0x3B9ACA00 MUL SWAP6 SWAP3 SWAP4 PUSH1 0x0 SWAP4 SWAP1 SWAP3 SWAP2 DUP4 ADD DUP3 DUP3 DUP1 ISZERO PUSH2 0x413E JUMPI PUSH1 0x20 MUL DUP3 ADD SWAP2 SWAP1 PUSH1 0x0 MSTORE PUSH1 0x20 PUSH1 0x0 KECCAK256 SWAP1 JUMPDEST DUP2 SLOAD PUSH1 0x1 PUSH1 0x1 PUSH1 0xA0 SHL SUB AND DUP2 MSTORE PUSH1 0x1 SWAP1 SWAP2 ADD SWAP1 PUSH1 0x20 ADD DUP1 DUP4 GT PUSH2 0x4120 JUMPI JUMPDEST POP POP PUSH1 0x40 DUP1 MLOAD PUSH2 0x3E0 DUP2 ADD SWAP2 DUP3 SWAP1 MSTORE SWAP5 SWAP6 POP PUSH1 0x0 SWAP5 SWAP4 POP PUSH1 0x9 SWAP3 POP PUSH1 0x1F SWAP2 POP DUP3 DUP5 JUMPDEST DUP2 SLOAD DUP2 MSTORE PUSH1 0x20 ADD SWAP1 PUSH1 0x1 ADD SWAP1 DUP1 DUP4 GT PUSH2 0x4160 JUMPI POP POP POP POP POP SWAP1 POP PUSH1 0x0 JUMPDEST DUP3 MLOAD DUP2 LT ISZERO PUSH2 0x41A7 JUMPI PUSH1 0x1 DUP3 DUP3 PUSH1 0x1F DUP2 LT PUSH2 0x4194 JUMPI INVALID JUMPDEST PUSH1 0x20 MUL ADD MLOAD SUB SWAP6 SWAP1 SWAP6 ADD SWAP5 PUSH1 0x1 ADD PUSH2 0x417D JUMP JUMPDEST POP POP POP POP POP SWAP1 JUMP JUMPDEST PUSH1 0x0 DUP2 DUP4 LT ISZERO PUSH2 0x41C0 JUMPI POP DUP2 PUSH2 0x41C3 JUMP JUMPDEST POP DUP1 JUMPDEST SWAP3 SWAP2 POP POP JUMP JUMPDEST PUSH1 0x20 DUP4 DUP2 MUL DUP7 ADD SWAP1 DUP3 MUL ADD PUSH1 0xE4 ADD SWAP7 SWAP6 POP POP POP POP POP POP JUMP JUMPDEST PUSH1 0x40 DUP1 MLOAD DUP1 DUP3 ADD SWAP1 SWAP2 MSTORE PUSH1 0x2F SLOAD PUSH1 0x1 PUSH1 0x1 PUSH1 0xA0 SHL SUB DUP2 AND DUP1 DUP4 MSTORE PUSH1 0x1 PUSH1 0xA0 SHL SWAP1 SWAP2 DIV PUSH4 0xFFFFFFFF AND PUSH1 0x20 DUP4 ADD MSTORE PUSH2 0x4218 JUMPI POP PUSH2 0xF90 JUMP JUMPDEST PUSH1 0x0 NOT DUP4 ADD PUSH4 0xFFFFFFFF DUP2 DUP2 AND PUSH1 0x0 DUP2 DUP2 MSTORE PUSH1 0x2D PUSH1 0x20 SWAP1 DUP2 MSTORE PUSH1 0x40 DUP1 DUP4 KECCAK256 SLOAD DUP8 MLOAD DUP9 DUP5 ADD MLOAD DUP4 MLOAD PUSH4 0xBEED9B51 PUSH1 0xE0 SHL DUP2 MSTORE PUSH1 0x4 DUP2 ADD SWAP8 SWAP1 SWAP8 MSTORE PUSH1 0x17 SWAP3 DUP4 SIGNEXTEND SWAP1 SWAP3 SIGNEXTEND PUSH1 0x24 DUP8 ADD DUP2 SWAP1 MSTORE DUP12 DUP9 AND PUSH1 0x44 DUP9 ADD MSTORE PUSH1 0x64 DUP8 ADD DUP12 SWAP1 MSTORE SWAP3 MLOAD SWAP3 SWAP7 PUSH1 0x1 PUSH1 0x1 PUSH1 0xA0 SHL SUB SWAP1 SWAP2 AND SWAP6 PUSH4 0xBEED9B51 SWAP6 SWAP3 SWAP1 SWAP2 AND SWAP4 PUSH1 0x84 DUP1 DUP4 ADD SWAP5 SWAP2 SWAP4 SWAP2 SWAP3 DUP4 SWAP1 SUB ADD SWAP1 DUP3 SWAP1 DUP9 DUP1 EXTCODESIZE ISZERO DUP1 ISZERO PUSH2 0x42AA JUMPI PUSH1 0x0 DUP1 REVERT JUMPDEST POP DUP8 CALL SWAP4 POP POP POP POP DUP1 ISZERO PUSH2 0x42D0 JUMPI POP PUSH1 0x40 MLOAD RETURNDATASIZE PUSH1 0x20 DUP2 LT ISZERO PUSH2 0x42CB JUMPI PUSH1 0x0 DUP1 REVERT JUMPDEST POP MLOAD PUSH1 0x1 JUMPDEST PUSH2 0x22C6 JUMPI PUSH2 0x1F5C JUMP JUMPDEST CALLER PUSH1 0x0 SWAP1 DUP2 MSTORE PUSH1 0x28 PUSH1 0x20 SWAP1 DUP2 MSTORE PUSH1 0x40 DUP1 DUP4 KECCAK256 DUP2 MLOAD DUP1 DUP4 ADD SWAP1 SWAP3 MSTORE DUP1 SLOAD PUSH1 0xFF DUP1 DUP3 AND DUP5 MSTORE SWAP3 SWAP4 SWAP2 SWAP3 SWAP2 DUP5 ADD SWAP2 PUSH2 0x100 SWAP1 SWAP2 DIV AND PUSH1 0x2 DUP2 GT ISZERO PUSH2 0x4316 JUMPI INVALID JUMPDEST PUSH1 0x2 DUP2 GT ISZERO PUSH2 0x4321 JUMPI INVALID JUMPDEST SWAP1 MSTORE POP PUSH1 0x40 DUP1 MLOAD PUSH1 0xA0 DUP2 ADD DUP3 MSTORE PUSH1 0x2 SLOAD PUSH4 0xFFFFFFFF DUP1 DUP3 AND DUP4 MSTORE PUSH1 0x1 PUSH1 0x20 SHL DUP3 DIV DUP2 AND PUSH1 0x20 DUP5 ADD MSTORE PUSH1 0x1 PUSH1 0x40 SHL DUP3 DIV DUP2 AND DUP4 DUP6 ADD MSTORE PUSH1 0x1 PUSH1 0x60 SHL DUP3 DIV DUP2 AND PUSH1 0x60 DUP5 ADD MSTORE PUSH1 0x1 PUSH1 0x80 SHL SWAP1 SWAP2 DIV AND PUSH1 0x80 DUP3 ADD MSTORE DUP2 MLOAD PUSH2 0x3E0 DUP2 ADD SWAP3 DUP4 SWAP1 MSTORE SWAP3 SWAP4 POP SWAP2 PUSH2 0x43D5 SWAP2 DUP6 SWAP2 SWAP1 PUSH1 0x5 SWAP1 PUSH1 0x1F SWAP1 DUP3 PUSH1 0x0 DUP6 JUMPDEST DUP3 DUP3 SWAP1 SLOAD SWAP1 PUSH2 0x100 EXP SWAP1 DIV PUSH2 0xFFFF AND PUSH2 0xFFFF AND DUP2 MSTORE PUSH1 0x20 ADD SWAP1 PUSH1 0x2 ADD SWAP1 PUSH1 0x20 DUP3 PUSH1 0x1 ADD DIV SWAP3 DUP4 ADD SWAP3 PUSH1 0x1 SUB DUP3 MUL SWAP2 POP DUP1 DUP5 GT PUSH2 0x4393 JUMPI SWAP1 POP POP POP POP POP POP PUSH2 0x4578 JUMP JUMPDEST PUSH2 0x43E3 SWAP1 PUSH1 0x5 SWAP1 PUSH1 0x1F PUSH2 0x471F JUMP JUMPDEST POP PUSH1 0x2 DUP3 PUSH1 0x20 ADD MLOAD PUSH1 0x2 DUP2 GT ISZERO PUSH2 0x43F6 JUMPI INVALID JUMPDEST EQ PUSH2 0x4448 JUMPI PUSH1 0x40 DUP1 MLOAD PUSH3 0x461BCD PUSH1 0xE5 SHL DUP2 MSTORE PUSH1 0x20 PUSH1 0x4 DUP3 ADD DUP2 SWAP1 MSTORE PUSH1 0x24 DUP3 ADD MSTORE PUSH32 0x73656E7420627920756E64657369676E61746564207472616E736D6974746572 PUSH1 0x44 DUP3 ADD MSTORE SWAP1 MLOAD SWAP1 DUP2 SWAP1 SUB PUSH1 0x64 ADD SWAP1 REVERT JUMPDEST PUSH1 0x0 PUSH2 0x446F PUSH4 0x3B9ACA00 GASPRICE DIV DUP4 PUSH1 0x20 ADD MLOAD PUSH4 0xFFFFFFFF AND DUP5 PUSH1 0x0 ADD MLOAD PUSH4 0xFFFFFFFF AND PUSH2 0x45ED JUMP JUMPDEST SWAP1 POP PUSH1 0x10 CALLDATASIZE MUL PUSH1 0x0 GAS SWAP1 POP PUSH1 0x0 PUSH2 0x448E DUP9 PUSH4 0xFFFFFFFF AND DUP6 DUP6 DUP6 PUSH2 0x4613 JUMP JUMPDEST PUSH1 0x1 PUSH1 0x1 PUSH1 0x80 SHL SUB AND SWAP1 POP PUSH1 0x0 PUSH3 0xF4240 DUP7 PUSH1 0x40 ADD MLOAD PUSH4 0xFFFFFFFF AND DUP4 MUL DUP2 PUSH2 0x44B3 JUMPI INVALID JUMPDEST DIV SWAP1 POP DUP6 PUSH1 0x80 ADD MLOAD PUSH4 0xFFFFFFFF AND PUSH4 0x3B9ACA00 MUL DUP2 PUSH1 0x9 DUP10 PUSH1 0x0 ADD MLOAD PUSH1 0xFF AND PUSH1 0x1F DUP2 LT PUSH2 0x44DC JUMPI INVALID JUMPDEST ADD SLOAD ADD ADD PUSH1 0x9 DUP9 PUSH1 0x0 ADD MLOAD PUSH1 0xFF AND PUSH1 0x1F DUP2 LT PUSH2 0x44F4 JUMPI INVALID JUMPDEST ADD SSTORE POP POP POP POP POP POP POP POP POP JUMP JUMPDEST PUSH1 0x4 SLOAD PUSH1 0x1 PUSH1 0x1 PUSH1 0xA0 SHL SUB SWAP1 DUP2 AND SWAP1 DUP3 AND DUP2 EQ PUSH2 0xF90 JUMPI PUSH1 0x4 DUP1 SLOAD PUSH1 0x1 PUSH1 0x1 PUSH1 0xA0 SHL SUB NOT AND PUSH1 0x1 PUSH1 0x1 PUSH1 0xA0 SHL SUB DUP5 DUP2 AND SWAP2 DUP3 OR SWAP1 SWAP3 SSTORE PUSH1 0x40 DUP1 MLOAD SWAP3 DUP5 AND DUP4 MSTORE PUSH1 0x20 DUP4 ADD SWAP2 SWAP1 SWAP2 MSTORE DUP1 MLOAD PUSH32 0x793CB73064F3C8CDE7E187AE515511E6E56D1EE89BF08B82FA60FB70F8D48912 SWAP3 DUP2 SWAP1 SUB SWAP1 SWAP2 ADD SWAP1 LOG1 POP POP JUMP JUMPDEST PUSH2 0x4580 PUSH2 0x46E9 JUMP JUMPDEST PUSH1 0x0 JUMPDEST DUP4 MLOAD DUP2 LT ISZERO PUSH2 0x45E5 JUMPI PUSH1 0x0 DUP5 DUP3 DUP2 MLOAD DUP2 LT PUSH2 0x459A JUMPI INVALID JUMPDEST ADD PUSH1 0x20 ADD MLOAD PUSH1 0xF8 SHR SWAP1 POP PUSH2 0x45BF DUP5 DUP3 PUSH1 0x1F DUP2 LT PUSH2 0x45B3 JUMPI INVALID JUMPDEST PUSH1 0x20 MUL ADD MLOAD PUSH1 0x1 PUSH2 0x4696 JUMP JUMPDEST DUP5 DUP3 PUSH1 0xFF AND PUSH1 0x1F DUP2 LT PUSH2 0x45CE JUMPI INVALID JUMPDEST PUSH2 0xFFFF SWAP1 SWAP3 AND PUSH1 0x20 SWAP3 SWAP1 SWAP3 MUL ADD MSTORE POP PUSH1 0x1 ADD PUSH2 0x4583 JUMP JUMPDEST POP SWAP1 SWAP3 SWAP2 POP POP JUMP JUMPDEST PUSH1 0x0 DUP4 DUP4 DUP2 LT ISZERO PUSH2 0x4600 JUMPI PUSH1 0x2 DUP6 DUP6 SUB DIV ADD JUMPDEST PUSH2 0x460A DUP2 DUP5 PUSH2 0x41AF JUMP JUMPDEST SWAP6 SWAP5 POP POP POP POP POP JUMP JUMPDEST PUSH1 0x0 DUP2 DUP6 LT ISZERO PUSH2 0x466A JUMPI PUSH1 0x40 DUP1 MLOAD PUSH3 0x461BCD PUSH1 0xE5 SHL DUP2 MSTORE PUSH1 0x20 PUSH1 0x4 DUP3 ADD DUP2 SWAP1 MSTORE PUSH1 0x24 DUP3 ADD MSTORE PUSH32 0x6761734C6566742063616E6E6F742065786365656420696E697469616C476173 PUSH1 0x44 DUP3 ADD MSTORE SWAP1 MLOAD SWAP1 DUP2 SWAP1 SUB PUSH1 0x64 ADD SWAP1 REVERT JUMPDEST DUP2 DUP6 SUB DUP4 ADD PUSH2 0x1793 ADD PUSH4 0x3B9ACA00 DUP6 DUP3 MUL MUL PUSH1 0x1 PUSH1 0x1 PUSH1 0x80 SHL SUB DUP2 LT PUSH2 0x468C JUMPI INVALID JUMPDEST SWAP7 SWAP6 POP POP POP POP POP POP JUMP JUMPDEST PUSH1 0x0 PUSH2 0x46AE DUP3 PUSH2 0xFFFF AND DUP5 PUSH2 0xFFFF AND ADD PUSH2 0xFFFF PUSH2 0x41AF JUMP JUMPDEST SWAP4 SWAP3 POP POP POP JUMP JUMPDEST PUSH1 0x40 MLOAD DUP1 PUSH1 0xA0 ADD PUSH1 0x40 MSTORE DUP1 PUSH2 0x46C8 PUSH2 0x47E3 JUMP JUMPDEST DUP2 MSTORE PUSH1 0x60 PUSH1 0x20 DUP3 ADD DUP2 SWAP1 MSTORE PUSH1 0x40 DUP3 ADD DUP2 SWAP1 MSTORE DUP1 DUP3 ADD MSTORE PUSH1 0x0 PUSH1 0x80 SWAP1 SWAP2 ADD MSTORE SWAP1 JUMP JUMPDEST PUSH1 0x40 MLOAD DUP1 PUSH2 0x3E0 ADD PUSH1 0x40 MSTORE DUP1 PUSH1 0x1F SWAP1 PUSH1 0x20 DUP3 MUL DUP1 CALLDATASIZE DUP4 CALLDATACOPY POP SWAP2 SWAP3 SWAP2 POP POP JUMP JUMPDEST PUSH1 0x40 DUP1 MLOAD DUP1 DUP3 ADD SWAP1 SWAP2 MSTORE PUSH1 0x0 DUP1 DUP3 MSTORE PUSH1 0x20 DUP3 ADD MSTORE SWAP1 JUMP JUMPDEST PUSH1 0x2 DUP4 ADD SWAP2 DUP4 SWAP1 DUP3 ISZERO PUSH2 0x47A5 JUMPI SWAP2 PUSH1 0x20 MUL DUP3 ADD PUSH1 0x0 JUMPDEST DUP4 DUP3 GT ISZERO PUSH2 0x4775 JUMPI DUP4 MLOAD DUP4 DUP3 PUSH2 0x100 EXP DUP2 SLOAD DUP2 PUSH2 0xFFFF MUL NOT AND SWAP1 DUP4 PUSH2 0xFFFF AND MUL OR SWAP1 SSTORE POP SWAP3 PUSH1 0x20 ADD SWAP3 PUSH1 0x2 ADD PUSH1 0x20 DUP2 PUSH1 0x1 ADD DIV SWAP3 DUP4 ADD SWAP3 PUSH1 0x1 SUB MUL PUSH2 0x4735 JUMP JUMPDEST DUP1 ISZERO PUSH2 0x47A3 JUMPI DUP3 DUP2 PUSH2 0x100 EXP DUP2 SLOAD SWAP1 PUSH2 0xFFFF MUL NOT AND SWAP1 SSTORE PUSH1 0x2 ADD PUSH1 0x20 DUP2 PUSH1 0x1 ADD DIV SWAP3 DUP4 ADD SWAP3 PUSH1 0x1 SUB MUL PUSH2 0x4775 JUMP JUMPDEST POP JUMPDEST POP PUSH2 0x47B1 SWAP3 SWAP2 POP PUSH2 0x480A JUMP JUMPDEST POP SWAP1 JUMP JUMPDEST DUP3 PUSH1 0x1F DUP2 ADD SWAP3 DUP3 ISZERO PUSH2 0x47A5 JUMPI SWAP2 PUSH1 0x20 MUL DUP3 ADD JUMPDEST DUP3 DUP2 GT ISZERO PUSH2 0x47A5 JUMPI DUP3 MLOAD DUP3 SSTORE SWAP2 PUSH1 0x20 ADD SWAP2 SWAP1 PUSH1 0x1 ADD SWAP1 PUSH2 0x47C8 JUMP JUMPDEST PUSH1 0x40 DUP1 MLOAD PUSH1 0x80 DUP2 ADD DUP3 MSTORE PUSH1 0x0 DUP1 DUP3 MSTORE PUSH1 0x20 DUP3 ADD DUP2 SWAP1 MSTORE SWAP2 DUP2 ADD DUP3 SWAP1 MSTORE PUSH1 0x60 DUP2 ADD SWAP2 SWAP1 SWAP2 MSTORE SWAP1 JUMP JUMPDEST JUMPDEST DUP1 DUP3 GT ISZERO PUSH2 0x47B1 JUMPI PUSH1 0x0 DUP2 SSTORE PUSH1 0x1 ADD PUSH2 0x480B JUMP INVALID PUSH16 0x7261636C652061646472657373657320 PUSH16 0x7574206F662072656769737472617469 PUSH16 0x6E4F6E6C792063616C6C61626C652062 PUSH26 0x206F776E657200000000000000000000A2646970667358221220 EQ RETURNDATASIZE 0xC0 0xBB 0x4D NUMBER DUP14 SMOD 0x2C DUP13 PUSH25 0x30CC9B18B29538EC4F7089DA57E2FC0B1E2C285D8664736F6C PUSH4 0x43000706 STOP CALLER "
		},
		"gasEstimates": {
			"creation": {
				"codeDepositCost": "3717000",
				"executionCost": "infinite",
				"totalCost": "infinite"
			},
			"external": {
				"acceptOwnership()": "44311",
				"acceptPayeeship(address)": "44909",
				"billingAccessController()": "1105",
				"decimals()": "infinite",
				"description()": "infinite",
				"getAnswer(uint256)": "1254",
				"getBilling()": "1464",
				"getLinkToken()": "1081",
				"getRoundData(uint80)": "infinite",
				"getTimestamp(uint256)": "1289",
				"latestAnswer()": "1980",
				"latestConfigDetails()": "1971",
				"latestRound()": "1155",
				"latestRoundData()": "2336",
				"latestTimestamp()": "1992",
				"latestTransmissionDetails()": "2332",
				"linkAvailableForPayment()": "infinite",
				"maxAnswer()": "infinite",
				"minAnswer()": "infinite",
				"oracleObservationCount(address)": "4014",
				"owedPayment(address)": "5857",
				"owner()": "1148",
				"requestNewRound()": "infinite",
				"requesterAccessController()": "1105",
				"setBilling(uint32,uint32,uint32,uint32,uint32)": "infinite",
				"setBillingAccessController(address)": "infinite",
				"setConfig(address[],address[],uint8,uint64,bytes)": "infinite",
				"setLinkToken(address,address)": "infinite",
				"setPayees(address[],address[])": "infinite",
				"setRequesterAccessController(address)": "infinite",
				"setValidatorConfig(address,uint32)": "infinite",
				"setValueTracker(address)": "21140",
				"transferOwnership(address)": "infinite",
				"transferPayeeship(address,address)": "24183",
				"transmit(bytes,bytes32[],bytes32[],bytes32)": "infinite",
				"transmitters()": "infinite",
				"typeAndVersion()": "infinite",
				"validatorConfig()": "1289",
				"version()": "288",
				"withdrawFunds(address,uint256)": "infinite",
				"withdrawPayment(address)": "infinite"
			},
			"internal": {
				"configDigestFromConfigData(address,uint64,address[] calldata,address[] calldata,uint8,uint64,bytes calldata)": "infinite",
				"decodeReport(bytes memory)": "infinite",
				"expectedMsgDataLength(bytes calldata,bytes32[] calldata,bytes32[] calldata)": "67",
				"validateAnswer(uint32,int256)": "infinite"
			}
		},
		"methodIdentifiers": {
			"acceptOwnership()": "79ba5097",
			"acceptPayeeship(address)": "b121e147",
			"billingAccessController()": "996e8298",
			"decimals()": "313ce567",
			"description()": "7284e416",
			"getAnswer(uint256)": "b5ab58dc",
			"getBilling()": "29937268",
			"getLinkToken()": "e76d5168",
			"getRoundData(uint80)": "9a6fc8f5",
			"getTimestamp(uint256)": "b633620c",
			"latestAnswer()": "50d25bcd",
			"latestConfigDetails()": "81ff7048",
			"latestRound()": "668a0f02",
			"latestRoundData()": "feaf968c",
			"latestTimestamp()": "8205bf6a",
			"latestTransmissionDetails()": "e5fe4577",
			"linkAvailableForPayment()": "d09dc339",
			"maxAnswer()": "70da2f67",
			"minAnswer()": "22adbc78",
			"oracleObservationCount(address)": "e4902f82",
			"owedPayment(address)": "0eafb25b",
			"owner()": "8da5cb5b",
			"requestNewRound()": "98e5b12a",
			"requesterAccessController()": "70efdf2d",
			"setBilling(uint32,uint32,uint32,uint32,uint32)": "bd824706",
			"setBillingAccessController(address)": "fbffd2c1",
			"setConfig(address[],address[],uint8,uint64,bytes)": "585aa7de",
			"setLinkToken(address,address)": "4fb17470",
			"setPayees(address[],address[])": "9c849b30",
			"setRequesterAccessController(address)": "9e3ceeab",
			"setValidatorConfig(address,uint32)": "eb457163",
			"setValueTracker(address)": "b3d526fa",
			"transferOwnership(address)": "f2fde38b",
			"transferPayeeship(address,address)": "eb5dcd6c",
			"transmit(bytes,bytes32[],bytes32[],bytes32)": "c9807539",
			"transmitters()": "81411834",
			"typeAndVersion()": "181f5a77",
			"validatorConfig()": "8e0566de",
			"version()": "54fd4d50",
			"withdrawFunds(address,uint256)": "c1075329",
			"withdrawPayment(address)": "8ac28d5a"
		}
	},
	"abi": [
		{
			"inputs": [
				{
					"internalType": "uint32",
					"name": "_maximumGasPrice",
					"type": "uint32"
				},
				{
					"internalType": "uint32",
					"name": "_reasonableGasPrice",
					"type": "uint32"
				},
				{
					"internalType": "uint32",
					"name": "_microLinkPerEth",
					"type": "uint32"
				},
				{
					"internalType": "uint32",
					"name": "_linkGweiPerObservation",
					"type": "uint32"
				},
				{
					"internalType": "uint32",
					"name": "_linkGweiPerTransmission",
					"type": "uint32"
				},
				{
					"internalType": "contract LinkTokenInterface",
					"name": "_link",
					"type": "address"
				},
				{
					"internalType": "int192",
					"name": "_minAnswer",
					"type": "int192"
				},
				{
					"internalType": "int192",
					"name": "_maxAnswer",
					"type": "int192"
				},
				{
					"internalType": "contract AccessControllerInterface",
					"name": "_billingAccessController",
					"type": "address"
				},
				{
					"internalType": "contract AccessControllerInterface",
					"name": "_requesterAccessController",
					"type": "address"
				},
				{
					"internalType": "uint8",
					"name": "_decimals",
					"type": "uint8"
				},
				{
					"internalType": "string",
					"name": "_description",
					"type": "string"
				}
			],
			"stateMutability": "nonpayable",
			"type": "constructor"
		},
		{
			"anonymous": false,
			"inputs": [
				{
					"indexed": true,
					"internalType": "int256",
					"name": "current",
					"type": "int256"
				},
				{
					"indexed": true,
					"internalType": "uint256",
					"name": "roundId",
					"type": "uint256"
				},
				{
					"indexed": false,
					"internalType": "uint256",
					"name": "updatedAt",
					"type": "uint256"
				}
			],
			"name": "AnswerUpdated",
			"type": "event"
		},
		{
			"anonymous": false,
			"inputs": [
				{
					"indexed": false,
					"internalType": "contract AccessControllerInterface",
					"name": "old",
					"type": "address"
				},
				{
					"indexed": false,
					"internalType": "contract AccessControllerInterface",
					"name": "current",
					"type": "address"
				}
			],
			"name": "BillingAccessControllerSet",
			"type": "event"
		},
		{
			"anonymous": false,
			"inputs": [
				{
					"indexed": false,
					"internalType": "uint32",
					"name": "maximumGasPrice",
					"type": "uint32"
				},
				{
					"indexed": false,
					"internalType": "uint32",
					"name": "reasonableGasPrice",
					"type": "uint32"
				},
				{
					"indexed": false,
					"internalType": "uint32",
					"name": "microLinkPerEth",
					"type": "uint32"
				},
				{
					"indexed": false,
					"internalType": "uint32",
					"name": "linkGweiPerObservation",
					"type": "uint32"
				},
				{
					"indexed": false,
					"internalType": "uint32",
					"name": "linkGweiPerTransmission",
					"type": "uint32"
				}
			],
			"name": "BillingSet",
			"type": "event"
		},
		{
			"anonymous": false,
			"inputs": [
				{
					"indexed": false,
					"internalType": "uint32",
					"name": "previousConfigBlockNumber",
					"type": "uint32"
				},
				{
					"indexed": false,
					"internalType": "uint64",
					"name": "configCount",
					"type": "uint64"
				},
				{
					"indexed": false,
					"internalType": "address[]",
					"name": "signers",
					"type": "address[]"
				},
				{
					"indexed": false,
					"internalType": "address[]",
					"name": "transmitters",
					"type": "address[]"
				},
				{
					"indexed": false,
					"internalType": "uint8",
					"name": "threshold",
					"type": "uint8"
				},
				{
					"indexed": false,
					"internalType": "uint64",
					"name": "encodedConfigVersion",
					"type": "uint64"
				},
				{
					"indexed": false,
					"internalType": "bytes",
					"name": "encoded",
					"type": "bytes"
				}
			],
			"name": "ConfigSet",
			"type": "event"
		},
		{
			"anonymous": false,
			"inputs": [
				{
					"indexed": true,
					"internalType": "contract LinkTokenInterface",
					"name": "_oldLinkToken",
					"type": "address"
				},
				{
					"indexed": true,
					"internalType": "contract LinkTokenInterface",
					"name": "_newLinkToken",
					"type": "address"
				}
			],
			"name": "LinkTokenSet",
			"type": "event"
		},
		{
			"anonymous": false,
			"inputs": [
				{
					"indexed": true,
					"internalType": "uint256",
					"name": "roundId",
					"type": "uint256"
				},
				{
					"indexed": true,
					"internalType": "address",
					"name": "startedBy",
					"type": "address"
				},
				{
					"indexed": false,
					"internalType": "uint256",
					"name": "startedAt",
					"type": "uint256"
				}
			],
			"name": "NewRound",
			"type": "event"
		},
		{
			"anonymous": false,
			"inputs": [
				{
					"indexed": true,
					"internalType": "uint32",
					"name": "aggregatorRoundId",
					"type": "uint32"
				},
				{
					"indexed": false,
					"internalType": "int192",
					"name": "answer",
					"type": "int192"
				},
				{
					"indexed": false,
					"internalType": "address",
					"name": "transmitter",
					"type": "address"
				},
				{
					"indexed": false,
					"internalType": "int192[]",
					"name": "observations",
					"type": "int192[]"
				},
				{
					"indexed": false,
					"internalType": "bytes",
					"name": "observers",
					"type": "bytes"
				},
				{
					"indexed": false,
					"internalType": "bytes32",
					"name": "rawReportContext",
					"type": "bytes32"
				}
			],
			"name": "NewTransmission",
			"type": "event"
		},
		{
			"anonymous": false,
			"inputs": [
				{
					"indexed": true,
					"internalType": "address",
					"name": "transmitter",
					"type": "address"
				},
				{
					"indexed": true,
					"internalType": "address",
					"name": "payee",
					"type": "address"
				},
				{
					"indexed": false,
					"internalType": "uint256",
					"name": "amount",
					"type": "uint256"
				},
				{
					"indexed": true,
					"internalType": "contract LinkTokenInterface",
					"name": "linkToken",
					"type": "address"
				}
			],
			"name": "OraclePaid",
			"type": "event"
		},
		{
			"anonymous": false,
			"inputs": [
				{
					"indexed": true,
					"internalType": "address",
					"name": "from",
					"type": "address"
				},
				{
					"indexed": true,
					"internalType": "address",
					"name": "to",
					"type": "address"
				}
			],
			"name": "OwnershipTransferRequested",
			"type": "event"
		},
		{
			"anonymous": false,
			"inputs": [
				{
					"indexed": true,
					"internalType": "address",
					"name": "from",
					"type": "address"
				},
				{
					"indexed": true,
					"internalType": "address",
					"name": "to",
					"type": "address"
				}
			],
			"name": "OwnershipTransferred",
			"type": "event"
		},
		{
			"anonymous": false,
			"inputs": [
				{
					"indexed": true,
					"internalType": "address",
					"name": "transmitter",
					"type": "address"
				},
				{
					"indexed": true,
					"internalType": "address",
					"name": "current",
					"type": "address"
				},
				{
					"indexed": true,
					"internalType": "address",
					"name": "proposed",
					"type": "address"
				}
			],
			"name": "PayeeshipTransferRequested",
			"type": "event"
		},
		{
			"anonymous": false,
			"inputs": [
				{
					"indexed": true,
					"internalType": "address",
					"name": "transmitter",
					"type": "address"
				},
				{
					"indexed": true,
					"internalType": "address",
					"name": "previous",
					"type": "address"
				},
				{
					"indexed": true,
					"internalType": "address",
					"name": "current",
					"type": "address"
				}
			],
			"name": "PayeeshipTransferred",
			"type": "event"
		},
		{
			"anonymous": false,
			"inputs": [
				{
					"indexed": false,
					"internalType": "contract AccessControllerInterface",
					"name": "old",
					"type": "address"
				},
				{
					"indexed": false,
					"internalType": "contract AccessControllerInterface",
					"name": "current",
					"type": "address"
				}
			],
			"name": "RequesterAccessControllerSet",
			"type": "event"
		},
		{
			"anonymous": false,
			"inputs": [
				{
					"indexed": true,
					"internalType": "address",
					"name": "requester",
					"type": "address"
				},
				{
					"indexed": false,
					"internalType": "bytes16",
					"name": "configDigest",
					"type": "bytes16"
				},
				{
					"indexed": false,
					"internalType": "uint32",
					"name": "epoch",
					"type": "uint32"
				},
				{
					"indexed": false,
					"internalType": "uint8",
					"name": "round",
					"type": "uint8"
				}
			],
			"name": "RoundRequested",
			"type": "event"
		},
		{
			"anonymous": false,
			"inputs": [
				{
					"indexed": true,
					"internalType": "contract AggregatorValidatorInterface",
					"name": "previousValidator",
					"type": "address"
				},
				{
					"indexed": false,
					"internalType": "uint32",
					"name": "previousGasLimit",
					"type": "uint32"
				},
				{
					"indexed": true,
					"internalType": "contract AggregatorValidatorInterface",
					"name": "currentValidator",
					"type": "address"
				},
				{
					"indexed": false,
					"internalType": "uint32",
					"name": "currentGasLimit",
					"type": "uint32"
				}
			],
			"name": "ValidatorConfigSet",
			"type": "event"
		},
		{
			"inputs": [],
			"name": "acceptOwnership",
			"outputs": [],
			"stateMutability": "nonpayable",
			"type": "function"
		},
		{
			"inputs": [
				{
					"internalType": "address",
					"name": "_transmitter",
					"type": "address"
				}
			],
			"name": "acceptPayeeship",
			"outputs": [],
			"stateMutability": "nonpayable",
			"type": "function"
		},
		{
			"inputs": [],
			"name": "billingAccessController",
			"outputs": [
				{
					"internalType": "contract AccessControllerInterface",
					"name": "",
					"type": "address"
				}
			],
			"stateMutability": "view",
			"type": "function"
		},
		{
			"inputs": [],
			"name": "decimals",
			"outputs": [
				{
					"internalType": "uint8",
					"name": "",
					"type": "uint8"
				}
			],
			"stateMutability": "view",
			"type": "function"
		},
		{
			"inputs": [],
			"name": "description",
			"outputs": [
				{
					"internalType": "string",
					"name": "",
					"type": "string"
				}
			],
			"stateMutability": "view",
			"type": "function"
		},
		{
			"inputs": [
				{
					"internalType": "uint256",
					"name": "_roundId",
					"type": "uint256"
				}
			],
			"name": "getAnswer",
			"outputs": [
				{
					"internalType": "int256",
					"name": "",
					"type": "int256"
				}
			],
			"stateMutability": "view",
			"type": "function"
		},
		{
			"inputs": [],
			"name": "getBilling",
			"outputs": [
				{
					"internalType": "uint32",
					"name": "maximumGasPrice",
					"type": "uint32"
				},
				{
					"internalType": "uint32",
					"name": "reasonableGasPrice",
					"type": "uint32"
				},
				{
					"internalType": "uint32",
					"name": "microLinkPerEth",
					"type": "uint32"
				},
				{
					"internalType": "uint32",
					"name": "linkGweiPerObservation",
					"type": "uint32"
				},
				{
					"internalType": "uint32",
					"name": "linkGweiPerTransmission",
					"type": "uint32"
				}
			],
			"stateMutability": "view",
			"type": "function"
		},
		{
			"inputs": [],
			"name": "getLinkToken",
			"outputs": [
				{
					"internalType": "contract LinkTokenInterface",
					"name": "linkToken",
					"type": "address"
				}
			],
			"stateMutability": "view",
			"type": "function"
		},
		{
			"inputs": [
				{
					"internalType": "uint80",
					"name": "_roundId",
					"type": "uint80"
				}
			],
			"name": "getRoundData",
			"outputs": [
				{
					"internalType": "uint80",
					"name": "roundId",
					"type": "uint80"
				},
				{
					"internalType": "int256",
					"name": "answer",
					"type": "int256"
				},
				{
					"internalType": "uint256",
					"name": "startedAt",
					"type": "uint256"
				},
				{
					"internalType": "uint256",
					"name": "updatedAt",
					"type": "uint256"
				},
				{
					"internalType": "uint80",
					"name": "answeredInRound",
					"type": "uint80"
				}
			],
			"stateMutability": "view",
			"type": "function"
		},
		{
			"inputs": [
				{
					"internalType": "uint256",
					"name": "_roundId",
					"type": "uint256"
				}
			],
			"name": "getTimestamp",
			"outputs": [
				{
					"internalType": "uint256",
					"name": "",
					"type": "uint256"
				}
			],
			"stateMutability": "view",
			"type": "function"
		},
		{
			"inputs": [],
			"name": "latestAnswer",
			"outputs": [
				{
					"internalType": "int256",
					"name": "",
					"type": "int256"
				}
			],
			"stateMutability": "view",
			"type": "function"
		},
		{
			"inputs": [],
			"name": "latestConfigDetails",
			"outputs": [
				{
					"internalType": "uint32",
					"name": "configCount",
					"type": "uint32"
				},
				{
					"internalType": "uint32",
					"name": "blockNumber",
					"type": "uint32"
				},
				{
					"internalType": "bytes16",
					"name": "configDigest",
					"type": "bytes16"
				}
			],
			"stateMutability": "view",
			"type": "function"
		},
		{
			"inputs": [],
			"name": "latestRound",
			"outputs": [
				{
					"internalType": "uint256",
					"name": "",
					"type": "uint256"
				}
			],
			"stateMutability": "view",
			"type": "function"
		},
		{
			"inputs": [],
			"name": "latestRoundData",
			"outputs": [
				{
					"internalType": "uint80",
					"name": "roundId",
					"type": "uint80"
				},
				{
					"internalType": "int256",
					"name": "answer",
					"type": "int256"
				},
				{
					"internalType": "uint256",
					"name": "startedAt",
					"type": "uint256"
				},
				{
					"internalType": "uint256",
					"name": "updatedAt",
					"type": "uint256"
				},
				{
					"internalType": "uint80",
					"name": "answeredInRound",
					"type": "uint80"
				}
			],
			"stateMutability": "view",
			"type": "function"
		},
		{
			"inputs": [],
			"name": "latestTimestamp",
			"outputs": [
				{
					"internalType": "uint256",
					"name": "",
					"type": "uint256"
				}
			],
			"stateMutability": "view",
			"type": "function"
		},
		{
			"inputs": [],
			"name": "latestTransmissionDetails",
			"outputs": [
				{
					"internalType": "bytes16",
					"name": "configDigest",
					"type": "bytes16"
				},
				{
					"internalType": "uint32",
					"name": "epoch",
					"type": "uint32"
				},
				{
					"internalType": "uint8",
					"name": "round",
					"type": "uint8"
				},
				{
					"internalType": "int192",
					"name": "latestAnswer",
					"type": "int192"
				},
				{
					"internalType": "uint64",
					"name": "latestTimestamp",
					"type": "uint64"
				}
			],
			"stateMutability": "view",
			"type": "function"
		},
		{
			"inputs": [],
			"name": "linkAvailableForPayment",
			"outputs": [
				{
					"internalType": "int256",
					"name": "availableBalance",
					"type": "int256"
				}
			],
			"stateMutability": "view",
			"type": "function"
		},
		{
			"inputs": [],
			"name": "maxAnswer",
			"outputs": [
				{
					"internalType": "int192",
					"name": "",
					"type": "int192"
				}
			],
			"stateMutability": "view",
			"type": "function"
		},
		{
			"inputs": [],
			"name": "minAnswer",
			"outputs": [
				{
					"internalType": "int192",
					"name": "",
					"type": "int192"
				}
			],
			"stateMutability": "view",
			"type": "function"
		},
		{
			"inputs": [
				{
					"internalType": "address",
					"name": "_signerOrTransmitter",
					"type": "address"
				}
			],
			"name": "oracleObservationCount",
			"outputs": [
				{
					"internalType": "uint16",
					"name": "",
					"type": "uint16"
				}
			],
			"stateMutability": "view",
			"type": "function"
		},
		{
			"inputs": [
				{
					"internalType": "address",
					"name": "_transmitter",
					"type": "address"
				}
			],
			"name": "owedPayment",
			"outputs": [
				{
					"internalType": "uint256",
					"name": "",
					"type": "uint256"
				}
			],
			"stateMutability": "view",
			"type": "function"
		},
		{
			"inputs": [],
			"name": "owner",
			"outputs": [
				{
					"internalType": "address payable",
					"name": "",
					"type": "address"
				}
			],
			"stateMutability": "view",
			"type": "function"
		},
		{
			"inputs": [],
			"name": "requestNewRound",
			"outputs": [
				{
					"internalType": "uint80",
					"name": "",
					"type": "uint80"
				}
			],
			"stateMutability": "nonpayable",
			"type": "function"
		},
		{
			"inputs": [],
			"name": "requesterAccessController",
			"outputs": [
				{
					"internalType": "contract AccessControllerInterface",
					"name": "",
					"type": "address"
				}
			],
			"stateMutability": "view",
			"type": "function"
		},
		{
			"inputs": [
				{
					"internalType": "uint32",
					"name": "_maximumGasPrice",
					"type": "uint32"
				},
				{
					"internalType": "uint32",
					"name": "_reasonableGasPrice",
					"type": "uint32"
				},
				{
					"internalType": "uint32",
					"name": "_microLinkPerEth",
					"type": "uint32"
				},
				{
					"internalType": "uint32",
					"name": "_linkGweiPerObservation",
					"type": "uint32"
				},
				{
					"internalType": "uint32",
					"name": "_linkGweiPerTransmission",
					"type": "uint32"
				}
			],
			"name": "setBilling",
			"outputs": [],
			"stateMutability": "nonpayable",
			"type": "function"
		},
		{
			"inputs": [
				{
					"internalType": "contract AccessControllerInterface",
					"name": "_billingAccessController",
					"type": "address"
				}
			],
			"name": "setBillingAccessController",
			"outputs": [],
			"stateMutability": "nonpayable",
			"type": "function"
		},
		{
			"inputs": [
				{
					"internalType": "address[]",
					"name": "_signers",
					"type": "address[]"
				},
				{
					"internalType": "address[]",
					"name": "_transmitters",
					"type": "address[]"
				},
				{
					"internalType": "uint8",
					"name": "_threshold",
					"type": "uint8"
				},
				{
					"internalType": "uint64",
					"name": "_encodedConfigVersion",
					"type": "uint64"
				},
				{
					"internalType": "bytes",
					"name": "_encoded",
					"type": "bytes"
				}
			],
			"name": "setConfig",
			"outputs": [],
			"stateMutability": "nonpayable",
			"type": "function"
		},
		{
			"inputs": [
				{
					"internalType": "contract LinkTokenInterface",
					"name": "_linkToken",
					"type": "address"
				},
				{
					"internalType": "address",
					"name": "_recipient",
					"type": "address"
				}
			],
			"name": "setLinkToken",
			"outputs": [],
			"stateMutability": "nonpayable",
			"type": "function"
		},
		{
			"inputs": [
				{
					"internalType": "address[]",
					"name": "_transmitters",
					"type": "address[]"
				},
				{
					"internalType": "address[]",
					"name": "_payees",
					"type": "address[]"
				}
			],
			"name": "setPayees",
			"outputs": [],
			"stateMutability": "nonpayable",
			"type": "function"
		},
		{
			"inputs": [
				{
					"internalType": "contract AccessControllerInterface",
					"name": "_requesterAccessController",
					"type": "address"
				}
			],
			"name": "setRequesterAccessController",
			"outputs": [],
			"stateMutability": "nonpayable",
			"type": "function"
		},
		{
			"inputs": [
				{
					"internalType": "contract AggregatorValidatorInterface",
					"name": "_newValidator",
					"type": "address"
				},
				{
					"internalType": "uint32",
					"name": "_newGasLimit",
					"type": "uint32"
				}
			],
			"name": "setValidatorConfig",
			"outputs": [],
			"stateMutability": "nonpayable",
			"type": "function"
		},
		{
			"inputs": [
				{
					"internalType": "address",
					"name": "addr",
					"type": "address"
				}
			],
			"name": "setValueTracker",
			"outputs": [],
			"stateMutability": "nonpayable",
			"type": "function"
		},
		{
			"inputs": [
				{
					"internalType": "address",
					"name": "_to",
					"type": "address"
				}
			],
			"name": "transferOwnership",
			"outputs": [],
			"stateMutability": "nonpayable",
			"type": "function"
		},
		{
			"inputs": [
				{
					"internalType": "address",
					"name": "_transmitter",
					"type": "address"
				},
				{
					"internalType": "address",
					"name": "_proposed",
					"type": "address"
				}
			],
			"name": "transferPayeeship",
			"outputs": [],
			"stateMutability": "nonpayable",
			"type": "function"
		},
		{
			"inputs": [
				{
					"internalType": "bytes",
					"name": "_report",
					"type": "bytes"
				},
				{
					"internalType": "bytes32[]",
					"name": "_rs",
					"type": "bytes32[]"
				},
				{
					"internalType": "bytes32[]",
					"name": "_ss",
					"type": "bytes32[]"
				},
				{
					"internalType": "bytes32",
					"name": "_rawVs",
					"type": "bytes32"
				}
			],
			"name": "transmit",
			"outputs": [],
			"stateMutability": "nonpayable",
			"type": "function"
		},
		{
			"inputs": [],
			"name": "transmitters",
			"outputs": [
				{
					"internalType": "address[]",
					"name": "",
					"type": "address[]"
				}
			],
			"stateMutability": "view",
			"type": "function"
		},
		{
			"inputs": [],
			"name": "typeAndVersion",
			"outputs": [
				{
					"internalType": "string",
					"name": "",
					"type": "string"
				}
			],
			"stateMutability": "pure",
			"type": "function"
		},
		{
			"inputs": [],
			"name": "validatorConfig",
			"outputs": [
				{
					"internalType": "contract AggregatorValidatorInterface",
					"name": "validator",
					"type": "address"
				},
				{
					"internalType": "uint32",
					"name": "gasLimit",
					"type": "uint32"
				}
			],
			"stateMutability": "view",
			"type": "function"
		},
		{
			"inputs": [],
			"name": "version",
			"outputs": [
				{
					"internalType": "uint256",
					"name": "",
					"type": "uint256"
				}
			],
			"stateMutability": "view",
			"type": "function"
		},
		{
			"inputs": [
				{
					"internalType": "address",
					"name": "_recipient",
					"type": "address"
				},
				{
					"internalType": "uint256",
					"name": "_amount",
					"type": "uint256"
				}
			],
			"name": "withdrawFunds",
			"outputs": [],
			"stateMutability": "nonpayable",
			"type": "function"
		},
		{
			"inputs": [
				{
					"internalType": "address",
					"name": "_transmitter",
					"type": "address"
				}
			],
			"name": "withdrawPayment",
			"outputs": [],
			"stateMutability": "nonpayable",
			"type": "function"
		}
	]
}