{
	"contracts/Decode.sol": {
		"Decode": {
			"abi": [
				{
					"inputs": [],
					"stateMutability": "nonpayable",
					"type": "constructor"
				},
				{
					"inputs": [
						{
							"internalType": "uint256[]",
							"name": "values",
							"type": "uint256[]"
						}
					],
					"name": "hash",
					"outputs": [
						{
							"internalType": "uint256",
							"name": "",
							"type": "uint256"
						}
					],
					"stateMutability": "pure",
					"type": "function"
				},
				{
					"inputs": [],
					"name": "value",
					"outputs": [
						{
							"internalType": "uint256",
							"name": "",
							"type": "uint256"
						}
					],
					"stateMutability": "view",
					"type": "function"
				}
			],
			"devdoc": {
				"kind": "dev",
				"methods": {},
				"version": 1
			},
			"evm": {
				"assembly": "    /* \"contracts/Decode.sol\":57:1046  contract Decode {... */\n  mstore(0x40, 0x80)\n    /* \"contracts/Decode.sol\":101:140  222674612520120847769739984565459710017 */\n  0xa78592067011a5fcb132a6afca437041\n    /* \"contracts/Decode.sol\":78:140  uint256 public value = 222674612520120847769739984565459710017 */\n  0x00\n  sstore\n    /* \"contracts/Decode.sol\":146:169  constructor() public {} */\n  callvalue\n  dup1\n  iszero\n  tag_1\n  jumpi\n  0x00\n  dup1\n  revert\ntag_1:\n  pop\n    /* \"contracts/Decode.sol\":57:1046  contract Decode {... */\n  dataSize(sub_0)\n  dup1\n  dataOffset(sub_0)\n  0x00\n  codecopy\n  0x00\n  return\nstop\n\nsub_0: assembly {\n        /* \"contracts/Decode.sol\":57:1046  contract Decode {... */\n      mstore(0x40, 0x80)\n      callvalue\n      dup1\n      iszero\n      tag_1\n      jumpi\n      0x00\n      dup1\n      revert\n    tag_1:\n      pop\n      jumpi(tag_2, lt(calldatasize, 0x04))\n      shr(0xe0, calldataload(0x00))\n      dup1\n      0x3fa4f245\n      eq\n      tag_3\n      jumpi\n      dup1\n      0x40ec6e49\n      eq\n      tag_4\n      jumpi\n    tag_2:\n      0x00\n      dup1\n      revert\n        /* \"contracts/Decode.sol\":78:140  uint256 public value = 222674612520120847769739984565459710017 */\n    tag_3:\n      tag_5\n      tag_6\n      jump\t// in\n    tag_5:\n      mload(0x40)\n      dup1\n      dup3\n      dup2\n      mstore\n      0x20\n      add\n      swap2\n      pop\n      pop\n      mload(0x40)\n      dup1\n      swap2\n      sub\n      swap1\n      return\n        /* \"contracts/Decode.sol\":174:456  function hash(uint256[] calldata values) public pure returns (uint256) {... */\n    tag_4:\n      tag_7\n      0x04\n      dup1\n      calldatasize\n      sub\n      0x20\n      dup2\n      lt\n      iszero\n      tag_8\n      jumpi\n      0x00\n      dup1\n      revert\n    tag_8:\n      dup2\n      add\n      swap1\n      dup1\n      dup1\n      calldataload\n      swap1\n      0x20\n      add\n      swap1\n      0x0100000000\n      dup2\n      gt\n      iszero\n      tag_9\n      jumpi\n      0x00\n      dup1\n      revert\n    tag_9:\n      dup3\n      add\n      dup4\n      0x20\n      dup3\n      add\n      gt\n      iszero\n      tag_10\n      jumpi\n      0x00\n      dup1\n      revert\n    tag_10:\n      dup1\n      calldataload\n      swap1\n      0x20\n      add\n      swap2\n      dup5\n      0x20\n      dup4\n      mul\n      dup5\n      add\n      gt\n      0x0100000000\n      dup4\n      gt\n      or\n      iszero\n      tag_11\n      jumpi\n      0x00\n      dup1\n      revert\n    tag_11:\n      swap1\n      swap2\n      swap3\n      swap4\n      swap2\n      swap3\n      swap4\n      swap1\n      pop\n      pop\n      pop\n      tag_12\n      jump\t// in\n    tag_7:\n      mload(0x40)\n      dup1\n      dup3\n      dup2\n      mstore\n      0x20\n      add\n      swap2\n      pop\n      pop\n      mload(0x40)\n      dup1\n      swap2\n      sub\n      swap1\n      return\n        /* \"contracts/Decode.sol\":78:140  uint256 public value = 222674612520120847769739984565459710017 */\n    tag_6:\n      sload(0x00)\n      dup2\n      jump\t// out\n        /* \"contracts/Decode.sol\":174:456  function hash(uint256[] calldata values) public pure returns (uint256) {... */\n    tag_12:\n        /* \"contracts/Decode.sol\":236:243  uint256 */\n      0x00\n        /* \"contracts/Decode.sol\":252:270  string memory data */\n      dup1\n        /* \"contracts/Decode.sol\":252:275  string memory data = \"\" */\n      mload(0x40)\n      dup1\n      0x20\n      add\n      0x40\n      mstore\n      dup1\n      0x00\n      dup2\n      mstore\n      pop\n      swap1\n      pop\n        /* \"contracts/Decode.sol\":286:292  uint i */\n      0x00\n        /* \"contracts/Decode.sol\":281:451  for (uint i=0; i<values.length; i++) {... */\n    tag_14:\n        /* \"contracts/Decode.sol\":298:304  values */\n      dup5\n      dup5\n        /* \"contracts/Decode.sol\":298:311  values.length */\n      swap1\n      pop\n        /* \"contracts/Decode.sol\":296:297  i */\n      dup2\n        /* \"contracts/Decode.sol\":296:311  i<values.length */\n      lt\n        /* \"contracts/Decode.sol\":281:451  for (uint i=0; i<values.length; i++) {... */\n      iszero\n      tag_15\n      jumpi\n        /* \"contracts/Decode.sol\":334:335  0 */\n      0x00\n        /* \"contracts/Decode.sol\":332:333  i */\n      dup2\n        /* \"contracts/Decode.sol\":332:335  i>0 */\n      gt\n        /* \"contracts/Decode.sol\":328:389  if (i>0){... */\n      iszero\n      tag_17\n      jumpi\n        /* \"contracts/Decode.sol\":355:378  stringConcat(data, \",\") */\n      tag_18\n        /* \"contracts/Decode.sol\":368:372  data */\n      dup3\n        /* \"contracts/Decode.sol\":355:378  stringConcat(data, \",\") */\n      mload(0x40)\n      dup1\n      0x40\n      add\n      0x40\n      mstore\n      dup1\n      0x01\n      dup2\n      mstore\n      0x20\n      add\n      0x2c00000000000000000000000000000000000000000000000000000000000000\n      dup2\n      mstore\n      pop\n        /* \"contracts/Decode.sol\":355:367  stringConcat */\n      tag_19\n        /* \"contracts/Decode.sol\":355:378  stringConcat(data, \",\") */\n      jump\t// in\n    tag_18:\n        /* \"contracts/Decode.sol\":348:378  data = stringConcat(data, \",\") */\n      swap2\n      pop\n        /* \"contracts/Decode.sol\":328:389  if (i>0){... */\n    tag_17:\n        /* \"contracts/Decode.sol\":405:444  stringConcat(data, uint2str(values[i])) */\n      tag_20\n        /* \"contracts/Decode.sol\":418:422  data */\n      dup3\n        /* \"contracts/Decode.sol\":424:443  uint2str(values[i]) */\n      tag_21\n        /* \"contracts/Decode.sol\":433:439  values */\n      dup8\n      dup8\n        /* \"contracts/Decode.sol\":440:441  i */\n      dup6\n        /* \"contracts/Decode.sol\":433:442  values[i] */\n      dup2\n      dup2\n      lt\n      tag_22\n      jumpi\n      invalid\n    tag_22:\n      swap1\n      pop\n      0x20\n      mul\n      add\n      calldataload\n        /* \"contracts/Decode.sol\":424:432  uint2str */\n      tag_23\n        /* \"contracts/Decode.sol\":424:443  uint2str(values[i]) */\n      jump\t// in\n    tag_21:\n        /* \"contracts/Decode.sol\":405:417  stringConcat */\n      tag_19\n        /* \"contracts/Decode.sol\":405:444  stringConcat(data, uint2str(values[i])) */\n      jump\t// in\n    tag_20:\n        /* \"contracts/Decode.sol\":398:444  data = stringConcat(data, uint2str(values[i])) */\n      swap2\n      pop\n        /* \"contracts/Decode.sol\":313:316  i++ */\n      dup1\n      dup1\n      0x01\n      add\n      swap2\n      pop\n      pop\n        /* \"contracts/Decode.sol\":281:451  for (uint i=0; i<values.length; i++) {... */\n      jump(tag_14)\n    tag_15:\n      pop\n        /* \"contracts/Decode.sol\":174:456  function hash(uint256[] calldata values) public pure returns (uint256) {... */\n      pop\n      swap3\n      swap2\n      pop\n      pop\n      jump\t// out\n        /* \"contracts/Decode.sol\":899:1043  function stringConcat(string memory a, string memory b) internal pure returns (string memory) {... */\n    tag_19:\n        /* \"contracts/Decode.sol\":978:991  string memory */\n      0x60\n        /* \"contracts/Decode.sol\":1031:1032  a */\n      dup3\n        /* \"contracts/Decode.sol\":1034:1035  b */\n      dup3\n        /* \"contracts/Decode.sol\":1014:1036  abi.encodePacked(a, b) */\n      add(0x20, mload(0x40))\n      dup1\n      dup4\n      dup1\n      mload\n      swap1\n      0x20\n      add\n      swap1\n      dup1\n      dup4\n      dup4\n    tag_25:\n      0x20\n      dup4\n      lt\n      tag_27\n      jumpi\n      dup1\n      mload\n      dup3\n      mstore\n      0x20\n      dup3\n      add\n      swap2\n      pop\n      0x20\n      dup2\n      add\n      swap1\n      pop\n      0x20\n      dup4\n      sub\n      swap3\n      pop\n      jump(tag_25)\n    tag_27:\n      0x01\n      dup4\n      0x20\n      sub\n      0x0100\n      exp\n      sub\n      dup1\n      not\n      dup3\n      mload\n      and\n      dup2\n      dup5\n      mload\n      and\n      dup1\n      dup3\n      or\n      dup6\n      mstore\n      pop\n      pop\n      pop\n      pop\n      pop\n      pop\n      swap1\n      pop\n      add\n      dup3\n      dup1\n      mload\n      swap1\n      0x20\n      add\n      swap1\n      dup1\n      dup4\n      dup4\n    tag_28:\n      0x20\n      dup4\n      lt\n      tag_30\n      jumpi\n      dup1\n      mload\n      dup3\n      mstore\n      0x20\n      dup3\n      add\n      swap2\n      pop\n      0x20\n      dup2\n      add\n      swap1\n      pop\n      0x20\n      dup4\n      sub\n      swap3\n      pop\n      jump(tag_28)\n    tag_30:\n      0x01\n      dup4\n      0x20\n      sub\n      0x0100\n      exp\n      sub\n      dup1\n      not\n      dup3\n      mload\n      and\n      dup2\n      dup5\n      mload\n      and\n      dup1\n      dup3\n      or\n      dup6\n      mstore\n      pop\n      pop\n      pop\n      pop\n      pop\n      pop\n      swap1\n      pop\n      add\n      swap3\n      pop\n      pop\n      pop\n      mload(0x40)\n      0x20\n      dup2\n      dup4\n      sub\n      sub\n      dup2\n      mstore\n      swap1\n      0x40\n      mstore\n        /* \"contracts/Decode.sol\":1000:1037  return string(abi.encodePacked(a, b)) */\n      swap1\n      pop\n        /* \"contracts/Decode.sol\":899:1043  function stringConcat(string memory a, string memory b) internal pure returns (string memory) {... */\n      swap3\n      swap2\n      pop\n      pop\n      jump\t// out\n        /* \"contracts/Decode.sol\":464:895  function uint2str(uint _i) internal pure returns (string memory _uintAsString) {... */\n    tag_23:\n        /* \"contracts/Decode.sol\":514:541  string memory _uintAsString */\n      0x60\n        /* \"contracts/Decode.sol\":561:562  0 */\n      0x00\n        /* \"contracts/Decode.sol\":555:557  _i */\n      dup3\n        /* \"contracts/Decode.sol\":555:562  _i == 0 */\n      eq\n        /* \"contracts/Decode.sol\":551:595  if (_i == 0) {... */\n      iszero\n      tag_32\n      jumpi\n        /* \"contracts/Decode.sol\":576:586  return \"0\" */\n      mload(0x40)\n      dup1\n      0x40\n      add\n      0x40\n      mstore\n      dup1\n      0x01\n      dup2\n      mstore\n      0x20\n      add\n      0x3000000000000000000000000000000000000000000000000000000000000000\n      dup2\n      mstore\n      pop\n      swap1\n      pop\n      jump(tag_31)\n        /* \"contracts/Decode.sol\":551:595  if (_i == 0) {... */\n    tag_32:\n        /* \"contracts/Decode.sol\":602:608  uint j */\n      0x00\n        /* \"contracts/Decode.sol\":611:613  _i */\n      dup3\n        /* \"contracts/Decode.sol\":602:613  uint j = _i */\n      swap1\n      pop\n        /* \"contracts/Decode.sol\":621:629  uint len */\n      0x00\n        /* \"contracts/Decode.sol\":637:697  while (j != 0) {... */\n    tag_33:\n        /* \"contracts/Decode.sol\":649:650  0 */\n      0x00\n        /* \"contracts/Decode.sol\":644:645  j */\n      dup3\n        /* \"contracts/Decode.sol\":644:650  j != 0 */\n      eq\n        /* \"contracts/Decode.sol\":637:697  while (j != 0) {... */\n      tag_34\n      jumpi\n        /* \"contracts/Decode.sol\":664:669  len++ */\n      dup1\n      dup1\n      0x01\n      add\n      swap2\n      pop\n      pop\n        /* \"contracts/Decode.sol\":686:688  10 */\n      0x0a\n        /* \"contracts/Decode.sol\":681:688  j /= 10 */\n      dup3\n      dup2\n      tag_35\n      jumpi\n      invalid\n    tag_35:\n      div\n      swap2\n      pop\n        /* \"contracts/Decode.sol\":637:697  while (j != 0) {... */\n      jump(tag_33)\n    tag_34:\n        /* \"contracts/Decode.sol\":704:721  bytes memory bstr */\n      0x00\n        /* \"contracts/Decode.sol\":734:737  len */\n      dup2\n        /* \"contracts/Decode.sol\":724:738  new bytes(len) */\n      0xffffffffffffffff\n      dup2\n      gt\n      dup1\n      iszero\n      tag_36\n      jumpi\n      0x00\n      dup1\n      revert\n    tag_36:\n      pop\n      mload(0x40)\n      swap1\n      dup1\n      dup3\n      mstore\n      dup1\n      0x1f\n      add\n      not(0x1f)\n      and\n      0x20\n      add\n      dup3\n      add\n      0x40\n      mstore\n      dup1\n      iszero\n      tag_37\n      jumpi\n      dup2\n      0x20\n      add\n      0x01\n      dup3\n      mul\n      dup1\n      calldatasize\n      dup4\n      calldatacopy\n      dup1\n      dup3\n      add\n      swap2\n      pop\n      pop\n      swap1\n      pop\n    tag_37:\n      pop\n        /* \"contracts/Decode.sol\":704:738  bytes memory bstr = new bytes(len) */\n      swap1\n      pop\n        /* \"contracts/Decode.sol\":746:752  uint k */\n      0x00\n        /* \"contracts/Decode.sol\":761:762  1 */\n      0x01\n        /* \"contracts/Decode.sol\":755:758  len */\n      dup4\n        /* \"contracts/Decode.sol\":755:762  len - 1 */\n      sub\n        /* \"contracts/Decode.sol\":746:762  uint k = len - 1 */\n      swap1\n      pop\n        /* \"contracts/Decode.sol\":770:864  while (_i != 0) {... */\n    tag_38:\n        /* \"contracts/Decode.sol\":783:784  0 */\n      0x00\n        /* \"contracts/Decode.sol\":777:779  _i */\n      dup7\n        /* \"contracts/Decode.sol\":777:784  _i != 0 */\n      eq\n        /* \"contracts/Decode.sol\":770:864  while (_i != 0) {... */\n      tag_39\n      jumpi\n        /* \"contracts/Decode.sol\":831:833  10 */\n      0x0a\n        /* \"contracts/Decode.sol\":826:828  _i */\n      dup7\n        /* \"contracts/Decode.sol\":826:833  _i % 10 */\n      dup2\n      tag_40\n      jumpi\n      invalid\n    tag_40:\n      mod\n        /* \"contracts/Decode.sol\":821:823  48 */\n      0x30\n        /* \"contracts/Decode.sol\":821:833  48 + _i % 10 */\n      add\n        /* \"contracts/Decode.sol\":810:835  byte(uint8(48 + _i % 10)) */\n      0xf8\n      shl\n        /* \"contracts/Decode.sol\":798:802  bstr */\n      dup3\n        /* \"contracts/Decode.sol\":803:806  k-- */\n      dup3\n      dup1\n      0x01\n      swap1\n      sub\n      swap4\n      pop\n        /* \"contracts/Decode.sol\":798:807  bstr[k--] */\n      dup2\n      mload\n      dup2\n      lt\n      tag_41\n      jumpi\n      invalid\n    tag_41:\n      0x20\n      add\n      add\n        /* \"contracts/Decode.sol\":798:835  bstr[k--] = byte(uint8(48 + _i % 10)) */\n      swap1\n      not(0xffffffffffffffffffffffffffffffffffffffffffffffffffffffffffffff)\n      and\n      swap1\n      dup2\n      0x00\n      byte\n      swap1\n      mstore8\n      pop\n        /* \"contracts/Decode.sol\":853:855  10 */\n      0x0a\n        /* \"contracts/Decode.sol\":847:855  _i /= 10 */\n      dup7\n      dup2\n      tag_42\n      jumpi\n      invalid\n    tag_42:\n      div\n      swap6\n      pop\n        /* \"contracts/Decode.sol\":770:864  while (_i != 0) {... */\n      jump(tag_38)\n    tag_39:\n        /* \"contracts/Decode.sol\":885:889  bstr */\n      dup2\n        /* \"contracts/Decode.sol\":871:890  return string(bstr) */\n      swap5\n      pop\n      pop\n      pop\n      pop\n      pop\n        /* \"contracts/Decode.sol\":464:895  function uint2str(uint _i) internal pure returns (string memory _uintAsString) {... */\n    tag_31:\n      swap2\n      swap1\n      pop\n      jump\t// out\n\n    auxdata: 0xa26469706673582212202e11b8888a7705d196b5d04d40e365b48bf5f76d4a509597d4ae9d771e36478964736f6c63430007060033\n}\n",
				"bytecode": {
					"linkReferences": {},
					"object": "60806040526fa78592067011a5fcb132a6afca43704160005534801561002457600080fd5b506103d7806100346000396000f3fe608060405234801561001057600080fd5b50600436106100365760003560e01c80633fa4f2451461003b57806340ec6e4914610059575b600080fd5b6100436100e6565b6040518082815260200191505060405180910390f35b6100d06004803603602081101561006f57600080fd5b810190808035906020019064010000000081111561008c57600080fd5b82018360208201111561009e57600080fd5b803590602001918460208302840111640100000000831117156100c057600080fd5b90919293919293905050506100ec565b6040518082815260200191505060405180910390f35b60005481565b60008060405180602001604052806000815250905060005b8484905081101561018d57600081111561015a57610157826040518060400160405280600181526020017f2c00000000000000000000000000000000000000000000000000000000000000815250610195565b91505b61017e8261017987878581811061016d57fe5b9050602002013561025d565b610195565b91508080600101915050610104565b505092915050565b606082826040516020018083805190602001908083835b602083106101cf57805182526020820191506020810190506020830392506101ac565b6001836020036101000a03801982511681845116808217855250505050505090500182805190602001908083835b6020831061022057805182526020820191506020810190506020830392506101fd565b6001836020036101000a03801982511681845116808217855250505050505090500192505050604051602081830303815290604052905092915050565b606060008214156102a5576040518060400160405280600181526020017f3000000000000000000000000000000000000000000000000000000000000000815250905061039c565b600082905060005b600082146102cf578080600101915050600a82816102c757fe5b0491506102ad565b60008167ffffffffffffffff811180156102e857600080fd5b506040519080825280601f01601f19166020018201604052801561031b5781602001600182028036833780820191505090505b50905060006001830390505b6000861461039457600a868161033957fe5b0660300160f81b8282806001900393508151811061035357fe5b60200101907effffffffffffffffffffffffffffffffffffffffffffffffffffffffffffff1916908160001a905350600a868161038c57fe5b049550610327565b819450505050505b91905056fea26469706673582212202e11b8888a7705d196b5d04d40e365b48bf5f76d4a509597d4ae9d771e36478964736f6c63430007060033",
					"opcodes": "PUSH1 0x80 PUSH1 0x40 MSTORE PUSH16 0xA78592067011A5FCB132A6AFCA437041 PUSH1 0x0 SSTORE CALLVALUE DUP1 ISZERO PUSH2 0x24 JUMPI PUSH1 0x0 DUP1 REVERT JUMPDEST POP PUSH2 0x3D7 DUP1 PUSH2 0x34 PUSH1 0x0 CODECOPY PUSH1 0x0 RETURN INVALID PUSH1 0x80 PUSH1 0x40 MSTORE CALLVALUE DUP1 ISZERO PUSH2 0x10 JUMPI PUSH1 0x0 DUP1 REVERT JUMPDEST POP PUSH1 0x4 CALLDATASIZE LT PUSH2 0x36 JUMPI PUSH1 0x0 CALLDATALOAD PUSH1 0xE0 SHR DUP1 PUSH4 0x3FA4F245 EQ PUSH2 0x3B JUMPI DUP1 PUSH4 0x40EC6E49 EQ PUSH2 0x59 JUMPI JUMPDEST PUSH1 0x0 DUP1 REVERT JUMPDEST PUSH2 0x43 PUSH2 0xE6 JUMP JUMPDEST PUSH1 0x40 MLOAD DUP1 DUP3 DUP2 MSTORE PUSH1 0x20 ADD SWAP2 POP POP PUSH1 0x40 MLOAD DUP1 SWAP2 SUB SWAP1 RETURN JUMPDEST PUSH2 0xD0 PUSH1 0x4 DUP1 CALLDATASIZE SUB PUSH1 0x20 DUP2 LT ISZERO PUSH2 0x6F JUMPI PUSH1 0x0 DUP1 REVERT JUMPDEST DUP2 ADD SWAP1 DUP1 DUP1 CALLDATALOAD SWAP1 PUSH1 0x20 ADD SWAP1 PUSH5 0x100000000 DUP2 GT ISZERO PUSH2 0x8C JUMPI PUSH1 0x0 DUP1 REVERT JUMPDEST DUP3 ADD DUP4 PUSH1 0x20 DUP3 ADD GT ISZERO PUSH2 0x9E JUMPI PUSH1 0x0 DUP1 REVERT JUMPDEST DUP1 CALLDATALOAD SWAP1 PUSH1 0x20 ADD SWAP2 DUP5 PUSH1 0x20 DUP4 MUL DUP5 ADD GT PUSH5 0x100000000 DUP4 GT OR ISZERO PUSH2 0xC0 JUMPI PUSH1 0x0 DUP1 REVERT JUMPDEST SWAP1 SWAP2 SWAP3 SWAP4 SWAP2 SWAP3 SWAP4 SWAP1 POP POP POP PUSH2 0xEC JUMP JUMPDEST PUSH1 0x40 MLOAD DUP1 DUP3 DUP2 MSTORE PUSH1 0x20 ADD SWAP2 POP POP PUSH1 0x40 MLOAD DUP1 SWAP2 SUB SWAP1 RETURN JUMPDEST PUSH1 0x0 SLOAD DUP2 JUMP JUMPDEST PUSH1 0x0 DUP1 PUSH1 0x40 MLOAD DUP1 PUSH1 0x20 ADD PUSH1 0x40 MSTORE DUP1 PUSH1 0x0 DUP2 MSTORE POP SWAP1 POP PUSH1 0x0 JUMPDEST DUP5 DUP5 SWAP1 POP DUP2 LT ISZERO PUSH2 0x18D JUMPI PUSH1 0x0 DUP2 GT ISZERO PUSH2 0x15A JUMPI PUSH2 0x157 DUP3 PUSH1 0x40 MLOAD DUP1 PUSH1 0x40 ADD PUSH1 0x40 MSTORE DUP1 PUSH1 0x1 DUP2 MSTORE PUSH1 0x20 ADD PUSH32 0x2C00000000000000000000000000000000000000000000000000000000000000 DUP2 MSTORE POP PUSH2 0x195 JUMP JUMPDEST SWAP2 POP JUMPDEST PUSH2 0x17E DUP3 PUSH2 0x179 DUP8 DUP8 DUP6 DUP2 DUP2 LT PUSH2 0x16D JUMPI INVALID JUMPDEST SWAP1 POP PUSH1 0x20 MUL ADD CALLDATALOAD PUSH2 0x25D JUMP JUMPDEST PUSH2 0x195 JUMP JUMPDEST SWAP2 POP DUP1 DUP1 PUSH1 0x1 ADD SWAP2 POP POP PUSH2 0x104 JUMP JUMPDEST POP POP SWAP3 SWAP2 POP POP JUMP JUMPDEST PUSH1 0x60 DUP3 DUP3 PUSH1 0x40 MLOAD PUSH1 0x20 ADD DUP1 DUP4 DUP1 MLOAD SWAP1 PUSH1 0x20 ADD SWAP1 DUP1 DUP4 DUP4 JUMPDEST PUSH1 0x20 DUP4 LT PUSH2 0x1CF JUMPI DUP1 MLOAD DUP3 MSTORE PUSH1 0x20 DUP3 ADD SWAP2 POP PUSH1 0x20 DUP2 ADD SWAP1 POP PUSH1 0x20 DUP4 SUB SWAP3 POP PUSH2 0x1AC JUMP JUMPDEST PUSH1 0x1 DUP4 PUSH1 0x20 SUB PUSH2 0x100 EXP SUB DUP1 NOT DUP3 MLOAD AND DUP2 DUP5 MLOAD AND DUP1 DUP3 OR DUP6 MSTORE POP POP POP POP POP POP SWAP1 POP ADD DUP3 DUP1 MLOAD SWAP1 PUSH1 0x20 ADD SWAP1 DUP1 DUP4 DUP4 JUMPDEST PUSH1 0x20 DUP4 LT PUSH2 0x220 JUMPI DUP1 MLOAD DUP3 MSTORE PUSH1 0x20 DUP3 ADD SWAP2 POP PUSH1 0x20 DUP2 ADD SWAP1 POP PUSH1 0x20 DUP4 SUB SWAP3 POP PUSH2 0x1FD JUMP JUMPDEST PUSH1 0x1 DUP4 PUSH1 0x20 SUB PUSH2 0x100 EXP SUB DUP1 NOT DUP3 MLOAD AND DUP2 DUP5 MLOAD AND DUP1 DUP3 OR DUP6 MSTORE POP POP POP POP POP POP SWAP1 POP ADD SWAP3 POP POP POP PUSH1 0x40 MLOAD PUSH1 0x20 DUP2 DUP4 SUB SUB DUP2 MSTORE SWAP1 PUSH1 0x40 MSTORE SWAP1 POP SWAP3 SWAP2 POP POP JUMP JUMPDEST PUSH1 0x60 PUSH1 0x0 DUP3 EQ ISZERO PUSH2 0x2A5 JUMPI PUSH1 0x40 MLOAD DUP1 PUSH1 0x40 ADD PUSH1 0x40 MSTORE DUP1 PUSH1 0x1 DUP2 MSTORE PUSH1 0x20 ADD PUSH32 0x3000000000000000000000000000000000000000000000000000000000000000 DUP2 MSTORE POP SWAP1 POP PUSH2 0x39C JUMP JUMPDEST PUSH1 0x0 DUP3 SWAP1 POP PUSH1 0x0 JUMPDEST PUSH1 0x0 DUP3 EQ PUSH2 0x2CF JUMPI DUP1 DUP1 PUSH1 0x1 ADD SWAP2 POP POP PUSH1 0xA DUP3 DUP2 PUSH2 0x2C7 JUMPI INVALID JUMPDEST DIV SWAP2 POP PUSH2 0x2AD JUMP JUMPDEST PUSH1 0x0 DUP2 PUSH8 0xFFFFFFFFFFFFFFFF DUP2 GT DUP1 ISZERO PUSH2 0x2E8 JUMPI PUSH1 0x0 DUP1 REVERT JUMPDEST POP PUSH1 0x40 MLOAD SWAP1 DUP1 DUP3 MSTORE DUP1 PUSH1 0x1F ADD PUSH1 0x1F NOT AND PUSH1 0x20 ADD DUP3 ADD PUSH1 0x40 MSTORE DUP1 ISZERO PUSH2 0x31B JUMPI DUP2 PUSH1 0x20 ADD PUSH1 0x1 DUP3 MUL DUP1 CALLDATASIZE DUP4 CALLDATACOPY DUP1 DUP3 ADD SWAP2 POP POP SWAP1 POP JUMPDEST POP SWAP1 POP PUSH1 0x0 PUSH1 0x1 DUP4 SUB SWAP1 POP JUMPDEST PUSH1 0x0 DUP7 EQ PUSH2 0x394 JUMPI PUSH1 0xA DUP7 DUP2 PUSH2 0x339 JUMPI INVALID JUMPDEST MOD PUSH1 0x30 ADD PUSH1 0xF8 SHL DUP3 DUP3 DUP1 PUSH1 0x1 SWAP1 SUB SWAP4 POP DUP2 MLOAD DUP2 LT PUSH2 0x353 JUMPI INVALID JUMPDEST PUSH1 0x20 ADD ADD SWAP1 PUSH31 0xFFFFFFFFFFFFFFFFFFFFFFFFFFFFFFFFFFFFFFFFFFFFFFFFFFFFFFFFFFFFFF NOT AND SWAP1 DUP2 PUSH1 0x0 BYTE SWAP1 MSTORE8 POP PUSH1 0xA DUP7 DUP2 PUSH2 0x38C JUMPI INVALID JUMPDEST DIV SWAP6 POP PUSH2 0x327 JUMP JUMPDEST DUP2 SWAP5 POP POP POP POP POP JUMPDEST SWAP2 SWAP1 POP JUMP INVALID LOG2 PUSH5 0x6970667358 0x22 SLT KECCAK256 0x2E GT 0xB8 DUP9 DUP11 PUSH24 0x5D196B5D04D40E365B48BF5F76D4A509597D4AE9D771E36 SELFBALANCE DUP10 PUSH5 0x736F6C6343 STOP SMOD MOD STOP CALLER "
				},
				"gasEstimates": {
					"creation": {
						"codeDepositCost": "196600",
						"executionCost": "20244",
						"totalCost": "216844"
					},
					"external": {
						"hash(uint256[])": "infinite",
						"value()": "983"
					},
					"internal": {
						"stringConcat(string memory,string memory)": "infinite",
						"uint2str(uint256)": "infinite"
					}
				},
				"methodIdentifiers": {
					"hash(uint256[])": "40ec6e49",
					"value()": "3fa4f245"
				}
			},
			"storageLayout": {
				"storage": [
					{
						"astId": 4,
						"contract": "contracts/Decode.sol:Decode",
						"label": "value",
						"offset": 0,
						"slot": "0",
						"type": "t_uint256"
					}
				],
				"types": {
					"t_uint256": {
						"encoding": "inplace",
						"label": "uint256",
						"numberOfBytes": "32"
					}
				}
			},
			"userdoc": {
				"kind": "user",
				"methods": {},
				"version": 1
			}
		}
	}
}