{
	"contracts/Decode.sol": {
		"Decode": {
			"abi": [
				{
					"inputs": [],
					"stateMutability": "nonpayable",
					"type": "constructor"
				},
				{
					"inputs": [
						{
							"internalType": "uint256[]",
							"name": "values",
							"type": "uint256[]"
						}
					],
					"name": "hash",
					"outputs": [
						{
							"internalType": "string",
							"name": "",
							"type": "string"
						}
					],
					"stateMutability": "pure",
					"type": "function"
				},
				{
					"inputs": [],
					"name": "value",
					"outputs": [
						{
							"internalType": "uint256",
							"name": "",
							"type": "uint256"
						}
					],
					"stateMutability": "view",
					"type": "function"
				}
			],
			"devdoc": {
				"kind": "dev",
				"methods": {},
				"version": 1
			},
			"evm": {
				"assembly": "    /* \"contracts/Decode.sol\":57:1069  contract Decode {... */\n  mstore(0x40, 0x80)\n    /* \"contracts/Decode.sol\":101:140  222674612520120847769739984565459710017 */\n  0xa78592067011a5fcb132a6afca437041\n    /* \"contracts/Decode.sol\":78:140  uint256 public value = 222674612520120847769739984565459710017 */\n  0x00\n  sstore\n    /* \"contracts/Decode.sol\":146:169  constructor() public {} */\n  callvalue\n  dup1\n  iszero\n  tag_1\n  jumpi\n  0x00\n  dup1\n  revert\ntag_1:\n  pop\n    /* \"contracts/Decode.sol\":57:1069  contract Decode {... */\n  dataSize(sub_0)\n  dup1\n  dataOffset(sub_0)\n  0x00\n  codecopy\n  0x00\n  return\nstop\n\nsub_0: assembly {\n        /* \"contracts/Decode.sol\":57:1069  contract Decode {... */\n      mstore(0x40, 0x80)\n      callvalue\n      dup1\n      iszero\n      tag_1\n      jumpi\n      0x00\n      dup1\n      revert\n    tag_1:\n      pop\n      jumpi(tag_2, lt(calldatasize, 0x04))\n      shr(0xe0, calldataload(0x00))\n      dup1\n      0x3fa4f245\n      eq\n      tag_3\n      jumpi\n      dup1\n      0x40ec6e49\n      eq\n      tag_4\n      jumpi\n    tag_2:\n      0x00\n      dup1\n      revert\n        /* \"contracts/Decode.sol\":78:140  uint256 public value = 222674612520120847769739984565459710017 */\n    tag_3:\n      tag_5\n      tag_6\n      jump\t// in\n    tag_5:\n      mload(0x40)\n      dup1\n      dup3\n      dup2\n      mstore\n      0x20\n      add\n      swap2\n      pop\n      pop\n      mload(0x40)\n      dup1\n      swap2\n      sub\n      swap1\n      return\n        /* \"contracts/Decode.sol\":174:479  function hash(uint256[] calldata values) public pure returns (string memory) {... */\n    tag_4:\n      tag_7\n      0x04\n      dup1\n      calldatasize\n      sub\n      0x20\n      dup2\n      lt\n      iszero\n      tag_8\n      jumpi\n      0x00\n      dup1\n      revert\n    tag_8:\n      dup2\n      add\n      swap1\n      dup1\n      dup1\n      calldataload\n      swap1\n      0x20\n      add\n      swap1\n      0x0100000000\n      dup2\n      gt\n      iszero\n      tag_9\n      jumpi\n      0x00\n      dup1\n      revert\n    tag_9:\n      dup3\n      add\n      dup4\n      0x20\n      dup3\n      add\n      gt\n      iszero\n      tag_10\n      jumpi\n      0x00\n      dup1\n      revert\n    tag_10:\n      dup1\n      calldataload\n      swap1\n      0x20\n      add\n      swap2\n      dup5\n      0x20\n      dup4\n      mul\n      dup5\n      add\n      gt\n      0x0100000000\n      dup4\n      gt\n      or\n      iszero\n      tag_11\n      jumpi\n      0x00\n      dup1\n      revert\n    tag_11:\n      swap1\n      swap2\n      swap3\n      swap4\n      swap2\n      swap3\n      swap4\n      swap1\n      pop\n      pop\n      pop\n      tag_12\n      jump\t// in\n    tag_7:\n      mload(0x40)\n      dup1\n      dup1\n      0x20\n      add\n      dup3\n      dup2\n      sub\n      dup3\n      mstore\n      dup4\n      dup2\n      dup2\n      mload\n      dup2\n      mstore\n      0x20\n      add\n      swap2\n      pop\n      dup1\n      mload\n      swap1\n      0x20\n      add\n      swap1\n      dup1\n      dup4\n      dup4\n      0x00\n    tag_13:\n      dup4\n      dup2\n      lt\n      iszero\n      tag_15\n      jumpi\n      dup1\n      dup3\n      add\n      mload\n      dup2\n      dup5\n      add\n      mstore\n      0x20\n      dup2\n      add\n      swap1\n      pop\n      jump(tag_13)\n    tag_15:\n      pop\n      pop\n      pop\n      pop\n      swap1\n      pop\n      swap1\n      dup2\n      add\n      swap1\n      0x1f\n      and\n      dup1\n      iszero\n      tag_16\n      jumpi\n      dup1\n      dup3\n      sub\n      dup1\n      mload\n      0x01\n      dup4\n      0x20\n      sub\n      0x0100\n      exp\n      sub\n      not\n      and\n      dup2\n      mstore\n      0x20\n      add\n      swap2\n      pop\n    tag_16:\n      pop\n      swap3\n      pop\n      pop\n      pop\n      mload(0x40)\n      dup1\n      swap2\n      sub\n      swap1\n      return\n        /* \"contracts/Decode.sol\":78:140  uint256 public value = 222674612520120847769739984565459710017 */\n    tag_6:\n      sload(0x00)\n      dup2\n      jump\t// out\n        /* \"contracts/Decode.sol\":174:479  function hash(uint256[] calldata values) public pure returns (string memory) {... */\n    tag_12:\n        /* \"contracts/Decode.sol\":236:249  string memory */\n      0x60\n        /* \"contracts/Decode.sol\":258:276  string memory data */\n      0x00\n        /* \"contracts/Decode.sol\":258:281  string memory data = \"\" */\n      mload(0x40)\n      dup1\n      0x20\n      add\n      0x40\n      mstore\n      dup1\n      0x00\n      dup2\n      mstore\n      pop\n      swap1\n      pop\n        /* \"contracts/Decode.sol\":292:298  uint i */\n      0x00\n        /* \"contracts/Decode.sol\":287:457  for (uint i=0; i<values.length; i++) {... */\n    tag_18:\n        /* \"contracts/Decode.sol\":304:310  values */\n      dup5\n      dup5\n        /* \"contracts/Decode.sol\":304:317  values.length */\n      swap1\n      pop\n        /* \"contracts/Decode.sol\":302:303  i */\n      dup2\n        /* \"contracts/Decode.sol\":302:317  i<values.length */\n      lt\n        /* \"contracts/Decode.sol\":287:457  for (uint i=0; i<values.length; i++) {... */\n      iszero\n      tag_19\n      jumpi\n        /* \"contracts/Decode.sol\":340:341  0 */\n      0x00\n        /* \"contracts/Decode.sol\":338:339  i */\n      dup2\n        /* \"contracts/Decode.sol\":338:341  i>0 */\n      gt\n        /* \"contracts/Decode.sol\":334:395  if (i>0){... */\n      iszero\n      tag_21\n      jumpi\n        /* \"contracts/Decode.sol\":361:384  stringConcat(data, \",\") */\n      tag_22\n        /* \"contracts/Decode.sol\":374:378  data */\n      dup3\n        /* \"contracts/Decode.sol\":361:384  stringConcat(data, \",\") */\n      mload(0x40)\n      dup1\n      0x40\n      add\n      0x40\n      mstore\n      dup1\n      0x01\n      dup2\n      mstore\n      0x20\n      add\n      0x2c00000000000000000000000000000000000000000000000000000000000000\n      dup2\n      mstore\n      pop\n        /* \"contracts/Decode.sol\":361:373  stringConcat */\n      tag_23\n        /* \"contracts/Decode.sol\":361:384  stringConcat(data, \",\") */\n      jump\t// in\n    tag_22:\n        /* \"contracts/Decode.sol\":354:384  data = stringConcat(data, \",\") */\n      swap2\n      pop\n        /* \"contracts/Decode.sol\":334:395  if (i>0){... */\n    tag_21:\n        /* \"contracts/Decode.sol\":411:450  stringConcat(data, uint2str(values[i])) */\n      tag_24\n        /* \"contracts/Decode.sol\":424:428  data */\n      dup3\n        /* \"contracts/Decode.sol\":430:449  uint2str(values[i]) */\n      tag_25\n        /* \"contracts/Decode.sol\":439:445  values */\n      dup8\n      dup8\n        /* \"contracts/Decode.sol\":446:447  i */\n      dup6\n        /* \"contracts/Decode.sol\":439:448  values[i] */\n      dup2\n      dup2\n      lt\n      tag_26\n      jumpi\n      invalid\n    tag_26:\n      swap1\n      pop\n      0x20\n      mul\n      add\n      calldataload\n        /* \"contracts/Decode.sol\":430:438  uint2str */\n      tag_27\n        /* \"contracts/Decode.sol\":430:449  uint2str(values[i]) */\n      jump\t// in\n    tag_25:\n        /* \"contracts/Decode.sol\":411:423  stringConcat */\n      tag_23\n        /* \"contracts/Decode.sol\":411:450  stringConcat(data, uint2str(values[i])) */\n      jump\t// in\n    tag_24:\n        /* \"contracts/Decode.sol\":404:450  data = stringConcat(data, uint2str(values[i])) */\n      swap2\n      pop\n        /* \"contracts/Decode.sol\":319:322  i++ */\n      dup1\n      dup1\n      0x01\n      add\n      swap2\n      pop\n      pop\n        /* \"contracts/Decode.sol\":287:457  for (uint i=0; i<values.length; i++) {... */\n      jump(tag_18)\n    tag_19:\n      pop\n        /* \"contracts/Decode.sol\":469:473  data */\n      dup1\n        /* \"contracts/Decode.sol\":462:473  return data */\n      swap2\n      pop\n      pop\n        /* \"contracts/Decode.sol\":174:479  function hash(uint256[] calldata values) public pure returns (string memory) {... */\n      swap3\n      swap2\n      pop\n      pop\n      jump\t// out\n        /* \"contracts/Decode.sol\":922:1066  function stringConcat(string memory a, string memory b) internal pure returns (string memory) {... */\n    tag_23:\n        /* \"contracts/Decode.sol\":1001:1014  string memory */\n      0x60\n        /* \"contracts/Decode.sol\":1054:1055  a */\n      dup3\n        /* \"contracts/Decode.sol\":1057:1058  b */\n      dup3\n        /* \"contracts/Decode.sol\":1037:1059  abi.encodePacked(a, b) */\n      add(0x20, mload(0x40))\n      dup1\n      dup4\n      dup1\n      mload\n      swap1\n      0x20\n      add\n      swap1\n      dup1\n      dup4\n      dup4\n    tag_29:\n      0x20\n      dup4\n      lt\n      tag_31\n      jumpi\n      dup1\n      mload\n      dup3\n      mstore\n      0x20\n      dup3\n      add\n      swap2\n      pop\n      0x20\n      dup2\n      add\n      swap1\n      pop\n      0x20\n      dup4\n      sub\n      swap3\n      pop\n      jump(tag_29)\n    tag_31:\n      0x01\n      dup4\n      0x20\n      sub\n      0x0100\n      exp\n      sub\n      dup1\n      not\n      dup3\n      mload\n      and\n      dup2\n      dup5\n      mload\n      and\n      dup1\n      dup3\n      or\n      dup6\n      mstore\n      pop\n      pop\n      pop\n      pop\n      pop\n      pop\n      swap1\n      pop\n      add\n      dup3\n      dup1\n      mload\n      swap1\n      0x20\n      add\n      swap1\n      dup1\n      dup4\n      dup4\n    tag_32:\n      0x20\n      dup4\n      lt\n      tag_34\n      jumpi\n      dup1\n      mload\n      dup3\n      mstore\n      0x20\n      dup3\n      add\n      swap2\n      pop\n      0x20\n      dup2\n      add\n      swap1\n      pop\n      0x20\n      dup4\n      sub\n      swap3\n      pop\n      jump(tag_32)\n    tag_34:\n      0x01\n      dup4\n      0x20\n      sub\n      0x0100\n      exp\n      sub\n      dup1\n      not\n      dup3\n      mload\n      and\n      dup2\n      dup5\n      mload\n      and\n      dup1\n      dup3\n      or\n      dup6\n      mstore\n      pop\n      pop\n      pop\n      pop\n      pop\n      pop\n      swap1\n      pop\n      add\n      swap3\n      pop\n      pop\n      pop\n      mload(0x40)\n      0x20\n      dup2\n      dup4\n      sub\n      sub\n      dup2\n      mstore\n      swap1\n      0x40\n      mstore\n        /* \"contracts/Decode.sol\":1023:1060  return string(abi.encodePacked(a, b)) */\n      swap1\n      pop\n        /* \"contracts/Decode.sol\":922:1066  function stringConcat(string memory a, string memory b) internal pure returns (string memory) {... */\n      swap3\n      swap2\n      pop\n      pop\n      jump\t// out\n        /* \"contracts/Decode.sol\":487:918  function uint2str(uint _i) internal pure returns (string memory _uintAsString) {... */\n    tag_27:\n        /* \"contracts/Decode.sol\":537:564  string memory _uintAsString */\n      0x60\n        /* \"contracts/Decode.sol\":584:585  0 */\n      0x00\n        /* \"contracts/Decode.sol\":578:580  _i */\n      dup3\n        /* \"contracts/Decode.sol\":578:585  _i == 0 */\n      eq\n        /* \"contracts/Decode.sol\":574:618  if (_i == 0) {... */\n      iszero\n      tag_36\n      jumpi\n        /* \"contracts/Decode.sol\":599:609  return \"0\" */\n      mload(0x40)\n      dup1\n      0x40\n      add\n      0x40\n      mstore\n      dup1\n      0x01\n      dup2\n      mstore\n      0x20\n      add\n      0x3000000000000000000000000000000000000000000000000000000000000000\n      dup2\n      mstore\n      pop\n      swap1\n      pop\n      jump(tag_35)\n        /* \"contracts/Decode.sol\":574:618  if (_i == 0) {... */\n    tag_36:\n        /* \"contracts/Decode.sol\":625:631  uint j */\n      0x00\n        /* \"contracts/Decode.sol\":634:636  _i */\n      dup3\n        /* \"contracts/Decode.sol\":625:636  uint j = _i */\n      swap1\n      pop\n        /* \"contracts/Decode.sol\":644:652  uint len */\n      0x00\n        /* \"contracts/Decode.sol\":660:720  while (j != 0) {... */\n    tag_37:\n        /* \"contracts/Decode.sol\":672:673  0 */\n      0x00\n        /* \"contracts/Decode.sol\":667:668  j */\n      dup3\n        /* \"contracts/Decode.sol\":667:673  j != 0 */\n      eq\n        /* \"contracts/Decode.sol\":660:720  while (j != 0) {... */\n      tag_38\n      jumpi\n        /* \"contracts/Decode.sol\":687:692  len++ */\n      dup1\n      dup1\n      0x01\n      add\n      swap2\n      pop\n      pop\n        /* \"contracts/Decode.sol\":709:711  10 */\n      0x0a\n        /* \"contracts/Decode.sol\":704:711  j /= 10 */\n      dup3\n      dup2\n      tag_39\n      jumpi\n      invalid\n    tag_39:\n      div\n      swap2\n      pop\n        /* \"contracts/Decode.sol\":660:720  while (j != 0) {... */\n      jump(tag_37)\n    tag_38:\n        /* \"contracts/Decode.sol\":727:744  bytes memory bstr */\n      0x00\n        /* \"contracts/Decode.sol\":757:760  len */\n      dup2\n        /* \"contracts/Decode.sol\":747:761  new bytes(len) */\n      0xffffffffffffffff\n      dup2\n      gt\n      dup1\n      iszero\n      tag_40\n      jumpi\n      0x00\n      dup1\n      revert\n    tag_40:\n      pop\n      mload(0x40)\n      swap1\n      dup1\n      dup3\n      mstore\n      dup1\n      0x1f\n      add\n      not(0x1f)\n      and\n      0x20\n      add\n      dup3\n      add\n      0x40\n      mstore\n      dup1\n      iszero\n      tag_41\n      jumpi\n      dup2\n      0x20\n      add\n      0x01\n      dup3\n      mul\n      dup1\n      calldatasize\n      dup4\n      calldatacopy\n      dup1\n      dup3\n      add\n      swap2\n      pop\n      pop\n      swap1\n      pop\n    tag_41:\n      pop\n        /* \"contracts/Decode.sol\":727:761  bytes memory bstr = new bytes(len) */\n      swap1\n      pop\n        /* \"contracts/Decode.sol\":769:775  uint k */\n      0x00\n        /* \"contracts/Decode.sol\":784:785  1 */\n      0x01\n        /* \"contracts/Decode.sol\":778:781  len */\n      dup4\n        /* \"contracts/Decode.sol\":778:785  len - 1 */\n      sub\n        /* \"contracts/Decode.sol\":769:785  uint k = len - 1 */\n      swap1\n      pop\n        /* \"contracts/Decode.sol\":793:887  while (_i != 0) {... */\n    tag_42:\n        /* \"contracts/Decode.sol\":806:807  0 */\n      0x00\n        /* \"contracts/Decode.sol\":800:802  _i */\n      dup7\n        /* \"contracts/Decode.sol\":800:807  _i != 0 */\n      eq\n        /* \"contracts/Decode.sol\":793:887  while (_i != 0) {... */\n      tag_43\n      jumpi\n        /* \"contracts/Decode.sol\":854:856  10 */\n      0x0a\n        /* \"contracts/Decode.sol\":849:851  _i */\n      dup7\n        /* \"contracts/Decode.sol\":849:856  _i % 10 */\n      dup2\n      tag_44\n      jumpi\n      invalid\n    tag_44:\n      mod\n        /* \"contracts/Decode.sol\":844:846  48 */\n      0x30\n        /* \"contracts/Decode.sol\":844:856  48 + _i % 10 */\n      add\n        /* \"contracts/Decode.sol\":833:858  byte(uint8(48 + _i % 10)) */\n      0xf8\n      shl\n        /* \"contracts/Decode.sol\":821:825  bstr */\n      dup3\n        /* \"contracts/Decode.sol\":826:829  k-- */\n      dup3\n      dup1\n      0x01\n      swap1\n      sub\n      swap4\n      pop\n        /* \"contracts/Decode.sol\":821:830  bstr[k--] */\n      dup2\n      mload\n      dup2\n      lt\n      tag_45\n      jumpi\n      invalid\n    tag_45:\n      0x20\n      add\n      add\n        /* \"contracts/Decode.sol\":821:858  bstr[k--] = byte(uint8(48 + _i % 10)) */\n      swap1\n      not(0xffffffffffffffffffffffffffffffffffffffffffffffffffffffffffffff)\n      and\n      swap1\n      dup2\n      0x00\n      byte\n      swap1\n      mstore8\n      pop\n        /* \"contracts/Decode.sol\":876:878  10 */\n      0x0a\n        /* \"contracts/Decode.sol\":870:878  _i /= 10 */\n      dup7\n      dup2\n      tag_46\n      jumpi\n      invalid\n    tag_46:\n      div\n      swap6\n      pop\n        /* \"contracts/Decode.sol\":793:887  while (_i != 0) {... */\n      jump(tag_42)\n    tag_43:\n        /* \"contracts/Decode.sol\":908:912  bstr */\n      dup2\n        /* \"contracts/Decode.sol\":894:913  return string(bstr) */\n      swap5\n      pop\n      pop\n      pop\n      pop\n      pop\n        /* \"contracts/Decode.sol\":487:918  function uint2str(uint _i) internal pure returns (string memory _uintAsString) {... */\n    tag_35:\n      swap2\n      swap1\n      pop\n      jump\t// out\n\n    auxdata: 0xa2646970667358221220d429bca32a6786597f78dc9708d98021576d69b0273246c0c4f7356db26097a364736f6c63430007060033\n}\n",
				"bytecode": {
					"linkReferences": {},
					"object": "60806040526fa78592067011a5fcb132a6afca43704160005534801561002457600080fd5b50610440806100346000396000f3fe608060405234801561001057600080fd5b50600436106100365760003560e01c80633fa4f2451461003b57806340ec6e4914610059575b600080fd5b61004361014b565b6040518082815260200191505060405180910390f35b6100d06004803603602081101561006f57600080fd5b810190808035906020019064010000000081111561008c57600080fd5b82018360208201111561009e57600080fd5b803590602001918460208302840111640100000000831117156100c057600080fd5b9091929391929390505050610151565b6040518080602001828103825283818151815260200191508051906020019080838360005b838110156101105780820151818401526020810190506100f5565b50505050905090810190601f16801561013d5780820380516001836020036101000a031916815260200191505b509250505060405180910390f35b60005481565b6060600060405180602001604052806000815250905060005b848490508110156101f35760008111156101c0576101bd826040518060400160405280600181526020017f2c000000000000000000000000000000000000000000000000000000000000008152506101fe565b91505b6101e4826101df8787858181106101d357fe5b905060200201356102c6565b6101fe565b9150808060010191505061016a565b508091505092915050565b606082826040516020018083805190602001908083835b602083106102385780518252602082019150602081019050602083039250610215565b6001836020036101000a03801982511681845116808217855250505050505090500182805190602001908083835b602083106102895780518252602082019150602081019050602083039250610266565b6001836020036101000a03801982511681845116808217855250505050505090500192505050604051602081830303815290604052905092915050565b6060600082141561030e576040518060400160405280600181526020017f30000000000000000000000000000000000000000000000000000000000000008152509050610405565b600082905060005b60008214610338578080600101915050600a828161033057fe5b049150610316565b60008167ffffffffffffffff8111801561035157600080fd5b506040519080825280601f01601f1916602001820160405280156103845781602001600182028036833780820191505090505b50905060006001830390505b600086146103fd57600a86816103a257fe5b0660300160f81b828280600190039350815181106103bc57fe5b60200101907effffffffffffffffffffffffffffffffffffffffffffffffffffffffffffff1916908160001a905350600a86816103f557fe5b049550610390565b819450505050505b91905056fea2646970667358221220d429bca32a6786597f78dc9708d98021576d69b0273246c0c4f7356db26097a364736f6c63430007060033",
					"opcodes": "PUSH1 0x80 PUSH1 0x40 MSTORE PUSH16 0xA78592067011A5FCB132A6AFCA437041 PUSH1 0x0 SSTORE CALLVALUE DUP1 ISZERO PUSH2 0x24 JUMPI PUSH1 0x0 DUP1 REVERT JUMPDEST POP PUSH2 0x440 DUP1 PUSH2 0x34 PUSH1 0x0 CODECOPY PUSH1 0x0 RETURN INVALID PUSH1 0x80 PUSH1 0x40 MSTORE CALLVALUE DUP1 ISZERO PUSH2 0x10 JUMPI PUSH1 0x0 DUP1 REVERT JUMPDEST POP PUSH1 0x4 CALLDATASIZE LT PUSH2 0x36 JUMPI PUSH1 0x0 CALLDATALOAD PUSH1 0xE0 SHR DUP1 PUSH4 0x3FA4F245 EQ PUSH2 0x3B JUMPI DUP1 PUSH4 0x40EC6E49 EQ PUSH2 0x59 JUMPI JUMPDEST PUSH1 0x0 DUP1 REVERT JUMPDEST PUSH2 0x43 PUSH2 0x14B JUMP JUMPDEST PUSH1 0x40 MLOAD DUP1 DUP3 DUP2 MSTORE PUSH1 0x20 ADD SWAP2 POP POP PUSH1 0x40 MLOAD DUP1 SWAP2 SUB SWAP1 RETURN JUMPDEST PUSH2 0xD0 PUSH1 0x4 DUP1 CALLDATASIZE SUB PUSH1 0x20 DUP2 LT ISZERO PUSH2 0x6F JUMPI PUSH1 0x0 DUP1 REVERT JUMPDEST DUP2 ADD SWAP1 DUP1 DUP1 CALLDATALOAD SWAP1 PUSH1 0x20 ADD SWAP1 PUSH5 0x100000000 DUP2 GT ISZERO PUSH2 0x8C JUMPI PUSH1 0x0 DUP1 REVERT JUMPDEST DUP3 ADD DUP4 PUSH1 0x20 DUP3 ADD GT ISZERO PUSH2 0x9E JUMPI PUSH1 0x0 DUP1 REVERT JUMPDEST DUP1 CALLDATALOAD SWAP1 PUSH1 0x20 ADD SWAP2 DUP5 PUSH1 0x20 DUP4 MUL DUP5 ADD GT PUSH5 0x100000000 DUP4 GT OR ISZERO PUSH2 0xC0 JUMPI PUSH1 0x0 DUP1 REVERT JUMPDEST SWAP1 SWAP2 SWAP3 SWAP4 SWAP2 SWAP3 SWAP4 SWAP1 POP POP POP PUSH2 0x151 JUMP JUMPDEST PUSH1 0x40 MLOAD DUP1 DUP1 PUSH1 0x20 ADD DUP3 DUP2 SUB DUP3 MSTORE DUP4 DUP2 DUP2 MLOAD DUP2 MSTORE PUSH1 0x20 ADD SWAP2 POP DUP1 MLOAD SWAP1 PUSH1 0x20 ADD SWAP1 DUP1 DUP4 DUP4 PUSH1 0x0 JUMPDEST DUP4 DUP2 LT ISZERO PUSH2 0x110 JUMPI DUP1 DUP3 ADD MLOAD DUP2 DUP5 ADD MSTORE PUSH1 0x20 DUP2 ADD SWAP1 POP PUSH2 0xF5 JUMP JUMPDEST POP POP POP POP SWAP1 POP SWAP1 DUP2 ADD SWAP1 PUSH1 0x1F AND DUP1 ISZERO PUSH2 0x13D JUMPI DUP1 DUP3 SUB DUP1 MLOAD PUSH1 0x1 DUP4 PUSH1 0x20 SUB PUSH2 0x100 EXP SUB NOT AND DUP2 MSTORE PUSH1 0x20 ADD SWAP2 POP JUMPDEST POP SWAP3 POP POP POP PUSH1 0x40 MLOAD DUP1 SWAP2 SUB SWAP1 RETURN JUMPDEST PUSH1 0x0 SLOAD DUP2 JUMP JUMPDEST PUSH1 0x60 PUSH1 0x0 PUSH1 0x40 MLOAD DUP1 PUSH1 0x20 ADD PUSH1 0x40 MSTORE DUP1 PUSH1 0x0 DUP2 MSTORE POP SWAP1 POP PUSH1 0x0 JUMPDEST DUP5 DUP5 SWAP1 POP DUP2 LT ISZERO PUSH2 0x1F3 JUMPI PUSH1 0x0 DUP2 GT ISZERO PUSH2 0x1C0 JUMPI PUSH2 0x1BD DUP3 PUSH1 0x40 MLOAD DUP1 PUSH1 0x40 ADD PUSH1 0x40 MSTORE DUP1 PUSH1 0x1 DUP2 MSTORE PUSH1 0x20 ADD PUSH32 0x2C00000000000000000000000000000000000000000000000000000000000000 DUP2 MSTORE POP PUSH2 0x1FE JUMP JUMPDEST SWAP2 POP JUMPDEST PUSH2 0x1E4 DUP3 PUSH2 0x1DF DUP8 DUP8 DUP6 DUP2 DUP2 LT PUSH2 0x1D3 JUMPI INVALID JUMPDEST SWAP1 POP PUSH1 0x20 MUL ADD CALLDATALOAD PUSH2 0x2C6 JUMP JUMPDEST PUSH2 0x1FE JUMP JUMPDEST SWAP2 POP DUP1 DUP1 PUSH1 0x1 ADD SWAP2 POP POP PUSH2 0x16A JUMP JUMPDEST POP DUP1 SWAP2 POP POP SWAP3 SWAP2 POP POP JUMP JUMPDEST PUSH1 0x60 DUP3 DUP3 PUSH1 0x40 MLOAD PUSH1 0x20 ADD DUP1 DUP4 DUP1 MLOAD SWAP1 PUSH1 0x20 ADD SWAP1 DUP1 DUP4 DUP4 JUMPDEST PUSH1 0x20 DUP4 LT PUSH2 0x238 JUMPI DUP1 MLOAD DUP3 MSTORE PUSH1 0x20 DUP3 ADD SWAP2 POP PUSH1 0x20 DUP2 ADD SWAP1 POP PUSH1 0x20 DUP4 SUB SWAP3 POP PUSH2 0x215 JUMP JUMPDEST PUSH1 0x1 DUP4 PUSH1 0x20 SUB PUSH2 0x100 EXP SUB DUP1 NOT DUP3 MLOAD AND DUP2 DUP5 MLOAD AND DUP1 DUP3 OR DUP6 MSTORE POP POP POP POP POP POP SWAP1 POP ADD DUP3 DUP1 MLOAD SWAP1 PUSH1 0x20 ADD SWAP1 DUP1 DUP4 DUP4 JUMPDEST PUSH1 0x20 DUP4 LT PUSH2 0x289 JUMPI DUP1 MLOAD DUP3 MSTORE PUSH1 0x20 DUP3 ADD SWAP2 POP PUSH1 0x20 DUP2 ADD SWAP1 POP PUSH1 0x20 DUP4 SUB SWAP3 POP PUSH2 0x266 JUMP JUMPDEST PUSH1 0x1 DUP4 PUSH1 0x20 SUB PUSH2 0x100 EXP SUB DUP1 NOT DUP3 MLOAD AND DUP2 DUP5 MLOAD AND DUP1 DUP3 OR DUP6 MSTORE POP POP POP POP POP POP SWAP1 POP ADD SWAP3 POP POP POP PUSH1 0x40 MLOAD PUSH1 0x20 DUP2 DUP4 SUB SUB DUP2 MSTORE SWAP1 PUSH1 0x40 MSTORE SWAP1 POP SWAP3 SWAP2 POP POP JUMP JUMPDEST PUSH1 0x60 PUSH1 0x0 DUP3 EQ ISZERO PUSH2 0x30E JUMPI PUSH1 0x40 MLOAD DUP1 PUSH1 0x40 ADD PUSH1 0x40 MSTORE DUP1 PUSH1 0x1 DUP2 MSTORE PUSH1 0x20 ADD PUSH32 0x3000000000000000000000000000000000000000000000000000000000000000 DUP2 MSTORE POP SWAP1 POP PUSH2 0x405 JUMP JUMPDEST PUSH1 0x0 DUP3 SWAP1 POP PUSH1 0x0 JUMPDEST PUSH1 0x0 DUP3 EQ PUSH2 0x338 JUMPI DUP1 DUP1 PUSH1 0x1 ADD SWAP2 POP POP PUSH1 0xA DUP3 DUP2 PUSH2 0x330 JUMPI INVALID JUMPDEST DIV SWAP2 POP PUSH2 0x316 JUMP JUMPDEST PUSH1 0x0 DUP2 PUSH8 0xFFFFFFFFFFFFFFFF DUP2 GT DUP1 ISZERO PUSH2 0x351 JUMPI PUSH1 0x0 DUP1 REVERT JUMPDEST POP PUSH1 0x40 MLOAD SWAP1 DUP1 DUP3 MSTORE DUP1 PUSH1 0x1F ADD PUSH1 0x1F NOT AND PUSH1 0x20 ADD DUP3 ADD PUSH1 0x40 MSTORE DUP1 ISZERO PUSH2 0x384 JUMPI DUP2 PUSH1 0x20 ADD PUSH1 0x1 DUP3 MUL DUP1 CALLDATASIZE DUP4 CALLDATACOPY DUP1 DUP3 ADD SWAP2 POP POP SWAP1 POP JUMPDEST POP SWAP1 POP PUSH1 0x0 PUSH1 0x1 DUP4 SUB SWAP1 POP JUMPDEST PUSH1 0x0 DUP7 EQ PUSH2 0x3FD JUMPI PUSH1 0xA DUP7 DUP2 PUSH2 0x3A2 JUMPI INVALID JUMPDEST MOD PUSH1 0x30 ADD PUSH1 0xF8 SHL DUP3 DUP3 DUP1 PUSH1 0x1 SWAP1 SUB SWAP4 POP DUP2 MLOAD DUP2 LT PUSH2 0x3BC JUMPI INVALID JUMPDEST PUSH1 0x20 ADD ADD SWAP1 PUSH31 0xFFFFFFFFFFFFFFFFFFFFFFFFFFFFFFFFFFFFFFFFFFFFFFFFFFFFFFFFFFFFFF NOT AND SWAP1 DUP2 PUSH1 0x0 BYTE SWAP1 MSTORE8 POP PUSH1 0xA DUP7 DUP2 PUSH2 0x3F5 JUMPI INVALID JUMPDEST DIV SWAP6 POP PUSH2 0x390 JUMP JUMPDEST DUP2 SWAP5 POP POP POP POP POP JUMPDEST SWAP2 SWAP1 POP JUMP INVALID LOG2 PUSH5 0x6970667358 0x22 SLT KECCAK256 0xD4 0x29 0xBC LOG3 0x2A PUSH8 0x86597F78DC9708D9 DUP1 0x21 JUMPI PUSH14 0x69B0273246C0C4F7356DB26097A3 PUSH5 0x736F6C6343 STOP SMOD MOD STOP CALLER "
				},
				"gasEstimates": {
					"creation": {
						"codeDepositCost": "217600",
						"executionCost": "20263",
						"totalCost": "237863"
					},
					"external": {
						"hash(uint256[])": "infinite",
						"value()": "983"
					},
					"internal": {
						"stringConcat(string memory,string memory)": "infinite",
						"uint2str(uint256)": "infinite"
					}
				},
				"methodIdentifiers": {
					"hash(uint256[])": "40ec6e49",
					"value()": "3fa4f245"
				}
			},
			"storageLayout": {
				"storage": [
					{
						"astId": 4,
						"contract": "contracts/Decode.sol:Decode",
						"label": "value",
						"offset": 0,
						"slot": "0",
						"type": "t_uint256"
					}
				],
				"types": {
					"t_uint256": {
						"encoding": "inplace",
						"label": "uint256",
						"numberOfBytes": "32"
					}
				}
			},
			"userdoc": {
				"kind": "user",
				"methods": {},
				"version": 1
			}
		}
	}
}